{
  "_format": "hh-sol-artifact-1",
  "contractName": "DungeonCrawler",
  "sourceName": "contracts/dungeon_crawler.sol",
  "abi": [
    {
      "inputs": [
        {
          "internalType": "address",
          "name": "_freeXTicket",
          "type": "address"
        },
        {
          "internalType": "address",
          "name": "_ticketToken",
          "type": "address"
        }
      ],
      "stateMutability": "nonpayable",
      "type": "constructor"
    },
    {
      "inputs": [
        {
          "internalType": "address",
          "name": "owner",
          "type": "address"
        }
      ],
      "name": "OwnableInvalidOwner",
      "type": "error"
    },
    {
      "inputs": [
        {
          "internalType": "address",
          "name": "account",
          "type": "address"
        }
      ],
      "name": "OwnableUnauthorizedAccount",
      "type": "error"
    },
    {
      "anonymous": false,
      "inputs": [
        {
          "indexed": false,
          "internalType": "address",
          "name": "newAddress",
          "type": "address"
        }
      ],
      "name": "FreeXTicketUpdated",
      "type": "event"
    },
    {
      "anonymous": false,
      "inputs": [
        {
          "indexed": false,
          "internalType": "uint256",
          "name": "burned",
          "type": "uint256"
        },
        {
          "indexed": false,
          "internalType": "uint256",
          "name": "ownerFees",
          "type": "uint256"
        },
        {
          "indexed": false,
          "internalType": "uint256",
          "name": "prizePool",
          "type": "uint256"
        }
      ],
      "name": "FundsDistributed",
      "type": "event"
    },
    {
      "anonymous": false,
      "inputs": [
        {
          "indexed": true,
          "internalType": "address",
          "name": "previousOwner",
          "type": "address"
        },
        {
          "indexed": true,
          "internalType": "address",
          "name": "newOwner",
          "type": "address"
        }
      ],
      "name": "OwnershipTransferred",
      "type": "event"
    },
    {
      "anonymous": false,
      "inputs": [
        {
          "indexed": false,
          "internalType": "string",
          "name": "text",
          "type": "string"
        },
        {
          "indexed": false,
          "internalType": "string[]",
          "name": "options",
          "type": "string[]"
        }
      ],
      "name": "QuestionSet",
      "type": "event"
    },
    {
      "anonymous": false,
      "inputs": [
        {
          "indexed": false,
          "internalType": "uint256",
          "name": "winningOption",
          "type": "uint256"
        }
      ],
      "name": "RoundEnded",
      "type": "event"
    },
    {
      "anonymous": false,
      "inputs": [],
      "name": "RoundPaused",
      "type": "event"
    },
    {
      "anonymous": false,
      "inputs": [],
      "name": "RoundResumed",
      "type": "event"
    },
    {
      "anonymous": false,
      "inputs": [
        {
          "indexed": true,
          "internalType": "address",
          "name": "buyer",
          "type": "address"
        },
        {
          "indexed": false,
          "internalType": "uint256",
          "name": "answerIndex",
          "type": "uint256"
        },
        {
          "indexed": false,
          "internalType": "uint256",
          "name": "numTickets",
          "type": "uint256"
        }
      ],
      "name": "TicketPurchased",
      "type": "event"
    },
    {
      "anonymous": false,
      "inputs": [
        {
          "indexed": false,
          "internalType": "address",
          "name": "newTicketToken",
          "type": "address"
        }
      ],
      "name": "TicketTokenUpdated",
      "type": "event"
    },
    {
      "inputs": [
        {
          "internalType": "uint256",
          "name": "",
          "type": "uint256"
        },
        {
          "internalType": "uint256",
          "name": "",
          "type": "uint256"
        }
      ],
      "name": "allTicketHoldersPerRound",
      "outputs": [
        {
          "internalType": "address",
          "name": "",
          "type": "address"
        }
      ],
      "stateMutability": "view",
      "type": "function"
    },
    {
      "inputs": [],
      "name": "burnPercentage",
      "outputs": [
        {
          "internalType": "uint256",
          "name": "",
          "type": "uint256"
        }
      ],
      "stateMutability": "view",
      "type": "function"
    },
    {
      "inputs": [
        {
          "internalType": "uint256",
          "name": "answerIndex",
          "type": "uint256"
        },
        {
          "internalType": "uint256",
          "name": "numTickets",
          "type": "uint256"
        }
      ],
      "name": "buyTickets",
      "outputs": [],
      "stateMutability": "nonpayable",
      "type": "function"
    },
    {
      "inputs": [],
      "name": "currentQuestion",
      "outputs": [
        {
          "internalType": "string",
          "name": "text",
          "type": "string"
        },
        {
          "internalType": "bool",
          "name": "isSet",
          "type": "bool"
        }
      ],
      "stateMutability": "view",
      "type": "function"
    },
    {
      "inputs": [
        {
          "internalType": "address",
          "name": "user",
          "type": "address"
        }
      ],
      "name": "debugUserTickets",
      "outputs": [
        {
          "internalType": "uint256[]",
          "name": "",
          "type": "uint256[]"
        }
      ],
      "stateMutability": "view",
      "type": "function"
    },
    {
      "inputs": [
        {
          "internalType": "uint256",
          "name": "_burnPercentage",
          "type": "uint256"
        },
        {
          "internalType": "uint256",
          "name": "_feePercentage",
          "type": "uint256"
        },
        {
          "internalType": "uint256",
          "name": "_prizePercentage",
          "type": "uint256"
        },
        {
          "internalType": "uint256",
          "name": "_correctAnswerIndex",
          "type": "uint256"
        },
        {
          "internalType": "string",
          "name": "_correctAnswer",
          "type": "string"
        }
      ],
      "name": "endRound",
      "outputs": [],
      "stateMutability": "nonpayable",
      "type": "function"
    },
    {
      "inputs": [],
      "name": "feePercentage",
      "outputs": [
        {
          "internalType": "uint256",
          "name": "",
          "type": "uint256"
        }
      ],
      "stateMutability": "view",
      "type": "function"
    },
    {
      "inputs": [],
      "name": "freeXTicket",
      "outputs": [
        {
          "internalType": "contract IERC20",
          "name": "",
          "type": "address"
        }
      ],
      "stateMutability": "view",
      "type": "function"
    },
    {
      "inputs": [
        {
          "internalType": "uint256",
          "name": "roundNumber",
          "type": "uint256"
        }
      ],
      "name": "getAllTicketHolders",
      "outputs": [
        {
          "internalType": "address[]",
          "name": "",
          "type": "address[]"
        }
      ],
      "stateMutability": "view",
      "type": "function"
    },
    {
      "inputs": [],
      "name": "getCurrentRound",
      "outputs": [
        {
          "internalType": "uint256",
          "name": "",
          "type": "uint256"
        }
      ],
      "stateMutability": "view",
      "type": "function"
    },
    {
      "inputs": [],
      "name": "getNumOptions",
      "outputs": [
        {
          "internalType": "uint256",
          "name": "",
          "type": "uint256"
        }
      ],
      "stateMutability": "view",
      "type": "function"
    },
    {
      "inputs": [
        {
          "internalType": "uint256",
          "name": "roundNumber",
          "type": "uint256"
        }
      ],
      "name": "getRoundParticipants",
      "outputs": [
        {
          "internalType": "address[]",
          "name": "participants",
          "type": "address[]"
        },
        {
          "internalType": "uint256[][]",
          "name": "ticketsPerParticipant",
          "type": "uint256[][]"
        }
      ],
      "stateMutability": "view",
      "type": "function"
    },
    {
      "inputs": [
        {
          "internalType": "address",
          "name": "user",
          "type": "address"
        },
        {
          "internalType": "uint256",
          "name": "answerIndex",
          "type": "uint256"
        }
      ],
      "name": "getTicketCount",
      "outputs": [
        {
          "internalType": "uint256",
          "name": "",
          "type": "uint256"
        }
      ],
      "stateMutability": "view",
      "type": "function"
    },
    {
      "inputs": [],
      "name": "getTotalRounds",
      "outputs": [
        {
          "internalType": "uint256",
          "name": "",
          "type": "uint256"
        }
      ],
      "stateMutability": "view",
      "type": "function"
    },
    {
      "inputs": [
        {
          "internalType": "uint256",
          "name": "roundNumber",
          "type": "uint256"
        },
        {
          "internalType": "uint256",
          "name": "answerIndex",
          "type": "uint256"
        }
      ],
      "name": "getTotalTicketsPerAnswer",
      "outputs": [
        {
          "internalType": "uint256",
          "name": "",
          "type": "uint256"
        }
      ],
      "stateMutability": "view",
      "type": "function"
    },
    {
      "inputs": [],
      "name": "isPaused",
      "outputs": [
        {
          "internalType": "bool",
          "name": "",
          "type": "bool"
        }
      ],
      "stateMutability": "view",
      "type": "function"
    },
    {
      "inputs": [],
      "name": "owner",
      "outputs": [
        {
          "internalType": "address",
          "name": "",
          "type": "address"
        }
      ],
      "stateMutability": "view",
      "type": "function"
    },
    {
      "inputs": [],
      "name": "pauseRound",
      "outputs": [],
      "stateMutability": "nonpayable",
      "type": "function"
    },
    {
      "inputs": [],
      "name": "prizePercentage",
      "outputs": [
        {
          "internalType": "uint256",
          "name": "",
          "type": "uint256"
        }
      ],
      "stateMutability": "view",
      "type": "function"
    },
    {
      "inputs": [],
      "name": "renounceOwnership",
      "outputs": [],
      "stateMutability": "nonpayable",
      "type": "function"
    },
    {
      "inputs": [],
      "name": "resumeRound",
      "outputs": [],
      "stateMutability": "nonpayable",
      "type": "function"
    },
    {
      "inputs": [],
      "name": "round",
      "outputs": [
        {
          "internalType": "uint256",
          "name": "",
          "type": "uint256"
        }
      ],
      "stateMutability": "view",
      "type": "function"
    },
    {
      "inputs": [
        {
          "internalType": "string",
          "name": "_text",
          "type": "string"
        },
        {
          "internalType": "string[]",
          "name": "_options",
          "type": "string[]"
        },
        {
          "internalType": "bytes32",
          "name": "_correctAnswerHash",
          "type": "bytes32"
        }
      ],
      "name": "setQuestion",
      "outputs": [],
      "stateMutability": "nonpayable",
      "type": "function"
    },
    {
      "inputs": [
        {
          "internalType": "uint256",
          "name": "_ticketPrice",
          "type": "uint256"
        }
      ],
      "name": "setTicketPrice",
      "outputs": [],
      "stateMutability": "nonpayable",
      "type": "function"
    },
    {
      "inputs": [],
      "name": "ticketPrice",
      "outputs": [
        {
          "internalType": "uint256",
          "name": "",
          "type": "uint256"
        }
      ],
      "stateMutability": "view",
      "type": "function"
    },
    {
      "inputs": [],
      "name": "ticketToken",
      "outputs": [
        {
          "internalType": "contract IERC20",
          "name": "",
          "type": "address"
        }
      ],
      "stateMutability": "view",
      "type": "function"
    },
    {
      "inputs": [
        {
          "internalType": "address",
          "name": "",
          "type": "address"
        },
        {
          "internalType": "uint256",
          "name": "",
          "type": "uint256"
        },
        {
          "internalType": "uint256",
          "name": "",
          "type": "uint256"
        }
      ],
      "name": "tickets",
      "outputs": [
        {
          "internalType": "uint256",
          "name": "",
          "type": "uint256"
        }
      ],
      "stateMutability": "view",
      "type": "function"
    },
    {
      "inputs": [
        {
          "internalType": "uint256",
          "name": "",
          "type": "uint256"
        },
        {
          "internalType": "uint256",
          "name": "",
          "type": "uint256"
        }
      ],
      "name": "totalTicketsPerAnswer",
      "outputs": [
        {
          "internalType": "uint256",
          "name": "",
          "type": "uint256"
        }
      ],
      "stateMutability": "view",
      "type": "function"
    },
    {
      "inputs": [
        {
          "internalType": "address",
          "name": "newOwner",
          "type": "address"
        }
      ],
      "name": "transferOwnership",
      "outputs": [],
      "stateMutability": "nonpayable",
      "type": "function"
    },
    {
      "inputs": [
        {
          "internalType": "address",
          "name": "newTokenAddress",
          "type": "address"
        }
      ],
      "name": "updateFTTInfo",
      "outputs": [],
      "stateMutability": "nonpayable",
      "type": "function"
    },
    {
      "inputs": [
        {
          "internalType": "address",
          "name": "newTicketToken",
          "type": "address"
        }
      ],
      "name": "updateTicketToken",
      "outputs": [],
      "stateMutability": "nonpayable",
      "type": "function"
    },
    {
      "inputs": [
        {
          "internalType": "address",
          "name": "tokenAddress",
          "type": "address"
        },
        {
          "internalType": "address payable",
          "name": "recipient",
          "type": "address"
        },
        {
          "internalType": "uint256",
          "name": "amount",
          "type": "uint256"
        }
      ],
      "name": "withdraw",
      "outputs": [],
      "stateMutability": "nonpayable",
      "type": "function"
    }
  ],
  "bytecode": "0x608060405269021e19e0c9bab240000060045560006005556000600b60006101000a81548160ff02191690831515021790555034801561003e57600080fd5b5060405161434b38038061434b833981810160405281019061006091906102ad565b33600073ffffffffffffffffffffffffffffffffffffffff168173ffffffffffffffffffffffffffffffffffffffff16036100d35760006040517f1e4fbdf70000000000000000000000000000000000000000000000000000000081526004016100ca91906102fc565b60405180910390fd5b6100e28161018660201b60201c565b5081600b60016101000a81548173ffffffffffffffffffffffffffffffffffffffff021916908373ffffffffffffffffffffffffffffffffffffffff16021790555080600c60006101000a81548173ffffffffffffffffffffffffffffffffffffffff021916908373ffffffffffffffffffffffffffffffffffffffff16021790555061038460068190555060646007819055506123286008819055505050610317565b60008060009054906101000a900473ffffffffffffffffffffffffffffffffffffffff169050816000806101000a81548173ffffffffffffffffffffffffffffffffffffffff021916908373ffffffffffffffffffffffffffffffffffffffff1602179055508173ffffffffffffffffffffffffffffffffffffffff168173ffffffffffffffffffffffffffffffffffffffff167f8be0079c531659141344cd1fd0a4f28419497f9722a3daafe3b4186f6b6457e060405160405180910390a35050565b600080fd5b600073ffffffffffffffffffffffffffffffffffffffff82169050919050565b600061027a8261024f565b9050919050565b61028a8161026f565b811461029557600080fd5b50565b6000815190506102a781610281565b92915050565b600080604083850312156102c4576102c361024a565b5b60006102d285828601610298565b92505060206102e385828601610298565b9150509250929050565b6102f68161026f565b82525050565b600060208201905061031160008301846102ed565b92915050565b614025806103266000396000f3fe608060405234801561001057600080fd5b50600436106101f05760003560e01c80638da5cb5b1161010f578063c10401a2116100a2578063ec30a46911610071578063ec30a46914610587578063ee603135146105a3578063f01f20df146105c1578063f2fde38b146105df576101f0565b8063c10401a214610524578063d5ed4d5a1461052e578063d9caed121461054c578063e7dea02214610568576101f0565b8063a32bf597116100de578063a32bf59714610488578063a5763c82146104a6578063b187bd26146104d6578063c0d10265146104f4576101f0565b80638da5cb5b14610400578063905d46361461041e57806392c9031a1461043a578063a001ecdd1461046a576101f0565b806337305df51161018757806370f478251161015657806370f478251461037a578063715018a6146103aa5780637393d9b5146103b45780638627df46146103e4576101f0565b806337305df5146102f3578063637a6a31146103245780636cb6cfb3146103425780636ed7f4041461035e576101f0565b806315981650116101c357806315981650146102595780631a3d3ff3146102755780631ad1ec22146102a55780632115f4d1146102c3576101f0565b806311dc7335146101f55780631209b1f614610213578063146ca53114610231578063156f58af1461024f575b600080fd5b6101fd6105fb565b60405161020a91906125a0565b60405180910390f35b61021b610601565b60405161022891906125a0565b60405180910390f35b610239610607565b60405161024691906125a0565b60405180910390f35b61025761060d565b005b610273600480360381019061026e91906125fb565b61065e565b005b61028f600480360381019061028a91906125fb565b610670565b60405161029c9190612718565b60405180910390f35b6102ad610711565b6040516102ba91906125a0565b60405180910390f35b6102dd60048036038101906102d89190612766565b61071b565b6040516102ea91906125a0565b60405180910390f35b61030d600480360381019061030891906125fb565b610759565b60405161031b929190612939565b60405180910390f35b61032c610942565b60405161033991906125a0565b60405180910390f35b61035c60048036038101906103579190612ab6565b610951565b005b61037860048036038101906103739190612b4d565b611047565b005b610394600480360381019061038f9190612b7a565b6110ca565b6040516103a191906125a0565b60405180910390f35b6103b26110fb565b005b6103ce60048036038101906103c99190612bba565b61110f565b6040516103db91906125a0565b60405180910390f35b6103fe60048036038101906103f99190612b7a565b6111fa565b005b61040861199b565b6040516104159190612c09565b60405180910390f35b61043860048036038101906104339190612b4d565b6119c4565b005b610454600480360381019061044f9190612b4d565b611a47565b6040516104619190612c93565b60405180910390f35b610472611af1565b60405161047f91906125a0565b60405180910390f35b610490611af7565b60405161049d91906125a0565b60405180910390f35b6104c060048036038101906104bb9190612b7a565b611b01565b6040516104cd91906125a0565b60405180910390f35b6104de611b3b565b6040516104eb9190612cd0565b60405180910390f35b61050e60048036038101906105099190612b7a565b611b4e565b60405161051b9190612c09565b60405180910390f35b61052c611b9c565b005b610536611bed565b6040516105439190612d4a565b60405180910390f35b61056660048036038101906105619190612da3565b611c13565b005b610570611ec9565b60405161057e929190612e75565b60405180910390f35b6105a1600480360381019061059c9190612fc1565b611f70565b005b6105ab612219565b6040516105b89190612d4a565b60405180910390f35b6105c961223f565b6040516105d691906125a0565b60405180910390f35b6105f960048036038101906105f49190612b4d565b612245565b005b60085481565b60045481565b60055481565b6106156122cb565b6001600b60006101000a81548160ff0219169083151502179055507f7f7c10f994bb0e711623b04af12db1d10f5412a0ffacbcc59fa493c9cbb2236d60405160405180910390a1565b6106666122cb565b8060048190555050565b6060600f600083815260200190815260200160002080548060200260200160405190810160405280929190818152602001828054801561070557602002820191906000526020600020905b8160009054906101000a900473ffffffffffffffffffffffffffffffffffffffff1673ffffffffffffffffffffffffffffffffffffffff16815260200190600101908083116106bb575b50505050509050919050565b6000600554905090565b600d602052826000526040600020602052816000526040600020818154811061074357600080fd5b9060005260206000200160009250925050505481565b606080600f60008481526020019081526020016000208054806020026020016040519081016040528092919081815260200182805480156107ef57602002820191906000526020600020905b8160009054906101000a900473ffffffffffffffffffffffffffffffffffffffff1673ffffffffffffffffffffffffffffffffffffffff16815260200190600101908083116107a5575b505050505091506000825190508067ffffffffffffffff8111156108165761081561298b565b5b60405190808252806020026020018201604052801561084957816020015b60608152602001906001900390816108345790505b50915060005b8181101561093b57600d600085838151811061086e5761086d61304c565b5b602002602001015173ffffffffffffffffffffffffffffffffffffffff1673ffffffffffffffffffffffffffffffffffffffff168152602001908152602001600020600086815260200190815260200160002080548060200260200160405190810160405280929190818152602001828054801561090b57602002820191906000526020600020905b8154815260200190600101908083116108f7575b50505050508382815181106109235761092261304c565b5b6020026020010181905250808060010191505061084f565b5050915091565b60006001800180549050905090565b6109596122cb565b84848461271081838561096c91906130aa565b61097691906130aa565b11156109b7576040517f08c379a00000000000000000000000000000000000000000000000000000000081526004016109ae90613150565b60405180910390fd5b600160020160009054906101000a900460ff16610a09576040517f08c379a0000000000000000000000000000000000000000000000000000000008152600401610a00906131e2565b60405180910390fd5b60095484604051602001610a1d919061323e565b6040516020818303038152906040528051906020012014610a73576040517f08c379a0000000000000000000000000000000000000000000000000000000008152600401610a6a906132a1565b60405180910390fd5b87600681905550866007819055508560088190555084600a819055506000600c60009054906101000a900473ffffffffffffffffffffffffffffffffffffffff1673ffffffffffffffffffffffffffffffffffffffff166370a08231306040518263ffffffff1660e01b8152600401610aec9190612c09565b602060405180830381865afa158015610b09573d6000803e3d6000fd5b505050506040513d601f19601f82011682018060405250810190610b2d91906132d6565b9050600061271060065483610b429190613303565b610b4c9190613374565b9050600061271060075484610b619190613303565b610b6b9190613374565b9050600061271060085485610b809190613303565b610b8a9190613374565b9050600c60009054906101000a900473ffffffffffffffffffffffffffffffffffffffff1673ffffffffffffffffffffffffffffffffffffffff1663a9059cbb61dead856040518363ffffffff1660e01b8152600401610beb9291906133a5565b6020604051808303816000875af1158015610c0a573d6000803e3d6000fd5b505050506040513d601f19601f82011682018060405250810190610c2e91906133fa565b610c6d576040517f08c379a0000000000000000000000000000000000000000000000000000000008152600401610c6490613473565b60405180910390fd5b600c60009054906101000a900473ffffffffffffffffffffffffffffffffffffffff1673ffffffffffffffffffffffffffffffffffffffff1663a9059cbb610cb361199b565b846040518363ffffffff1660e01b8152600401610cd19291906133a5565b6020604051808303816000875af1158015610cf0573d6000803e3d6000fd5b505050506040513d601f19601f82011682018060405250810190610d1491906133fa565b610d53576040517f08c379a0000000000000000000000000000000000000000000000000000000008152600401610d4a906134df565b60405180910390fd5b6000600e60006005548152602001908152602001600020600a5481548110610d7e57610d7d61304c565b5b9060005260206000200154905060005b600f6000600554815260200190815260200160002080549050811015610f8d576000600f600060055481526020019081526020016000208281548110610dd757610dd661304c565b5b9060005260206000200160009054906101000a900473ffffffffffffffffffffffffffffffffffffffff1690506000600d60008373ffffffffffffffffffffffffffffffffffffffff1673ffffffffffffffffffffffffffffffffffffffff16815260200190815260200160002060006005548152602001908152602001600020600a5481548110610e6c57610e6b61304c565b5b906000526020600020015490506000811115610f7e576000848287610e919190613303565b610e9b9190613374565b9050600c60009054906101000a900473ffffffffffffffffffffffffffffffffffffffff1673ffffffffffffffffffffffffffffffffffffffff1663a9059cbb84836040518363ffffffff1660e01b8152600401610efa9291906133a5565b6020604051808303816000875af1158015610f19573d6000803e3d6000fd5b505050506040513d601f19601f82011682018060405250810190610f3d91906133fa565b610f7c576040517f08c379a0000000000000000000000000000000000000000000000000000000008152600401610f739061354b565b60405180910390fd5b505b50508080600101915050610d8e565b507fdaf6233a382145376035341e71f8a04305f7e323d0fe3e58c908cf0a26b76df9848484604051610fc19392919061356b565b60405180910390a17faa97d4a7b3afec5f55c25ca8593dde6929d4455fad650a16fa4334004293a618600a54604051610ffa91906125a0565b60405180910390a16000600160020160006101000a81548160ff02191690831515021790555060056000815480929190611033906135a2565b919050555050505050505050505050505050565b61104f6122cb565b80600b60016101000a81548173ffffffffffffffffffffffffffffffffffffffff021916908373ffffffffffffffffffffffffffffffffffffffff1602179055507fd2c01c9801a2368be4921f39aa972f7c4f6120e7c690c548e560fb70a76d7805816040516110bf9190612c09565b60405180910390a150565b600e60205281600052604060002081815481106110e657600080fd5b90600052602060002001600091509150505481565b6111036122cb565b61110d6000612352565b565b600080600d60008573ffffffffffffffffffffffffffffffffffffffff1673ffffffffffffffffffffffffffffffffffffffff168152602001908152602001600020600060055481526020019081526020016000208054806020026020016040519081016040528092919081815260200182805480156111ae57602002820191906000526020600020905b81548152602001906001019080831161119a575b505050505090506000815114806111c6575080518310155b156111d55760009150506111f4565b8083815181106111e8576111e761304c565b5b60200260200101519150505b92915050565b600160020160009054906101000a900460ff1661124c576040517f08c379a00000000000000000000000000000000000000000000000000000000081526004016112439061365c565b60405180910390fd5b600b60009054906101000a900460ff161561129c576040517f08c379a0000000000000000000000000000000000000000000000000000000008152600401611293906136c8565b60405180910390fd5b600180018054905082106112e5576040517f08c379a00000000000000000000000000000000000000000000000000000000081526004016112dc90613734565b60405180910390fd5b60008111611328576040517f08c379a000000000000000000000000000000000000000000000000000000000815260040161131f906137a0565b60405180910390fd5b6000670de0b6b3a76400009050600081836113439190613303565b90506000600b60019054906101000a900473ffffffffffffffffffffffffffffffffffffffff1673ffffffffffffffffffffffffffffffffffffffff166370a08231336040518263ffffffff1660e01b81526004016113a29190612c09565b602060405180830381865afa1580156113bf573d6000803e3d6000fd5b505050506040513d601f19601f820116820180604052508101906113e391906132d6565b9050600083826113f39190613374565b90506000808690506000831115611516578683106114175784915060009050611434565b85836114239190613303565b9150828761143191906137c0565b90505b600b60019054906101000a900473ffffffffffffffffffffffffffffffffffffffff1673ffffffffffffffffffffffffffffffffffffffff166323b872dd3330856040518463ffffffff1660e01b8152600401611493939291906137f4565b6020604051808303816000875af11580156114b2573d6000803e3d6000fd5b505050506040513d601f19601f820116820180604052508101906114d691906133fa565b611515576040517f08c379a000000000000000000000000000000000000000000000000000000000815260040161150c90613877565b60405180910390fd5b5b60008111156116145760008160045461152f9190613303565b9050600c60009054906101000a900473ffffffffffffffffffffffffffffffffffffffff1673ffffffffffffffffffffffffffffffffffffffff166323b872dd3330846040518463ffffffff1660e01b8152600401611590939291906137f4565b6020604051808303816000875af11580156115af573d6000803e3d6000fd5b505050506040513d601f19601f820116820180604052508101906115d391906133fa565b611612576040517f08c379a0000000000000000000000000000000000000000000000000000000008152600401611609906138e3565b60405180910390fd5b505b6000600d60003373ffffffffffffffffffffffffffffffffffffffff1673ffffffffffffffffffffffffffffffffffffffff168152602001908152602001600020600060055481526020019081526020016000209050600081805490500361172d57600180018054905067ffffffffffffffff8111156116975761169661298b565b5b6040519080825280602002602001820160405280156116c55781602001602082028036833780820191505090505b50600d60003373ffffffffffffffffffffffffffffffffffffffff1673ffffffffffffffffffffffffffffffffffffffff16815260200190815260200160002060006005548152602001908152602001600020908051906020019061172b92919061241e565b505b87600d60003373ffffffffffffffffffffffffffffffffffffffff1673ffffffffffffffffffffffffffffffffffffffff168152602001908152602001600020600060055481526020019081526020016000208a815481106117925761179161304c565b5b9060005260206000200160008282546117ab91906130aa565b9250508190555087600e600060055481526020019081526020016000208a815481106117da576117d961304c565b5b9060005260206000200160008282546117f391906130aa565b92505081905550601060003373ffffffffffffffffffffffffffffffffffffffff1673ffffffffffffffffffffffffffffffffffffffff1681526020019081526020016000206000600554815260200190815260200160002060009054906101000a900460ff16611940576001601060003373ffffffffffffffffffffffffffffffffffffffff1673ffffffffffffffffffffffffffffffffffffffff1681526020019081526020016000206000600554815260200190815260200160002060006101000a81548160ff021916908315150217905550600f60006005548152602001908152602001600020339080600181540180825580915050600190039060005260206000200160009091909190916101000a81548173ffffffffffffffffffffffffffffffffffffffff021916908373ffffffffffffffffffffffffffffffffffffffff1602179055505b3373ffffffffffffffffffffffffffffffffffffffff167f2a91574e12ad96234e84923e146b0946ecfb871cd8d5534dc1fdcbe87a7c01b38a8a604051611988929190613903565b60405180910390a2505050505050505050565b60008060009054906101000a900473ffffffffffffffffffffffffffffffffffffffff16905090565b6119cc6122cb565b80600c60006101000a81548173ffffffffffffffffffffffffffffffffffffffff021916908373ffffffffffffffffffffffffffffffffffffffff1602179055507ff2f613d6296eb6d58404b70748bc4d6b5c09f49b5ca94f6b6048e9d06a266fe881604051611a3c9190612c09565b60405180910390a150565b6060600d60008373ffffffffffffffffffffffffffffffffffffffff1673ffffffffffffffffffffffffffffffffffffffff16815260200190815260200160002060006005548152602001908152602001600020805480602002602001604051908101604052809291908181526020018280548015611ae557602002820191906000526020600020905b815481526020019060010190808311611ad1575b50505050509050919050565b60075481565b6000600554905090565b6000600e60008481526020019081526020016000208281548110611b2857611b2761304c565b5b9060005260206000200154905092915050565b600b60009054906101000a900460ff1681565b600f6020528160005260406000208181548110611b6a57600080fd5b906000526020600020016000915091509054906101000a900473ffffffffffffffffffffffffffffffffffffffff1681565b611ba46122cb565b6000600b60006101000a81548160ff0219169083151502179055507fea6117dad2620a0ca2c1af74b4c6996ccff70e5006afaa8ce2accb12d75db20260405160405180910390a1565b600c60009054906101000a900473ffffffffffffffffffffffffffffffffffffffff1681565b611c1b6122cb565b600073ffffffffffffffffffffffffffffffffffffffff168373ffffffffffffffffffffffffffffffffffffffff1603611d445780471015611c92576040517f08c379a0000000000000000000000000000000000000000000000000000000008152600401611c8990613978565b60405180910390fd5b60008273ffffffffffffffffffffffffffffffffffffffff1682604051611cb8906139c9565b60006040518083038185875af1925050503d8060008114611cf5576040519150601f19603f3d011682016040523d82523d6000602084013e611cfa565b606091505b5050905080611d3e576040517f08c379a0000000000000000000000000000000000000000000000000000000008152600401611d3590613a2a565b60405180910390fd5b50611ec4565b6000839050818173ffffffffffffffffffffffffffffffffffffffff166370a08231306040518263ffffffff1660e01b8152600401611d839190612c09565b602060405180830381865afa158015611da0573d6000803e3d6000fd5b505050506040513d601f19601f82011682018060405250810190611dc491906132d6565b1015611e05576040517f08c379a0000000000000000000000000000000000000000000000000000000008152600401611dfc90613a96565b60405180910390fd5b8073ffffffffffffffffffffffffffffffffffffffff1663a9059cbb84846040518363ffffffff1660e01b8152600401611e40929190613ad7565b6020604051808303816000875af1158015611e5f573d6000803e3d6000fd5b505050506040513d601f19601f82011682018060405250810190611e8391906133fa565b611ec2576040517f08c379a0000000000000000000000000000000000000000000000000000000008152600401611eb990613b4c565b60405180910390fd5b505b505050565b6001806000018054611eda90613b9b565b80601f0160208091040260200160405190810160405280929190818152602001828054611f0690613b9b565b8015611f535780601f10611f2857610100808354040283529160200191611f53565b820191906000526020600020905b815481529060010190602001808311611f3657829003601f168201915b5050505050908060020160009054906101000a900460ff16905082565b611f786122cb565b6001825111611fbc576040517f08c379a0000000000000000000000000000000000000000000000000000000008152600401611fb390613c18565b60405180910390fd5b60405180606001604052808481526020018381526020016001151581525060016000820151816000019081611ff19190613dda565b50602082015181600101908051906020019061200e92919061246b565b5060408201518160020160006101000a81548160ff02191690831515021790555090505080600981905550600e60006005548152602001908152602001600020600061205a91906124c4565b815167ffffffffffffffff8111156120755761207461298b565b5b6040519080825280602002602001820160405280156120a35781602001602082028036833780820191505090505b50600e6000600554815260200190815260200160002090805190602001906120cc92919061241e565b5060005b600f60006005548152602001908152602001600020805490508110156121b957600060106000600f60006005548152602001908152602001600020848154811061211d5761211c61304c565b5b9060005260206000200160009054906101000a900473ffffffffffffffffffffffffffffffffffffffff1673ffffffffffffffffffffffffffffffffffffffff1673ffffffffffffffffffffffffffffffffffffffff1681526020019081526020016000206000600554815260200190815260200160002060006101000a81548160ff02191690831515021790555080806001019150506120d0565b50600f6000600554815260200190815260200160002060006121db91906124e5565b7f4036cc6724224308f836b7bb5ccafed36cc517aafc64ff68f6d498882ab45efc838360405161220c929190613fb8565b60405180910390a1505050565b600b60019054906101000a900473ffffffffffffffffffffffffffffffffffffffff1681565b60065481565b61224d6122cb565b600073ffffffffffffffffffffffffffffffffffffffff168173ffffffffffffffffffffffffffffffffffffffff16036122bf5760006040517f1e4fbdf70000000000000000000000000000000000000000000000000000000081526004016122b69190612c09565b60405180910390fd5b6122c881612352565b50565b6122d3612416565b73ffffffffffffffffffffffffffffffffffffffff166122f161199b565b73ffffffffffffffffffffffffffffffffffffffff161461235057612314612416565b6040517f118cdaa70000000000000000000000000000000000000000000000000000000081526004016123479190612c09565b60405180910390fd5b565b60008060009054906101000a900473ffffffffffffffffffffffffffffffffffffffff169050816000806101000a81548173ffffffffffffffffffffffffffffffffffffffff021916908373ffffffffffffffffffffffffffffffffffffffff1602179055508173ffffffffffffffffffffffffffffffffffffffff168173ffffffffffffffffffffffffffffffffffffffff167f8be0079c531659141344cd1fd0a4f28419497f9722a3daafe3b4186f6b6457e060405160405180910390a35050565b600033905090565b82805482825590600052602060002090810192821561245a579160200282015b8281111561245957825182559160200191906001019061243e565b5b5090506124679190612506565b5090565b8280548282559060005260206000209081019282156124b3579160200282015b828111156124b25782518290816124a29190613dda565b509160200191906001019061248b565b5b5090506124c09190612523565b5090565b50805460008255906000526020600020908101906124e29190612506565b50565b50805460008255906000526020600020908101906125039190612506565b50565b5b8082111561251f576000816000905550600101612507565b5090565b5b80821115612543576000818161253a9190612547565b50600101612524565b5090565b50805461255390613b9b565b6000825580601f106125655750612584565b601f0160209004906000526020600020908101906125839190612506565b5b50565b6000819050919050565b61259a81612587565b82525050565b60006020820190506125b56000830184612591565b92915050565b6000604051905090565b600080fd5b600080fd5b6125d881612587565b81146125e357600080fd5b50565b6000813590506125f5816125cf565b92915050565b600060208284031215612611576126106125c5565b5b600061261f848285016125e6565b91505092915050565b600081519050919050565b600082825260208201905092915050565b6000819050602082019050919050565b600073ffffffffffffffffffffffffffffffffffffffff82169050919050565b600061267f82612654565b9050919050565b61268f81612674565b82525050565b60006126a18383612686565b60208301905092915050565b6000602082019050919050565b60006126c582612628565b6126cf8185612633565b93506126da83612644565b8060005b8381101561270b5781516126f28882612695565b97506126fd836126ad565b9250506001810190506126de565b5085935050505092915050565b6000602082019050818103600083015261273281846126ba565b905092915050565b61274381612674565b811461274e57600080fd5b50565b6000813590506127608161273a565b92915050565b60008060006060848603121561277f5761277e6125c5565b5b600061278d86828701612751565b935050602061279e868287016125e6565b92505060406127af868287016125e6565b9150509250925092565b600081519050919050565b600082825260208201905092915050565b6000819050602082019050919050565b600081519050919050565b600082825260208201905092915050565b6000819050602082019050919050565b61281a81612587565b82525050565b600061282c8383612811565b60208301905092915050565b6000602082019050919050565b6000612850826127e5565b61285a81856127f0565b935061286583612801565b8060005b8381101561289657815161287d8882612820565b975061288883612838565b925050600181019050612869565b5085935050505092915050565b60006128af8383612845565b905092915050565b6000602082019050919050565b60006128cf826127b9565b6128d981856127c4565b9350836020820285016128eb856127d5565b8060005b85811015612927578484038952815161290885826128a3565b9450612913836128b7565b925060208a019950506001810190506128ef565b50829750879550505050505092915050565b6000604082019050818103600083015261295381856126ba565b9050818103602083015261296781846128c4565b90509392505050565b600080fd5b600080fd5b6000601f19601f8301169050919050565b7f4e487b7100000000000000000000000000000000000000000000000000000000600052604160045260246000fd5b6129c38261297a565b810181811067ffffffffffffffff821117156129e2576129e161298b565b5b80604052505050565b60006129f56125bb565b9050612a0182826129ba565b919050565b600067ffffffffffffffff821115612a2157612a2061298b565b5b612a2a8261297a565b9050602081019050919050565b82818337600083830152505050565b6000612a59612a5484612a06565b6129eb565b905082815260208101848484011115612a7557612a74612975565b5b612a80848285612a37565b509392505050565b600082601f830112612a9d57612a9c612970565b5b8135612aad848260208601612a46565b91505092915050565b600080600080600060a08688031215612ad257612ad16125c5565b5b6000612ae0888289016125e6565b9550506020612af1888289016125e6565b9450506040612b02888289016125e6565b9350506060612b13888289016125e6565b925050608086013567ffffffffffffffff811115612b3457612b336125ca565b5b612b4088828901612a88565b9150509295509295909350565b600060208284031215612b6357612b626125c5565b5b6000612b7184828501612751565b91505092915050565b60008060408385031215612b9157612b906125c5565b5b6000612b9f858286016125e6565b9250506020612bb0858286016125e6565b9150509250929050565b60008060408385031215612bd157612bd06125c5565b5b6000612bdf85828601612751565b9250506020612bf0858286016125e6565b9150509250929050565b612c0381612674565b82525050565b6000602082019050612c1e6000830184612bfa565b92915050565b600082825260208201905092915050565b6000612c40826127e5565b612c4a8185612c24565b9350612c5583612801565b8060005b83811015612c86578151612c6d8882612820565b9750612c7883612838565b925050600181019050612c59565b5085935050505092915050565b60006020820190508181036000830152612cad8184612c35565b905092915050565b60008115159050919050565b612cca81612cb5565b82525050565b6000602082019050612ce56000830184612cc1565b92915050565b6000819050919050565b6000612d10612d0b612d0684612654565b612ceb565b612654565b9050919050565b6000612d2282612cf5565b9050919050565b6000612d3482612d17565b9050919050565b612d4481612d29565b82525050565b6000602082019050612d5f6000830184612d3b565b92915050565b6000612d7082612654565b9050919050565b612d8081612d65565b8114612d8b57600080fd5b50565b600081359050612d9d81612d77565b92915050565b600080600060608486031215612dbc57612dbb6125c5565b5b6000612dca86828701612751565b9350506020612ddb86828701612d8e565b9250506040612dec868287016125e6565b9150509250925092565b600081519050919050565b600082825260208201905092915050565b60005b83811015612e30578082015181840152602081019050612e15565b60008484015250505050565b6000612e4782612df6565b612e518185612e01565b9350612e61818560208601612e12565b612e6a8161297a565b840191505092915050565b60006040820190508181036000830152612e8f8185612e3c565b9050612e9e6020830184612cc1565b9392505050565b600067ffffffffffffffff821115612ec057612ebf61298b565b5b602082029050602081019050919050565b600080fd5b6000612ee9612ee484612ea5565b6129eb565b90508083825260208201905060208402830185811115612f0c57612f0b612ed1565b5b835b81811015612f5357803567ffffffffffffffff811115612f3157612f30612970565b5b808601612f3e8982612a88565b85526020850194505050602081019050612f0e565b5050509392505050565b600082601f830112612f7257612f71612970565b5b8135612f82848260208601612ed6565b91505092915050565b6000819050919050565b612f9e81612f8b565b8114612fa957600080fd5b50565b600081359050612fbb81612f95565b92915050565b600080600060608486031215612fda57612fd96125c5565b5b600084013567ffffffffffffffff811115612ff857612ff76125ca565b5b61300486828701612a88565b935050602084013567ffffffffffffffff811115613025576130246125ca565b5b61303186828701612f5d565b925050604061304286828701612fac565b9150509250925092565b7f4e487b7100000000000000000000000000000000000000000000000000000000600052603260045260246000fd5b7f4e487b7100000000000000000000000000000000000000000000000000000000600052601160045260246000fd5b60006130b582612587565b91506130c083612587565b92508282019050808211156130d8576130d761307b565b5b92915050565b7f50657263656e7461676573206d757374206e6f7420657863656564203130302560008201527f2e00000000000000000000000000000000000000000000000000000000000000602082015250565b600061313a602183612e01565b9150613145826130de565b604082019050919050565b600060208201905081810360008301526131698161312d565b9050919050565b7f4e6f207175657374696f6e2073657420746f20656e642074686520726f756e6460008201527f2e00000000000000000000000000000000000000000000000000000000000000602082015250565b60006131cc602183612e01565b91506131d782613170565b604082019050919050565b600060208201905081810360008301526131fb816131bf565b9050919050565b600081905092915050565b600061321882612df6565b6132228185613202565b9350613232818560208601612e12565b80840191505092915050565b600061324a828461320d565b915081905092915050565b7f496e636f727265637420616e737765722072657665616c65642e000000000000600082015250565b600061328b601a83612e01565b915061329682613255565b602082019050919050565b600060208201905081810360008301526132ba8161327e565b9050919050565b6000815190506132d0816125cf565b92915050565b6000602082840312156132ec576132eb6125c5565b5b60006132fa848285016132c1565b91505092915050565b600061330e82612587565b915061331983612587565b925082820261332781612587565b9150828204841483151761333e5761333d61307b565b5b5092915050565b7f4e487b7100000000000000000000000000000000000000000000000000000000600052601260045260246000fd5b600061337f82612587565b915061338a83612587565b92508261339a57613399613345565b5b828204905092915050565b60006040820190506133ba6000830185612bfa565b6133c76020830184612591565b9392505050565b6133d781612cb5565b81146133e257600080fd5b50565b6000815190506133f4816133ce565b92915050565b6000602082840312156134105761340f6125c5565b5b600061341e848285016133e5565b91505092915050565b7f546f6b656e206275726e206661696c6564000000000000000000000000000000600082015250565b600061345d601183612e01565b915061346882613427565b602082019050919050565b6000602082019050818103600083015261348c81613450565b9050919050565b7f546f6b656e20666565207472616e73666572206661696c656400000000000000600082015250565b60006134c9601983612e01565b91506134d482613493565b602082019050919050565b600060208201905081810360008301526134f8816134bc565b9050919050565b7f546f6b656e207072697a65207472616e73666572206661696c65640000000000600082015250565b6000613535601b83612e01565b9150613540826134ff565b602082019050919050565b6000602082019050818103600083015261356481613528565b9050919050565b60006060820190506135806000830186612591565b61358d6020830185612591565b61359a6040830184612591565b949350505050565b60006135ad82612587565b91507fffffffffffffffffffffffffffffffffffffffffffffffffffffffffffffffff82036135df576135de61307b565b5b600182019050919050565b7f41207175657374696f6e206d75737420626520736574206265666f726520627560008201527f79696e67207469636b6574732e00000000000000000000000000000000000000602082015250565b6000613646602d83612e01565b9150613651826135ea565b604082019050919050565b6000602082019050818103600083015261367581613639565b9050919050565b7f526f756e64206973207061757365640000000000000000000000000000000000600082015250565b60006136b2600f83612e01565b91506136bd8261367c565b602082019050919050565b600060208201905081810360008301526136e1816136a5565b9050919050565b7f496e76616c696420616e7377657220696e6465782e0000000000000000000000600082015250565b600061371e601583612e01565b9150613729826136e8565b602082019050919050565b6000602082019050818103600083015261374d81613711565b9050919050565b7f4d75737420627579206174206c65617374206f6e65207469636b65742e000000600082015250565b600061378a601d83612e01565b915061379582613754565b602082019050919050565b600060208201905081810360008301526137b98161377d565b9050919050565b60006137cb82612587565b91506137d683612587565b92508282039050818111156137ee576137ed61307b565b5b92915050565b60006060820190506138096000830186612bfa565b6138166020830185612bfa565b6138236040830184612591565b949350505050565b7f4672656520746f6b656e207472616e73666572206661696c6564000000000000600082015250565b6000613861601a83612e01565b915061386c8261382b565b602082019050919050565b6000602082019050818103600083015261389081613854565b9050919050565b7f5469636b657420746f6b656e207472616e73666572206661696c656400000000600082015250565b60006138cd601c83612e01565b91506138d882613897565b602082019050919050565b600060208201905081810360008301526138fc816138c0565b9050919050565b60006040820190506139186000830185612591565b6139256020830184612591565b9392505050565b7f496e73756666696369656e74204554482062616c616e63650000000000000000600082015250565b6000613962601883612e01565b915061396d8261392c565b602082019050919050565b6000602082019050818103600083015261399181613955565b9050919050565b600081905092915050565b50565b60006139b3600083613998565b91506139be826139a3565b600082019050919050565b60006139d4826139a6565b9150819050919050565b7f4661696c656420746f2073656e64204554480000000000000000000000000000600082015250565b6000613a14601283612e01565b9150613a1f826139de565b602082019050919050565b60006020820190508181036000830152613a4381613a07565b9050919050565b7f496e73756666696369656e7420746f6b656e2062616c616e6365000000000000600082015250565b6000613a80601a83612e01565b9150613a8b82613a4a565b602082019050919050565b60006020820190508181036000830152613aaf81613a73565b9050919050565b6000613ac182612d17565b9050919050565b613ad181613ab6565b82525050565b6000604082019050613aec6000830185613ac8565b613af96020830184612591565b9392505050565b7f546f6b656e207472616e73666572206661696c65640000000000000000000000600082015250565b6000613b36601583612e01565b9150613b4182613b00565b602082019050919050565b60006020820190508181036000830152613b6581613b29565b9050919050565b7f4e487b7100000000000000000000000000000000000000000000000000000000600052602260045260246000fd5b60006002820490506001821680613bb357607f821691505b602082108103613bc657613bc5613b6c565b5b50919050565b7f4d7573742068617665206174206c656173742074776f206f7074696f6e732e00600082015250565b6000613c02601f83612e01565b9150613c0d82613bcc565b602082019050919050565b60006020820190508181036000830152613c3181613bf5565b9050919050565b60008190508160005260206000209050919050565b60006020601f8301049050919050565b600082821b905092915050565b600060088302613c9a7fffffffffffffffffffffffffffffffffffffffffffffffffffffffffffffffff82613c5d565b613ca48683613c5d565b95508019841693508086168417925050509392505050565b6000613cd7613cd2613ccd84612587565b612ceb565b612587565b9050919050565b6000819050919050565b613cf183613cbc565b613d05613cfd82613cde565b848454613c6a565b825550505050565b600090565b613d1a613d0d565b613d25818484613ce8565b505050565b5b81811015613d4957613d3e600082613d12565b600181019050613d2b565b5050565b601f821115613d8e57613d5f81613c38565b613d6884613c4d565b81016020851015613d77578190505b613d8b613d8385613c4d565b830182613d2a565b50505b505050565b600082821c905092915050565b6000613db160001984600802613d93565b1980831691505092915050565b6000613dca8383613da0565b9150826002028217905092915050565b613de382612df6565b67ffffffffffffffff811115613dfc57613dfb61298b565b5b613e068254613b9b565b613e11828285613d4d565b600060209050601f831160018114613e445760008415613e32578287015190505b613e3c8582613dbe565b865550613ea4565b601f198416613e5286613c38565b60005b82811015613e7a57848901518255600182019150602085019450602081019050613e55565b86831015613e975784890151613e93601f891682613da0565b8355505b6001600288020188555050505b505050505050565b600081519050919050565b600082825260208201905092915050565b6000819050602082019050919050565b600082825260208201905092915050565b6000613ef482612df6565b613efe8185613ed8565b9350613f0e818560208601612e12565b613f178161297a565b840191505092915050565b6000613f2e8383613ee9565b905092915050565b6000602082019050919050565b6000613f4e82613eac565b613f588185613eb7565b935083602082028501613f6a85613ec8565b8060005b85811015613fa65784840389528151613f878582613f22565b9450613f9283613f36565b925060208a01995050600181019050613f6e565b50829750879550505050505092915050565b60006040820190508181036000830152613fd28185612e3c565b90508181036020830152613fe68184613f43565b9050939250505056fea26469706673582212206fc916799d6d9b5fc9995cd7bd88942ceea893b03ab63f5a3786bd191a6e2dd364736f6c634300081c0033",
  "linkReferences": {},
  "deployedLinkReferences": {}
}