{
  "_format": "hh-sol-artifact-1",
  "contractName": "DungeonCrawler",
  "sourceName": "contracts/dungeon_crawler.sol",
  "abi": [
    {
      "inputs": [
        {
          "internalType": "address",
          "name": "_freeTicketToken",
          "type": "address"
        }
      ],
      "stateMutability": "nonpayable",
      "type": "constructor"
    },
    {
      "inputs": [
        {
          "internalType": "address",
          "name": "owner",
          "type": "address"
        }
      ],
      "name": "OwnableInvalidOwner",
      "type": "error"
    },
    {
      "inputs": [
        {
          "internalType": "address",
          "name": "account",
          "type": "address"
        }
      ],
      "name": "OwnableUnauthorizedAccount",
      "type": "error"
    },
    {
      "anonymous": false,
      "inputs": [
        {
          "indexed": false,
          "internalType": "uint256",
          "name": "burned",
          "type": "uint256"
        },
        {
          "indexed": false,
          "internalType": "uint256",
          "name": "ownerFees",
          "type": "uint256"
        },
        {
          "indexed": false,
          "internalType": "uint256",
          "name": "prizePool",
          "type": "uint256"
        }
      ],
      "name": "FundsDistributed",
      "type": "event"
    },
    {
      "anonymous": false,
      "inputs": [
        {
          "indexed": true,
          "internalType": "address",
          "name": "previousOwner",
          "type": "address"
        },
        {
          "indexed": true,
          "internalType": "address",
          "name": "newOwner",
          "type": "address"
        }
      ],
      "name": "OwnershipTransferred",
      "type": "event"
    },
    {
      "anonymous": false,
      "inputs": [
        {
          "indexed": false,
          "internalType": "string",
          "name": "text",
          "type": "string"
        },
        {
          "indexed": false,
          "internalType": "string[]",
          "name": "options",
          "type": "string[]"
        }
      ],
      "name": "QuestionSet",
      "type": "event"
    },
    {
      "anonymous": false,
      "inputs": [
        {
          "indexed": false,
          "internalType": "uint256",
          "name": "winningOption",
          "type": "uint256"
        }
      ],
      "name": "RoundEnded",
      "type": "event"
    },
    {
      "anonymous": false,
      "inputs": [],
      "name": "RoundPaused",
      "type": "event"
    },
    {
      "anonymous": false,
      "inputs": [],
      "name": "RoundResumed",
      "type": "event"
    },
    {
      "anonymous": false,
      "inputs": [
        {
          "indexed": true,
          "internalType": "address",
          "name": "buyer",
          "type": "address"
        },
        {
          "indexed": false,
          "internalType": "uint256",
          "name": "answerIndex",
          "type": "uint256"
        },
        {
          "indexed": false,
          "internalType": "uint256",
          "name": "numTickets",
          "type": "uint256"
        }
      ],
      "name": "TicketPurchased",
      "type": "event"
    },
    {
      "inputs": [
        {
          "internalType": "uint256",
          "name": "",
          "type": "uint256"
        },
        {
          "internalType": "uint256",
          "name": "",
          "type": "uint256"
        }
      ],
      "name": "allTicketHoldersPerRound",
      "outputs": [
        {
          "internalType": "address",
          "name": "",
          "type": "address"
        }
      ],
      "stateMutability": "view",
      "type": "function"
    },
    {
      "inputs": [],
      "name": "burnPercentage",
      "outputs": [
        {
          "internalType": "uint256",
          "name": "",
          "type": "uint256"
        }
      ],
      "stateMutability": "view",
      "type": "function"
    },
    {
      "inputs": [
        {
          "internalType": "uint256",
          "name": "answerIndex",
          "type": "uint256"
        },
        {
          "internalType": "uint256",
          "name": "numTickets",
          "type": "uint256"
        }
      ],
      "name": "buyTickets",
      "outputs": [],
      "stateMutability": "payable",
      "type": "function"
    },
    {
      "inputs": [],
      "name": "currentQuestion",
      "outputs": [
        {
          "internalType": "string",
          "name": "text",
          "type": "string"
        },
        {
          "internalType": "bool",
          "name": "isSet",
          "type": "bool"
        }
      ],
      "stateMutability": "view",
      "type": "function"
    },
    {
      "inputs": [
        {
          "internalType": "uint256",
          "name": "_burnPercentage",
          "type": "uint256"
        },
        {
          "internalType": "uint256",
          "name": "_feePercentage",
          "type": "uint256"
        },
        {
          "internalType": "uint256",
          "name": "_prizePercentage",
          "type": "uint256"
        },
        {
          "internalType": "uint256",
          "name": "_correctAnswerIndex",
          "type": "uint256"
        },
        {
          "internalType": "string",
          "name": "_correctAnswer",
          "type": "string"
        }
      ],
      "name": "endRound",
      "outputs": [],
      "stateMutability": "nonpayable",
      "type": "function"
    },
    {
      "inputs": [],
      "name": "feePercentage",
      "outputs": [
        {
          "internalType": "uint256",
          "name": "",
          "type": "uint256"
        }
      ],
      "stateMutability": "view",
      "type": "function"
    },
    {
      "inputs": [],
      "name": "freeTicketToken",
      "outputs": [
        {
          "internalType": "contract IERC20",
          "name": "",
          "type": "address"
        }
      ],
      "stateMutability": "view",
      "type": "function"
    },
    {
      "inputs": [
        {
          "internalType": "uint256",
          "name": "roundNumber",
          "type": "uint256"
        }
      ],
      "name": "getAllTicketHolders",
      "outputs": [
        {
          "internalType": "address[]",
          "name": "",
          "type": "address[]"
        }
      ],
      "stateMutability": "view",
      "type": "function"
    },
    {
      "inputs": [
        {
          "internalType": "address",
          "name": "user",
          "type": "address"
        },
        {
          "internalType": "uint256",
          "name": "answerIndex",
          "type": "uint256"
        }
      ],
      "name": "getTicketCount",
      "outputs": [
        {
          "internalType": "uint256",
          "name": "",
          "type": "uint256"
        }
      ],
      "stateMutability": "view",
      "type": "function"
    },
    {
      "inputs": [
        {
          "internalType": "uint256",
          "name": "roundNumber",
          "type": "uint256"
        },
        {
          "internalType": "uint256",
          "name": "answerIndex",
          "type": "uint256"
        }
      ],
      "name": "getTotalTicketsPerAnswer",
      "outputs": [
        {
          "internalType": "uint256",
          "name": "",
          "type": "uint256"
        }
      ],
      "stateMutability": "view",
      "type": "function"
    },
    {
      "inputs": [],
      "name": "isPaused",
      "outputs": [
        {
          "internalType": "bool",
          "name": "",
          "type": "bool"
        }
      ],
      "stateMutability": "view",
      "type": "function"
    },
    {
      "inputs": [],
      "name": "owner",
      "outputs": [
        {
          "internalType": "address",
          "name": "",
          "type": "address"
        }
      ],
      "stateMutability": "view",
      "type": "function"
    },
    {
      "inputs": [],
      "name": "pauseRound",
      "outputs": [],
      "stateMutability": "nonpayable",
      "type": "function"
    },
    {
      "inputs": [],
      "name": "prizePercentage",
      "outputs": [
        {
          "internalType": "uint256",
          "name": "",
          "type": "uint256"
        }
      ],
      "stateMutability": "view",
      "type": "function"
    },
    {
      "inputs": [],
      "name": "renounceOwnership",
      "outputs": [],
      "stateMutability": "nonpayable",
      "type": "function"
    },
    {
      "inputs": [],
      "name": "resumeRound",
      "outputs": [],
      "stateMutability": "nonpayable",
      "type": "function"
    },
    {
      "inputs": [],
      "name": "round",
      "outputs": [
        {
          "internalType": "uint256",
          "name": "",
          "type": "uint256"
        }
      ],
      "stateMutability": "view",
      "type": "function"
    },
    {
      "inputs": [
        {
          "internalType": "string",
          "name": "_text",
          "type": "string"
        },
        {
          "internalType": "string[]",
          "name": "_options",
          "type": "string[]"
        },
        {
          "internalType": "bytes32",
          "name": "_correctAnswerHash",
          "type": "bytes32"
        }
      ],
      "name": "setQuestion",
      "outputs": [],
      "stateMutability": "nonpayable",
      "type": "function"
    },
    {
      "inputs": [
        {
          "internalType": "uint256",
          "name": "_ticketPrice",
          "type": "uint256"
        }
      ],
      "name": "setTicketPrice",
      "outputs": [],
      "stateMutability": "nonpayable",
      "type": "function"
    },
    {
      "inputs": [],
      "name": "ticketPrice",
      "outputs": [
        {
          "internalType": "uint256",
          "name": "",
          "type": "uint256"
        }
      ],
      "stateMutability": "view",
      "type": "function"
    },
    {
      "inputs": [
        {
          "internalType": "address",
          "name": "",
          "type": "address"
        },
        {
          "internalType": "uint256",
          "name": "",
          "type": "uint256"
        },
        {
          "internalType": "uint256",
          "name": "",
          "type": "uint256"
        }
      ],
      "name": "tickets",
      "outputs": [
        {
          "internalType": "uint256",
          "name": "",
          "type": "uint256"
        }
      ],
      "stateMutability": "view",
      "type": "function"
    },
    {
      "inputs": [
        {
          "internalType": "uint256",
          "name": "",
          "type": "uint256"
        },
        {
          "internalType": "uint256",
          "name": "",
          "type": "uint256"
        }
      ],
      "name": "totalTicketsPerAnswer",
      "outputs": [
        {
          "internalType": "uint256",
          "name": "",
          "type": "uint256"
        }
      ],
      "stateMutability": "view",
      "type": "function"
    },
    {
      "inputs": [
        {
          "internalType": "address",
          "name": "newOwner",
          "type": "address"
        }
      ],
      "name": "transferOwnership",
      "outputs": [],
      "stateMutability": "nonpayable",
      "type": "function"
    }
  ],
  "bytecode": "0x60806040526509184e72a00060045560006005556000600b60006101000a81548160ff02191690831515021790555034801561003a57600080fd5b5060405161327a38038061327a833981810160405281019061005c9190610267565b33600073ffffffffffffffffffffffffffffffffffffffff168173ffffffffffffffffffffffffffffffffffffffff16036100cf5760006040517f1e4fbdf70000000000000000000000000000000000000000000000000000000081526004016100c691906102a3565b60405180910390fd5b6100de8161014060201b60201c565b5080600b60016101000a81548173ffffffffffffffffffffffffffffffffffffffff021916908373ffffffffffffffffffffffffffffffffffffffff1602179055506103846006819055506064600781905550612328600881905550506102be565b60008060009054906101000a900473ffffffffffffffffffffffffffffffffffffffff169050816000806101000a81548173ffffffffffffffffffffffffffffffffffffffff021916908373ffffffffffffffffffffffffffffffffffffffff1602179055508173ffffffffffffffffffffffffffffffffffffffff168173ffffffffffffffffffffffffffffffffffffffff167f8be0079c531659141344cd1fd0a4f28419497f9722a3daafe3b4186f6b6457e060405160405180910390a35050565b600080fd5b600073ffffffffffffffffffffffffffffffffffffffff82169050919050565b600061023482610209565b9050919050565b61024481610229565b811461024f57600080fd5b50565b6000815190506102618161023b565b92915050565b60006020828403121561027d5761027c610204565b5b600061028b84828501610252565b91505092915050565b61029d81610229565b82525050565b60006020820190506102b86000830184610294565b92915050565b612fad806102cd6000396000f3fe6080604052600436106101405760003560e01c80637393d9b5116100b6578063c0d102651161006f578063c0d102651461043f578063c10401a21461047c578063e7dea02214610493578063ec30a469146104bf578063f01f20df146104e8578063f2fde38b1461051357610140565b80637393d9b5146103285780638627df46146103655780638da5cb5b14610381578063a001ecdd146103ac578063a5763c82146103d7578063b187bd261461041457610140565b80631a3d3ff3116101085780631a3d3ff3146102065780632115f4d11461024357806332fe67d8146102805780636cb6cfb3146102ab57806370f47825146102d4578063715018a61461031157610140565b806311dc7335146101455780631209b1f614610170578063146ca5311461019b578063156f58af146101c657806315981650146101dd575b600080fd5b34801561015157600080fd5b5061015a61053c565b6040516101679190611b1c565b60405180910390f35b34801561017c57600080fd5b50610185610542565b6040516101929190611b1c565b60405180910390f35b3480156101a757600080fd5b506101b0610548565b6040516101bd9190611b1c565b60405180910390f35b3480156101d257600080fd5b506101db61054e565b005b3480156101e957600080fd5b5061020460048036038101906101ff9190611b77565b61059f565b005b34801561021257600080fd5b5061022d60048036038101906102289190611b77565b6105b1565b60405161023a9190611c94565b60405180910390f35b34801561024f57600080fd5b5061026a60048036038101906102659190611ce2565b610652565b6040516102779190611b1c565b60405180910390f35b34801561028c57600080fd5b50610295610690565b6040516102a29190611d94565b60405180910390f35b3480156102b757600080fd5b506102d260048036038101906102cd9190611ef5565b6106b6565b005b3480156102e057600080fd5b506102fb60048036038101906102f69190611f8c565b610b48565b6040516103089190611b1c565b60405180910390f35b34801561031d57600080fd5b50610326610b79565b005b34801561033457600080fd5b5061034f600480360381019061034a9190611fcc565b610b8d565b60405161035c9190611b1c565b60405180910390f35b61037f600480360381019061037a9190611f8c565b610c06565b005b34801561038d57600080fd5b50610396611350565b6040516103a3919061201b565b60405180910390f35b3480156103b857600080fd5b506103c1611379565b6040516103ce9190611b1c565b60405180910390f35b3480156103e357600080fd5b506103fe60048036038101906103f99190611f8c565b61137f565b60405161040b9190611b1c565b60405180910390f35b34801561042057600080fd5b506104296113b9565b6040516104369190612051565b60405180910390f35b34801561044b57600080fd5b5061046660048036038101906104619190611f8c565b6113cc565b604051610473919061201b565b60405180910390f35b34801561048857600080fd5b5061049161141a565b005b34801561049f57600080fd5b506104a861146b565b6040516104b69291906120eb565b60405180910390f35b3480156104cb57600080fd5b506104e660048036038101906104e19190612237565b611512565b005b3480156104f457600080fd5b506104fd6117bb565b60405161050a9190611b1c565b60405180910390f35b34801561051f57600080fd5b5061053a600480360381019061053591906122c2565b6117c1565b005b60085481565b60045481565b60055481565b610556611847565b6001600b60006101000a81548160ff0219169083151502179055507f7f7c10f994bb0e711623b04af12db1d10f5412a0ffacbcc59fa493c9cbb2236d60405160405180910390a1565b6105a7611847565b8060048190555050565b6060600e600083815260200190815260200160002080548060200260200160405190810160405280929190818152602001828054801561064657602002820191906000526020600020905b8160009054906101000a900473ffffffffffffffffffffffffffffffffffffffff1673ffffffffffffffffffffffffffffffffffffffff16815260200190600101908083116105fc575b50505050509050919050565b600c602052826000526040600020602052816000526040600020818154811061067a57600080fd5b9060005260206000200160009250925050505481565b600b60019054906101000a900473ffffffffffffffffffffffffffffffffffffffff1681565b6106be611847565b8484846127108183856106d1919061231e565b6106db919061231e565b111561071c576040517f08c379a0000000000000000000000000000000000000000000000000000000008152600401610713906123c4565b60405180910390fd5b600160020160009054906101000a900460ff1661076e576040517f08c379a000000000000000000000000000000000000000000000000000000000815260040161076590612456565b60405180910390fd5b6009548460405160200161078291906124b2565b60405160208183030381529060405280519060200120146107d8576040517f08c379a00000000000000000000000000000000000000000000000000000000081526004016107cf90612515565b60405180910390fd5b87600681905550866007819055508560088190555084600a81905550600047905060006127106006548361080c9190612535565b61081691906125a6565b905060006127106007548461082b9190612535565b61083591906125a6565b905060006127106008548561084a9190612535565b61085491906125a6565b9050600073ffffffffffffffffffffffffffffffffffffffff166108fc849081150290604051600060405180830381858888f1935050505015801561089d573d6000803e3d6000fd5b506108a6611350565b73ffffffffffffffffffffffffffffffffffffffff166108fc839081150290604051600060405180830381858888f193505050501580156108eb573d6000803e3d6000fd5b506000600d60006005548152602001908152602001600020600a5481548110610917576109166125d7565b5b9060005260206000200154905060005b600e6000600554815260200190815260200160002080549050811015610a8e576000600e6000600554815260200190815260200160002082815481106109705761096f6125d7565b5b9060005260206000200160009054906101000a900473ffffffffffffffffffffffffffffffffffffffff1690506000600c60008373ffffffffffffffffffffffffffffffffffffffff1673ffffffffffffffffffffffffffffffffffffffff16815260200190815260200160002060006005548152602001908152602001600020600a5481548110610a0557610a046125d7565b5b906000526020600020015490506000811115610a7f576000848287610a2a9190612535565b610a3491906125a6565b90508273ffffffffffffffffffffffffffffffffffffffff166108fc829081150290604051600060405180830381858888f19350505050158015610a7c573d6000803e3d6000fd5b50505b50508080600101915050610927565b507fdaf6233a382145376035341e71f8a04305f7e323d0fe3e58c908cf0a26b76df9848484604051610ac293929190612606565b60405180910390a17faa97d4a7b3afec5f55c25ca8593dde6929d4455fad650a16fa4334004293a618600a54604051610afb9190611b1c565b60405180910390a16000600160020160006101000a81548160ff02191690831515021790555060056000815480929190610b349061263d565b919050555050505050505050505050505050565b600d6020528160005260406000208181548110610b6457600080fd5b90600052602060002001600091509150505481565b610b81611847565b610b8b60006118ce565b565b6000600c60008473ffffffffffffffffffffffffffffffffffffffff1673ffffffffffffffffffffffffffffffffffffffff168152602001908152602001600020600060055481526020019081526020016000208281548110610bf357610bf26125d7565b5b9060005260206000200154905092915050565b600160020160009054906101000a900460ff16610c58576040517f08c379a0000000000000000000000000000000000000000000000000000000008152600401610c4f906126f7565b60405180910390fd5b600b60009054906101000a900460ff1615610ca8576040517f08c379a0000000000000000000000000000000000000000000000000000000008152600401610c9f90612763565b60405180910390fd5b60018001805490508210610cf1576040517f08c379a0000000000000000000000000000000000000000000000000000000008152600401610ce8906127cf565b60405180910390fd5b60008111610d34576040517f08c379a0000000000000000000000000000000000000000000000000000000008152600401610d2b9061283b565b60405180910390fd5b6000670de0b6b3a7640000905060008183610d4f9190612535565b90506000600b60019054906101000a900473ffffffffffffffffffffffffffffffffffffffff1673ffffffffffffffffffffffffffffffffffffffff166370a08231336040518263ffffffff1660e01b8152600401610dae919061201b565b602060405180830381865afa158015610dcb573d6000803e3d6000fd5b505050506040513d601f19601f82011682018060405250810190610def9190612870565b905060008382610dff91906125a6565b90506000808690506000831115610f2257868310610e235784915060009050610e40565b8583610e2f9190612535565b91508287610e3d919061289d565b90505b600b60019054906101000a900473ffffffffffffffffffffffffffffffffffffffff1673ffffffffffffffffffffffffffffffffffffffff166323b872dd3330856040518463ffffffff1660e01b8152600401610e9f939291906128d1565b6020604051808303816000875af1158015610ebe573d6000803e3d6000fd5b505050506040513d601f19601f82011682018060405250810190610ee29190612934565b610f21576040517f08c379a0000000000000000000000000000000000000000000000000000000008152600401610f18906129ad565b60405180910390fd5b5b6000811115610f8557600081600454610f3b9190612535565b9050803414610f7f576040517f08c379a0000000000000000000000000000000000000000000000000000000008152600401610f7690612a19565b60405180910390fd5b50610fc9565b60003414610fc8576040517f08c379a0000000000000000000000000000000000000000000000000000000008152600401610fbf90612aab565b60405180910390fd5b5b6000600c60003373ffffffffffffffffffffffffffffffffffffffff1673ffffffffffffffffffffffffffffffffffffffff16815260200190815260200160002060006005548152602001908152602001600020905060008180549050036110e257600180018054905067ffffffffffffffff81111561104c5761104b611dca565b5b60405190808252806020026020018201604052801561107a5781602001602082028036833780820191505090505b50600c60003373ffffffffffffffffffffffffffffffffffffffff1673ffffffffffffffffffffffffffffffffffffffff1681526020019081526020016000206000600554815260200190815260200160002090805190602001906110e092919061199a565b505b87600c60003373ffffffffffffffffffffffffffffffffffffffff1673ffffffffffffffffffffffffffffffffffffffff168152602001908152602001600020600060055481526020019081526020016000208a81548110611147576111466125d7565b5b906000526020600020016000828254611160919061231e565b9250508190555087600d600060055481526020019081526020016000208a8154811061118f5761118e6125d7565b5b9060005260206000200160008282546111a8919061231e565b92505081905550600f60003373ffffffffffffffffffffffffffffffffffffffff1673ffffffffffffffffffffffffffffffffffffffff1681526020019081526020016000206000600554815260200190815260200160002060009054906101000a900460ff166112f5576001600f60003373ffffffffffffffffffffffffffffffffffffffff1673ffffffffffffffffffffffffffffffffffffffff1681526020019081526020016000206000600554815260200190815260200160002060006101000a81548160ff021916908315150217905550600e60006005548152602001908152602001600020339080600181540180825580915050600190039060005260206000200160009091909190916101000a81548173ffffffffffffffffffffffffffffffffffffffff021916908373ffffffffffffffffffffffffffffffffffffffff1602179055505b3373ffffffffffffffffffffffffffffffffffffffff167f2a91574e12ad96234e84923e146b0946ecfb871cd8d5534dc1fdcbe87a7c01b38a8a60405161133d929190612acb565b60405180910390a2505050505050505050565b60008060009054906101000a900473ffffffffffffffffffffffffffffffffffffffff16905090565b60075481565b6000600d600084815260200190815260200160002082815481106113a6576113a56125d7565b5b9060005260206000200154905092915050565b600b60009054906101000a900460ff1681565b600e60205281600052604060002081815481106113e857600080fd5b906000526020600020016000915091509054906101000a900473ffffffffffffffffffffffffffffffffffffffff1681565b611422611847565b6000600b60006101000a81548160ff0219169083151502179055507fea6117dad2620a0ca2c1af74b4c6996ccff70e5006afaa8ce2accb12d75db20260405160405180910390a1565b600180600001805461147c90612b23565b80601f01602080910402602001604051908101604052809291908181526020018280546114a890612b23565b80156114f55780601f106114ca576101008083540402835291602001916114f5565b820191906000526020600020905b8154815290600101906020018083116114d857829003601f168201915b5050505050908060020160009054906101000a900460ff16905082565b61151a611847565b600182511161155e576040517f08c379a000000000000000000000000000000000000000000000000000000000815260040161155590612ba0565b60405180910390fd5b604051806060016040528084815260200183815260200160011515815250600160008201518160000190816115939190612d62565b5060208201518160010190805190602001906115b09291906119e7565b5060408201518160020160006101000a81548160ff02191690831515021790555090505080600981905550600d6000600554815260200190815260200160002060006115fc9190611a40565b815167ffffffffffffffff81111561161757611616611dca565b5b6040519080825280602002602001820160405280156116455781602001602082028036833780820191505090505b50600d60006005548152602001908152602001600020908051906020019061166e92919061199a565b5060005b600e600060055481526020019081526020016000208054905081101561175b576000600f6000600e6000600554815260200190815260200160002084815481106116bf576116be6125d7565b5b9060005260206000200160009054906101000a900473ffffffffffffffffffffffffffffffffffffffff1673ffffffffffffffffffffffffffffffffffffffff1673ffffffffffffffffffffffffffffffffffffffff1681526020019081526020016000206000600554815260200190815260200160002060006101000a81548160ff0219169083151502179055508080600101915050611672565b50600e60006005548152602001908152602001600020600061177d9190611a61565b7f4036cc6724224308f836b7bb5ccafed36cc517aafc64ff68f6d498882ab45efc83836040516117ae929190612f40565b60405180910390a1505050565b60065481565b6117c9611847565b600073ffffffffffffffffffffffffffffffffffffffff168173ffffffffffffffffffffffffffffffffffffffff160361183b5760006040517f1e4fbdf7000000000000000000000000000000000000000000000000000000008152600401611832919061201b565b60405180910390fd5b611844816118ce565b50565b61184f611992565b73ffffffffffffffffffffffffffffffffffffffff1661186d611350565b73ffffffffffffffffffffffffffffffffffffffff16146118cc57611890611992565b6040517f118cdaa70000000000000000000000000000000000000000000000000000000081526004016118c3919061201b565b60405180910390fd5b565b60008060009054906101000a900473ffffffffffffffffffffffffffffffffffffffff169050816000806101000a81548173ffffffffffffffffffffffffffffffffffffffff021916908373ffffffffffffffffffffffffffffffffffffffff1602179055508173ffffffffffffffffffffffffffffffffffffffff168173ffffffffffffffffffffffffffffffffffffffff167f8be0079c531659141344cd1fd0a4f28419497f9722a3daafe3b4186f6b6457e060405160405180910390a35050565b600033905090565b8280548282559060005260206000209081019282156119d6579160200282015b828111156119d55782518255916020019190600101906119ba565b5b5090506119e39190611a82565b5090565b828054828255906000526020600020908101928215611a2f579160200282015b82811115611a2e578251829081611a1e9190612d62565b5091602001919060010190611a07565b5b509050611a3c9190611a9f565b5090565b5080546000825590600052602060002090810190611a5e9190611a82565b50565b5080546000825590600052602060002090810190611a7f9190611a82565b50565b5b80821115611a9b576000816000905550600101611a83565b5090565b5b80821115611abf5760008181611ab69190611ac3565b50600101611aa0565b5090565b508054611acf90612b23565b6000825580601f10611ae15750611b00565b601f016020900490600052602060002090810190611aff9190611a82565b5b50565b6000819050919050565b611b1681611b03565b82525050565b6000602082019050611b316000830184611b0d565b92915050565b6000604051905090565b600080fd5b600080fd5b611b5481611b03565b8114611b5f57600080fd5b50565b600081359050611b7181611b4b565b92915050565b600060208284031215611b8d57611b8c611b41565b5b6000611b9b84828501611b62565b91505092915050565b600081519050919050565b600082825260208201905092915050565b6000819050602082019050919050565b600073ffffffffffffffffffffffffffffffffffffffff82169050919050565b6000611bfb82611bd0565b9050919050565b611c0b81611bf0565b82525050565b6000611c1d8383611c02565b60208301905092915050565b6000602082019050919050565b6000611c4182611ba4565b611c4b8185611baf565b9350611c5683611bc0565b8060005b83811015611c87578151611c6e8882611c11565b9750611c7983611c29565b925050600181019050611c5a565b5085935050505092915050565b60006020820190508181036000830152611cae8184611c36565b905092915050565b611cbf81611bf0565b8114611cca57600080fd5b50565b600081359050611cdc81611cb6565b92915050565b600080600060608486031215611cfb57611cfa611b41565b5b6000611d0986828701611ccd565b9350506020611d1a86828701611b62565b9250506040611d2b86828701611b62565b9150509250925092565b6000819050919050565b6000611d5a611d55611d5084611bd0565b611d35565b611bd0565b9050919050565b6000611d6c82611d3f565b9050919050565b6000611d7e82611d61565b9050919050565b611d8e81611d73565b82525050565b6000602082019050611da96000830184611d85565b92915050565b600080fd5b600080fd5b6000601f19601f8301169050919050565b7f4e487b7100000000000000000000000000000000000000000000000000000000600052604160045260246000fd5b611e0282611db9565b810181811067ffffffffffffffff82111715611e2157611e20611dca565b5b80604052505050565b6000611e34611b37565b9050611e408282611df9565b919050565b600067ffffffffffffffff821115611e6057611e5f611dca565b5b611e6982611db9565b9050602081019050919050565b82818337600083830152505050565b6000611e98611e9384611e45565b611e2a565b905082815260208101848484011115611eb457611eb3611db4565b5b611ebf848285611e76565b509392505050565b600082601f830112611edc57611edb611daf565b5b8135611eec848260208601611e85565b91505092915050565b600080600080600060a08688031215611f1157611f10611b41565b5b6000611f1f88828901611b62565b9550506020611f3088828901611b62565b9450506040611f4188828901611b62565b9350506060611f5288828901611b62565b925050608086013567ffffffffffffffff811115611f7357611f72611b46565b5b611f7f88828901611ec7565b9150509295509295909350565b60008060408385031215611fa357611fa2611b41565b5b6000611fb185828601611b62565b9250506020611fc285828601611b62565b9150509250929050565b60008060408385031215611fe357611fe2611b41565b5b6000611ff185828601611ccd565b925050602061200285828601611b62565b9150509250929050565b61201581611bf0565b82525050565b6000602082019050612030600083018461200c565b92915050565b60008115159050919050565b61204b81612036565b82525050565b60006020820190506120666000830184612042565b92915050565b600081519050919050565b600082825260208201905092915050565b60005b838110156120a657808201518184015260208101905061208b565b60008484015250505050565b60006120bd8261206c565b6120c78185612077565b93506120d7818560208601612088565b6120e081611db9565b840191505092915050565b6000604082019050818103600083015261210581856120b2565b90506121146020830184612042565b9392505050565b600067ffffffffffffffff82111561213657612135611dca565b5b602082029050602081019050919050565b600080fd5b600061215f61215a8461211b565b611e2a565b9050808382526020820190506020840283018581111561218257612181612147565b5b835b818110156121c957803567ffffffffffffffff8111156121a7576121a6611daf565b5b8086016121b48982611ec7565b85526020850194505050602081019050612184565b5050509392505050565b600082601f8301126121e8576121e7611daf565b5b81356121f884826020860161214c565b91505092915050565b6000819050919050565b61221481612201565b811461221f57600080fd5b50565b6000813590506122318161220b565b92915050565b6000806000606084860312156122505761224f611b41565b5b600084013567ffffffffffffffff81111561226e5761226d611b46565b5b61227a86828701611ec7565b935050602084013567ffffffffffffffff81111561229b5761229a611b46565b5b6122a7868287016121d3565b92505060406122b886828701612222565b9150509250925092565b6000602082840312156122d8576122d7611b41565b5b60006122e684828501611ccd565b91505092915050565b7f4e487b7100000000000000000000000000000000000000000000000000000000600052601160045260246000fd5b600061232982611b03565b915061233483611b03565b925082820190508082111561234c5761234b6122ef565b5b92915050565b7f50657263656e7461676573206d757374206e6f7420657863656564203130302560008201527f2e00000000000000000000000000000000000000000000000000000000000000602082015250565b60006123ae602183612077565b91506123b982612352565b604082019050919050565b600060208201905081810360008301526123dd816123a1565b9050919050565b7f4e6f207175657374696f6e2073657420746f20656e642074686520726f756e6460008201527f2e00000000000000000000000000000000000000000000000000000000000000602082015250565b6000612440602183612077565b915061244b826123e4565b604082019050919050565b6000602082019050818103600083015261246f81612433565b9050919050565b600081905092915050565b600061248c8261206c565b6124968185612476565b93506124a6818560208601612088565b80840191505092915050565b60006124be8284612481565b915081905092915050565b7f496e636f727265637420616e737765722072657665616c65642e000000000000600082015250565b60006124ff601a83612077565b915061250a826124c9565b602082019050919050565b6000602082019050818103600083015261252e816124f2565b9050919050565b600061254082611b03565b915061254b83611b03565b925082820261255981611b03565b915082820484148315176125705761256f6122ef565b5b5092915050565b7f4e487b7100000000000000000000000000000000000000000000000000000000600052601260045260246000fd5b60006125b182611b03565b91506125bc83611b03565b9250826125cc576125cb612577565b5b828204905092915050565b7f4e487b7100000000000000000000000000000000000000000000000000000000600052603260045260246000fd5b600060608201905061261b6000830186611b0d565b6126286020830185611b0d565b6126356040830184611b0d565b949350505050565b600061264882611b03565b91507fffffffffffffffffffffffffffffffffffffffffffffffffffffffffffffffff820361267a576126796122ef565b5b600182019050919050565b7f41207175657374696f6e206d75737420626520736574206265666f726520627560008201527f79696e67207469636b6574732e00000000000000000000000000000000000000602082015250565b60006126e1602d83612077565b91506126ec82612685565b604082019050919050565b60006020820190508181036000830152612710816126d4565b9050919050565b7f526f756e64206973207061757365640000000000000000000000000000000000600082015250565b600061274d600f83612077565b915061275882612717565b602082019050919050565b6000602082019050818103600083015261277c81612740565b9050919050565b7f496e76616c696420616e7377657220696e6465782e0000000000000000000000600082015250565b60006127b9601583612077565b91506127c482612783565b602082019050919050565b600060208201905081810360008301526127e8816127ac565b9050919050565b7f4d75737420627579206174206c65617374206f6e65207469636b65742e000000600082015250565b6000612825601d83612077565b9150612830826127ef565b602082019050919050565b6000602082019050818103600083015261285481612818565b9050919050565b60008151905061286a81611b4b565b92915050565b60006020828403121561288657612885611b41565b5b60006128948482850161285b565b91505092915050565b60006128a882611b03565b91506128b383611b03565b92508282039050818111156128cb576128ca6122ef565b5b92915050565b60006060820190506128e6600083018661200c565b6128f3602083018561200c565b6129006040830184611b0d565b949350505050565b61291181612036565b811461291c57600080fd5b50565b60008151905061292e81612908565b92915050565b60006020828403121561294a57612949611b41565b5b60006129588482850161291f565b91505092915050565b7f546f6b656e207472616e73666572206661696c65640000000000000000000000600082015250565b6000612997601583612077565b91506129a282612961565b602082019050919050565b600060208201905081810360008301526129c68161298a565b9050919050565b7f496e636f7272656374204554482076616c75652073656e742e00000000000000600082015250565b6000612a03601983612077565b9150612a0e826129cd565b602082019050919050565b60006020820190508181036000830152612a32816129f6565b9050919050565b7f4e6f2045544820726571756972656420696620746f6b656e7320636f7665722060008201527f66756c6c20636f73740000000000000000000000000000000000000000000000602082015250565b6000612a95602983612077565b9150612aa082612a39565b604082019050919050565b60006020820190508181036000830152612ac481612a88565b9050919050565b6000604082019050612ae06000830185611b0d565b612aed6020830184611b0d565b9392505050565b7f4e487b7100000000000000000000000000000000000000000000000000000000600052602260045260246000fd5b60006002820490506001821680612b3b57607f821691505b602082108103612b4e57612b4d612af4565b5b50919050565b7f4d7573742068617665206174206c656173742074776f206f7074696f6e732e00600082015250565b6000612b8a601f83612077565b9150612b9582612b54565b602082019050919050565b60006020820190508181036000830152612bb981612b7d565b9050919050565b60008190508160005260206000209050919050565b60006020601f8301049050919050565b600082821b905092915050565b600060088302612c227fffffffffffffffffffffffffffffffffffffffffffffffffffffffffffffffff82612be5565b612c2c8683612be5565b95508019841693508086168417925050509392505050565b6000612c5f612c5a612c5584611b03565b611d35565b611b03565b9050919050565b6000819050919050565b612c7983612c44565b612c8d612c8582612c66565b848454612bf2565b825550505050565b600090565b612ca2612c95565b612cad818484612c70565b505050565b5b81811015612cd157612cc6600082612c9a565b600181019050612cb3565b5050565b601f821115612d1657612ce781612bc0565b612cf084612bd5565b81016020851015612cff578190505b612d13612d0b85612bd5565b830182612cb2565b50505b505050565b600082821c905092915050565b6000612d3960001984600802612d1b565b1980831691505092915050565b6000612d528383612d28565b9150826002028217905092915050565b612d6b8261206c565b67ffffffffffffffff811115612d8457612d83611dca565b5b612d8e8254612b23565b612d99828285612cd5565b600060209050601f831160018114612dcc5760008415612dba578287015190505b612dc48582612d46565b865550612e2c565b601f198416612dda86612bc0565b60005b82811015612e0257848901518255600182019150602085019450602081019050612ddd565b86831015612e1f5784890151612e1b601f891682612d28565b8355505b6001600288020188555050505b505050505050565b600081519050919050565b600082825260208201905092915050565b6000819050602082019050919050565b600082825260208201905092915050565b6000612e7c8261206c565b612e868185612e60565b9350612e96818560208601612088565b612e9f81611db9565b840191505092915050565b6000612eb68383612e71565b905092915050565b6000602082019050919050565b6000612ed682612e34565b612ee08185612e3f565b935083602082028501612ef285612e50565b8060005b85811015612f2e5784840389528151612f0f8582612eaa565b9450612f1a83612ebe565b925060208a01995050600181019050612ef6565b50829750879550505050505092915050565b60006040820190508181036000830152612f5a81856120b2565b90508181036020830152612f6e8184612ecb565b9050939250505056fea2646970667358221220854a2b79df1265f5b8dc4c9882fb1b86a3e9876df66d6c97c4a5661acaf1acf264736f6c634300081c0033",
  "linkReferences": {},
  "deployedLinkReferences": {}
}