{
  "_format": "hh-sol-artifact-1",
  "contractName": "DungeonCrawler",
  "sourceName": "contracts/dungeon_crawler.sol",
  "abi": [
    {
      "inputs": [],
      "stateMutability": "nonpayable",
      "type": "constructor"
    },
    {
      "inputs": [
        {
          "internalType": "address",
          "name": "owner",
          "type": "address"
        }
      ],
      "name": "OwnableInvalidOwner",
      "type": "error"
    },
    {
      "inputs": [
        {
          "internalType": "address",
          "name": "account",
          "type": "address"
        }
      ],
      "name": "OwnableUnauthorizedAccount",
      "type": "error"
    },
    {
      "anonymous": false,
      "inputs": [
        {
          "indexed": false,
          "internalType": "uint256",
          "name": "burned",
          "type": "uint256"
        },
        {
          "indexed": false,
          "internalType": "uint256",
          "name": "ownerFees",
          "type": "uint256"
        },
        {
          "indexed": false,
          "internalType": "uint256",
          "name": "prizePool",
          "type": "uint256"
        }
      ],
      "name": "FundsDistributed",
      "type": "event"
    },
    {
      "anonymous": false,
      "inputs": [
        {
          "indexed": true,
          "internalType": "address",
          "name": "previousOwner",
          "type": "address"
        },
        {
          "indexed": true,
          "internalType": "address",
          "name": "newOwner",
          "type": "address"
        }
      ],
      "name": "OwnershipTransferred",
      "type": "event"
    },
    {
      "anonymous": false,
      "inputs": [
        {
          "indexed": false,
          "internalType": "string",
          "name": "text",
          "type": "string"
        },
        {
          "indexed": false,
          "internalType": "string[]",
          "name": "options",
          "type": "string[]"
        }
      ],
      "name": "QuestionSet",
      "type": "event"
    },
    {
      "anonymous": false,
      "inputs": [
        {
          "indexed": false,
          "internalType": "uint256",
          "name": "winningOption",
          "type": "uint256"
        }
      ],
      "name": "RoundEnded",
      "type": "event"
    },
    {
      "anonymous": false,
      "inputs": [
        {
          "indexed": true,
          "internalType": "address",
          "name": "buyer",
          "type": "address"
        },
        {
          "indexed": false,
          "internalType": "uint256",
          "name": "answerIndex",
          "type": "uint256"
        },
        {
          "indexed": false,
          "internalType": "uint256",
          "name": "numTickets",
          "type": "uint256"
        }
      ],
      "name": "TicketPurchased",
      "type": "event"
    },
    {
      "inputs": [
        {
          "internalType": "uint256",
          "name": "",
          "type": "uint256"
        }
      ],
      "name": "allTicketHolders",
      "outputs": [
        {
          "internalType": "address",
          "name": "",
          "type": "address"
        }
      ],
      "stateMutability": "view",
      "type": "function"
    },
    {
      "inputs": [],
      "name": "burnPercentage",
      "outputs": [
        {
          "internalType": "uint256",
          "name": "",
          "type": "uint256"
        }
      ],
      "stateMutability": "view",
      "type": "function"
    },
    {
      "inputs": [
        {
          "internalType": "uint256",
          "name": "answerIndex",
          "type": "uint256"
        },
        {
          "internalType": "uint256",
          "name": "numTickets",
          "type": "uint256"
        }
      ],
      "name": "buyTickets",
      "outputs": [],
      "stateMutability": "payable",
      "type": "function"
    },
    {
      "inputs": [],
      "name": "currentQuestion",
      "outputs": [
        {
          "internalType": "string",
          "name": "text",
          "type": "string"
        },
        {
          "internalType": "bool",
          "name": "isSet",
          "type": "bool"
        }
      ],
      "stateMutability": "view",
      "type": "function"
    },
    {
      "inputs": [
        {
          "internalType": "uint256",
          "name": "_burnPercentage",
          "type": "uint256"
        },
        {
          "internalType": "uint256",
          "name": "_feePercentage",
          "type": "uint256"
        },
        {
          "internalType": "uint256",
          "name": "_prizePercentage",
          "type": "uint256"
        }
      ],
      "name": "endRound",
      "outputs": [],
      "stateMutability": "nonpayable",
      "type": "function"
    },
    {
      "inputs": [],
      "name": "feePercentage",
      "outputs": [
        {
          "internalType": "uint256",
          "name": "",
          "type": "uint256"
        }
      ],
      "stateMutability": "view",
      "type": "function"
    },
    {
      "inputs": [],
      "name": "owner",
      "outputs": [
        {
          "internalType": "address",
          "name": "",
          "type": "address"
        }
      ],
      "stateMutability": "view",
      "type": "function"
    },
    {
      "inputs": [],
      "name": "prizePercentage",
      "outputs": [
        {
          "internalType": "uint256",
          "name": "",
          "type": "uint256"
        }
      ],
      "stateMutability": "view",
      "type": "function"
    },
    {
      "inputs": [],
      "name": "renounceOwnership",
      "outputs": [],
      "stateMutability": "nonpayable",
      "type": "function"
    },
    {
      "inputs": [],
      "name": "round",
      "outputs": [
        {
          "internalType": "uint256",
          "name": "",
          "type": "uint256"
        }
      ],
      "stateMutability": "view",
      "type": "function"
    },
    {
      "inputs": [
        {
          "internalType": "string",
          "name": "_text",
          "type": "string"
        },
        {
          "internalType": "string[]",
          "name": "_options",
          "type": "string[]"
        }
      ],
      "name": "setQuestion",
      "outputs": [],
      "stateMutability": "nonpayable",
      "type": "function"
    },
    {
      "inputs": [
        {
          "internalType": "uint256",
          "name": "_ticketPrice",
          "type": "uint256"
        }
      ],
      "name": "setTicketPrice",
      "outputs": [],
      "stateMutability": "nonpayable",
      "type": "function"
    },
    {
      "inputs": [],
      "name": "ticketPrice",
      "outputs": [
        {
          "internalType": "uint256",
          "name": "",
          "type": "uint256"
        }
      ],
      "stateMutability": "view",
      "type": "function"
    },
    {
      "inputs": [
        {
          "internalType": "address",
          "name": "",
          "type": "address"
        },
        {
          "internalType": "uint256",
          "name": "",
          "type": "uint256"
        },
        {
          "internalType": "uint256",
          "name": "",
          "type": "uint256"
        }
      ],
      "name": "tickets",
      "outputs": [
        {
          "internalType": "uint256",
          "name": "",
          "type": "uint256"
        }
      ],
      "stateMutability": "view",
      "type": "function"
    },
    {
      "inputs": [
        {
          "internalType": "uint256",
          "name": "",
          "type": "uint256"
        },
        {
          "internalType": "uint256",
          "name": "",
          "type": "uint256"
        }
      ],
      "name": "totalTicketsPerAnswer",
      "outputs": [
        {
          "internalType": "uint256",
          "name": "",
          "type": "uint256"
        }
      ],
      "stateMutability": "view",
      "type": "function"
    },
    {
      "inputs": [
        {
          "internalType": "address",
          "name": "newOwner",
          "type": "address"
        }
      ],
      "name": "transferOwnership",
      "outputs": [],
      "stateMutability": "nonpayable",
      "type": "function"
    }
  ],
  "bytecode": "0x60806040526509184e72a000600455600060055534801561001f57600080fd5b5033600073ffffffffffffffffffffffffffffffffffffffff168173ffffffffffffffffffffffffffffffffffffffff16036100935760006040517f1e4fbdf700000000000000000000000000000000000000000000000000000000815260040161008a91906101c7565b60405180910390fd5b6100a2816100c260201b60201c565b5061038460068190555060646007819055506123286008819055506101e2565b60008060009054906101000a900473ffffffffffffffffffffffffffffffffffffffff169050816000806101000a81548173ffffffffffffffffffffffffffffffffffffffff021916908373ffffffffffffffffffffffffffffffffffffffff1602179055508173ffffffffffffffffffffffffffffffffffffffff168173ffffffffffffffffffffffffffffffffffffffff167f8be0079c531659141344cd1fd0a4f28419497f9722a3daafe3b4186f6b6457e060405160405180910390a35050565b600073ffffffffffffffffffffffffffffffffffffffff82169050919050565b60006101b182610186565b9050919050565b6101c1816101a6565b82525050565b60006020820190506101dc60008301846101b8565b92915050565b612322806101f16000396000f3fe6080604052600436106100f35760003560e01c8063715018a61161008a578063a001ecdd11610059578063a001ecdd14610309578063e7dea02214610334578063f01f20df14610360578063f2fde38b1461038b576100f3565b8063715018a6146102825780637af89499146102995780638627df46146102c25780638da5cb5b146102de576100f3565b806315981650116100c657806315981650146101a25780632115f4d1146101cb5780633e81bca01461020857806370f4782514610245576100f3565b806311dc7335146100f85780631209b1f614610123578063145b79891461014e578063146ca53114610177575b600080fd5b34801561010457600080fd5b5061010d6103b4565b60405161011a91906113f8565b60405180910390f35b34801561012f57600080fd5b506101386103ba565b60405161014591906113f8565b60405180910390f35b34801561015a57600080fd5b5061017560048036038101906101709190611453565b6103c0565b005b34801561018357600080fd5b5061018c610823565b60405161019991906113f8565b60405180910390f35b3480156101ae57600080fd5b506101c960048036038101906101c491906114a6565b610829565b005b3480156101d757600080fd5b506101f260048036038101906101ed9190611531565b61083b565b6040516101ff91906113f8565b60405180910390f35b34801561021457600080fd5b5061022f600480360381019061022a91906114a6565b610879565b60405161023c9190611593565b60405180910390f35b34801561025157600080fd5b5061026c600480360381019061026791906115ae565b6108b8565b60405161027991906113f8565b60405180910390f35b34801561028e57600080fd5b506102976108e9565b005b3480156102a557600080fd5b506102c060048036038101906102bb919061181a565b6108fd565b005b6102dc60048036038101906102d791906115ae565b610b52565b005b3480156102ea57600080fd5b506102f3610fc1565b6040516103009190611593565b60405180910390f35b34801561031557600080fd5b5061031e610fea565b60405161032b91906113f8565b60405180910390f35b34801561034057600080fd5b50610349610ff0565b60405161035792919061192c565b60405180910390f35b34801561036c57600080fd5b50610375611097565b60405161038291906113f8565b60405180910390f35b34801561039757600080fd5b506103b260048036038101906103ad919061195c565b61109d565b005b60085481565b60045481565b6103c8611123565b8282826127108183856103db91906119b8565b6103e591906119b8565b1115610426576040517f08c379a000000000000000000000000000000000000000000000000000000000815260040161041d90611a5e565b60405180910390fd5b600160020160009054906101000a900460ff16610478576040517f08c379a000000000000000000000000000000000000000000000000000000000815260040161046f90611af0565b60405180910390fd5b85600681905550846007819055508360088190555060004790506000612710600654836104a59190611b10565b6104af9190611b81565b90506000612710600754846104c49190611b10565b6104ce9190611b81565b90506000612710600854856104e39190611b10565b6104ed9190611b81565b9050600073ffffffffffffffffffffffffffffffffffffffff166108fc849081150290604051600060405180830381858888f19350505050158015610536573d6000803e3d6000fd5b5061053f610fc1565b73ffffffffffffffffffffffffffffffffffffffff166108fc839081150290604051600060405180830381858888f19350505050158015610584573d6000803e3d6000fd5b5060008060005b600a60006005548152602001908152602001600020805490508110156106295781600a6000600554815260200190815260200160002082815481106105d3576105d2611bb2565b5b9060005260206000200154111561061c57600a60006005548152602001908152602001600020818154811061060b5761060a611bb2565b5b906000526020600020015491508092505b808060010191505061058b565b5060005b600b8054905081101561076c576000600b82815481106106505761064f611bb2565b5b9060005260206000200160009054906101000a900473ffffffffffffffffffffffffffffffffffffffff1690506000600960008373ffffffffffffffffffffffffffffffffffffffff1673ffffffffffffffffffffffffffffffffffffffff1681526020019081526020016000206000600554815260200190815260200160002085815481106106e3576106e2611bb2565b5b90600052602060002001549050600081111561075d5760008482886107089190611b10565b6107129190611b81565b90508273ffffffffffffffffffffffffffffffffffffffff166108fc829081150290604051600060405180830381858888f1935050505015801561075a573d6000803e3d6000fd5b50505b5050808060010191505061062d565b507fdaf6233a382145376035341e71f8a04305f7e323d0fe3e58c908cf0a26b76df98585856040516107a093929190611be1565b60405180910390a17faa97d4a7b3afec5f55c25ca8593dde6929d4455fad650a16fa4334004293a618826040516107d791906113f8565b60405180910390a16000600160020160006101000a81548160ff0219169083151502179055506005600081548092919061081090611c18565b9190505550505050505050505050505050565b60055481565b610831611123565b8060048190555050565b6009602052826000526040600020602052816000526040600020818154811061086357600080fd5b9060005260206000200160009250925050505481565b600b818154811061088957600080fd5b906000526020600020016000915054906101000a900473ffffffffffffffffffffffffffffffffffffffff1681565b600a60205281600052604060002081815481106108d457600080fd5b90600052602060002001600091509150505481565b6108f1611123565b6108fb60006111aa565b565b610905611123565b6001815111610949576040517f08c379a000000000000000000000000000000000000000000000000000000000815260040161094090611cac565b60405180910390fd5b6040518060600160405280838152602001828152602001600115158152506001600082015181600001908161097e9190611ed8565b50602082015181600101908051906020019061099b929190611276565b5060408201518160020160006101000a81548160ff021916908315150217905550905050600a6000600554815260200190815260200160002060006109e091906112cf565b805167ffffffffffffffff8111156109fb576109fa611609565b5b604051908082528060200260200182016040528015610a295781602001602082028036833780820191505090505b50600a600060055481526020019081526020016000209080519060200190610a529291906112f0565b5060005b600b80549050811015610b06576000600c6000600b8481548110610a7d57610a7c611bb2565b5b9060005260206000200160009054906101000a900473ffffffffffffffffffffffffffffffffffffffff1673ffffffffffffffffffffffffffffffffffffffff1673ffffffffffffffffffffffffffffffffffffffff16815260200190815260200160002060006101000a81548160ff0219169083151502179055508080600101915050610a56565b50600b6000610b15919061133d565b7f4036cc6724224308f836b7bb5ccafed36cc517aafc64ff68f6d498882ab45efc8282604051610b469291906120b6565b60405180910390a15050565b600160020160009054906101000a900460ff16610ba4576040517f08c379a0000000000000000000000000000000000000000000000000000000008152600401610b9b9061215f565b60405180910390fd5b60018001805490508210610bed576040517f08c379a0000000000000000000000000000000000000000000000000000000008152600401610be4906121cb565b60405180910390fd5b60008111610c30576040517f08c379a0000000000000000000000000000000000000000000000000000000008152600401610c2790612237565b60405180910390fd5b80600454610c3e9190611b10565b3414610c7f576040517f08c379a0000000000000000000000000000000000000000000000000000000008152600401610c76906122a3565b60405180910390fd5b6000600960003373ffffffffffffffffffffffffffffffffffffffff1673ffffffffffffffffffffffffffffffffffffffff168152602001908152602001600020600060055481526020019081526020016000208054905003610d9357600180018054905067ffffffffffffffff811115610cfd57610cfc611609565b5b604051908082528060200260200182016040528015610d2b5781602001602082028036833780820191505090505b50600960003373ffffffffffffffffffffffffffffffffffffffff1673ffffffffffffffffffffffffffffffffffffffff168152602001908152602001600020600060055481526020019081526020016000209080519060200190610d919291906112f0565b505b80600960003373ffffffffffffffffffffffffffffffffffffffff1673ffffffffffffffffffffffffffffffffffffffff168152602001908152602001600020600060055481526020019081526020016000208381548110610df857610df7611bb2565b5b906000526020600020016000828254610e1191906119b8565b9250508190555080600a600060055481526020019081526020016000208381548110610e4057610e3f611bb2565b5b906000526020600020016000828254610e5991906119b8565b92505081905550600c60003373ffffffffffffffffffffffffffffffffffffffff1673ffffffffffffffffffffffffffffffffffffffff16815260200190815260200160002060009054906101000a900460ff16610f6d576001600c60003373ffffffffffffffffffffffffffffffffffffffff1673ffffffffffffffffffffffffffffffffffffffff16815260200190815260200160002060006101000a81548160ff021916908315150217905550600b339080600181540180825580915050600190039060005260206000200160009091909190916101000a81548173ffffffffffffffffffffffffffffffffffffffff021916908373ffffffffffffffffffffffffffffffffffffffff1602179055505b3373ffffffffffffffffffffffffffffffffffffffff167f2a91574e12ad96234e84923e146b0946ecfb871cd8d5534dc1fdcbe87a7c01b38383604051610fb59291906122c3565b60405180910390a25050565b60008060009054906101000a900473ffffffffffffffffffffffffffffffffffffffff16905090565b60075481565b600180600001805461100190611cfb565b80601f016020809104026020016040519081016040528092919081815260200182805461102d90611cfb565b801561107a5780601f1061104f5761010080835404028352916020019161107a565b820191906000526020600020905b81548152906001019060200180831161105d57829003601f168201915b5050505050908060020160009054906101000a900460ff16905082565b60065481565b6110a5611123565b600073ffffffffffffffffffffffffffffffffffffffff168173ffffffffffffffffffffffffffffffffffffffff16036111175760006040517f1e4fbdf700000000000000000000000000000000000000000000000000000000815260040161110e9190611593565b60405180910390fd5b611120816111aa565b50565b61112b61126e565b73ffffffffffffffffffffffffffffffffffffffff16611149610fc1565b73ffffffffffffffffffffffffffffffffffffffff16146111a85761116c61126e565b6040517f118cdaa700000000000000000000000000000000000000000000000000000000815260040161119f9190611593565b60405180910390fd5b565b60008060009054906101000a900473ffffffffffffffffffffffffffffffffffffffff169050816000806101000a81548173ffffffffffffffffffffffffffffffffffffffff021916908373ffffffffffffffffffffffffffffffffffffffff1602179055508173ffffffffffffffffffffffffffffffffffffffff168173ffffffffffffffffffffffffffffffffffffffff167f8be0079c531659141344cd1fd0a4f28419497f9722a3daafe3b4186f6b6457e060405160405180910390a35050565b600033905090565b8280548282559060005260206000209081019282156112be579160200282015b828111156112bd5782518290816112ad9190611ed8565b5091602001919060010190611296565b5b5090506112cb919061135e565b5090565b50805460008255906000526020600020908101906112ed9190611382565b50565b82805482825590600052602060002090810192821561132c579160200282015b8281111561132b578251825591602001919060010190611310565b5b5090506113399190611382565b5090565b508054600082559060005260206000209081019061135b9190611382565b50565b5b8082111561137e5760008181611375919061139f565b5060010161135f565b5090565b5b8082111561139b576000816000905550600101611383565b5090565b5080546113ab90611cfb565b6000825580601f106113bd57506113dc565b601f0160209004906000526020600020908101906113db9190611382565b5b50565b6000819050919050565b6113f2816113df565b82525050565b600060208201905061140d60008301846113e9565b92915050565b6000604051905090565b600080fd5b600080fd5b611430816113df565b811461143b57600080fd5b50565b60008135905061144d81611427565b92915050565b60008060006060848603121561146c5761146b61141d565b5b600061147a8682870161143e565b935050602061148b8682870161143e565b925050604061149c8682870161143e565b9150509250925092565b6000602082840312156114bc576114bb61141d565b5b60006114ca8482850161143e565b91505092915050565b600073ffffffffffffffffffffffffffffffffffffffff82169050919050565b60006114fe826114d3565b9050919050565b61150e816114f3565b811461151957600080fd5b50565b60008135905061152b81611505565b92915050565b60008060006060848603121561154a5761154961141d565b5b60006115588682870161151c565b93505060206115698682870161143e565b925050604061157a8682870161143e565b9150509250925092565b61158d816114f3565b82525050565b60006020820190506115a86000830184611584565b92915050565b600080604083850312156115c5576115c461141d565b5b60006115d38582860161143e565b92505060206115e48582860161143e565b9150509250929050565b600080fd5b600080fd5b6000601f19601f8301169050919050565b7f4e487b7100000000000000000000000000000000000000000000000000000000600052604160045260246000fd5b611641826115f8565b810181811067ffffffffffffffff821117156116605761165f611609565b5b80604052505050565b6000611673611413565b905061167f8282611638565b919050565b600067ffffffffffffffff82111561169f5761169e611609565b5b6116a8826115f8565b9050602081019050919050565b82818337600083830152505050565b60006116d76116d284611684565b611669565b9050828152602081018484840111156116f3576116f26115f3565b5b6116fe8482856116b5565b509392505050565b600082601f83011261171b5761171a6115ee565b5b813561172b8482602086016116c4565b91505092915050565b600067ffffffffffffffff82111561174f5761174e611609565b5b602082029050602081019050919050565b600080fd5b600061177861177384611734565b611669565b9050808382526020820190506020840283018581111561179b5761179a611760565b5b835b818110156117e257803567ffffffffffffffff8111156117c0576117bf6115ee565b5b8086016117cd8982611706565b8552602085019450505060208101905061179d565b5050509392505050565b600082601f830112611801576118006115ee565b5b8135611811848260208601611765565b91505092915050565b600080604083850312156118315761183061141d565b5b600083013567ffffffffffffffff81111561184f5761184e611422565b5b61185b85828601611706565b925050602083013567ffffffffffffffff81111561187c5761187b611422565b5b611888858286016117ec565b9150509250929050565b600081519050919050565b600082825260208201905092915050565b60005b838110156118cc5780820151818401526020810190506118b1565b60008484015250505050565b60006118e382611892565b6118ed818561189d565b93506118fd8185602086016118ae565b611906816115f8565b840191505092915050565b60008115159050919050565b61192681611911565b82525050565b6000604082019050818103600083015261194681856118d8565b9050611955602083018461191d565b9392505050565b6000602082840312156119725761197161141d565b5b60006119808482850161151c565b91505092915050565b7f4e487b7100000000000000000000000000000000000000000000000000000000600052601160045260246000fd5b60006119c3826113df565b91506119ce836113df565b92508282019050808211156119e6576119e5611989565b5b92915050565b7f50657263656e7461676573206d757374206e6f7420657863656564203130302560008201527f2e00000000000000000000000000000000000000000000000000000000000000602082015250565b6000611a4860218361189d565b9150611a53826119ec565b604082019050919050565b60006020820190508181036000830152611a7781611a3b565b9050919050565b7f4e6f207175657374696f6e2073657420746f20656e642074686520726f756e6460008201527f2e00000000000000000000000000000000000000000000000000000000000000602082015250565b6000611ada60218361189d565b9150611ae582611a7e565b604082019050919050565b60006020820190508181036000830152611b0981611acd565b9050919050565b6000611b1b826113df565b9150611b26836113df565b9250828202611b34816113df565b91508282048414831517611b4b57611b4a611989565b5b5092915050565b7f4e487b7100000000000000000000000000000000000000000000000000000000600052601260045260246000fd5b6000611b8c826113df565b9150611b97836113df565b925082611ba757611ba6611b52565b5b828204905092915050565b7f4e487b7100000000000000000000000000000000000000000000000000000000600052603260045260246000fd5b6000606082019050611bf660008301866113e9565b611c0360208301856113e9565b611c1060408301846113e9565b949350505050565b6000611c23826113df565b91507fffffffffffffffffffffffffffffffffffffffffffffffffffffffffffffffff8203611c5557611c54611989565b5b600182019050919050565b7f4d7573742068617665206174206c656173742074776f206f7074696f6e732e00600082015250565b6000611c96601f8361189d565b9150611ca182611c60565b602082019050919050565b60006020820190508181036000830152611cc581611c89565b9050919050565b7f4e487b7100000000000000000000000000000000000000000000000000000000600052602260045260246000fd5b60006002820490506001821680611d1357607f821691505b602082108103611d2657611d25611ccc565b5b50919050565b60008190508160005260206000209050919050565b60006020601f8301049050919050565b600082821b905092915050565b600060088302611d8e7fffffffffffffffffffffffffffffffffffffffffffffffffffffffffffffffff82611d51565b611d988683611d51565b95508019841693508086168417925050509392505050565b6000819050919050565b6000611dd5611dd0611dcb846113df565b611db0565b6113df565b9050919050565b6000819050919050565b611def83611dba565b611e03611dfb82611ddc565b848454611d5e565b825550505050565b600090565b611e18611e0b565b611e23818484611de6565b505050565b5b81811015611e4757611e3c600082611e10565b600181019050611e29565b5050565b601f821115611e8c57611e5d81611d2c565b611e6684611d41565b81016020851015611e75578190505b611e89611e8185611d41565b830182611e28565b50505b505050565b600082821c905092915050565b6000611eaf60001984600802611e91565b1980831691505092915050565b6000611ec88383611e9e565b9150826002028217905092915050565b611ee182611892565b67ffffffffffffffff811115611efa57611ef9611609565b5b611f048254611cfb565b611f0f828285611e4b565b600060209050601f831160018114611f425760008415611f30578287015190505b611f3a8582611ebc565b865550611fa2565b601f198416611f5086611d2c565b60005b82811015611f7857848901518255600182019150602085019450602081019050611f53565b86831015611f955784890151611f91601f891682611e9e565b8355505b6001600288020188555050505b505050505050565b600081519050919050565b600082825260208201905092915050565b6000819050602082019050919050565b600082825260208201905092915050565b6000611ff282611892565b611ffc8185611fd6565b935061200c8185602086016118ae565b612015816115f8565b840191505092915050565b600061202c8383611fe7565b905092915050565b6000602082019050919050565b600061204c82611faa565b6120568185611fb5565b93508360208202850161206885611fc6565b8060005b858110156120a457848403895281516120858582612020565b945061209083612034565b925060208a0199505060018101905061206c565b50829750879550505050505092915050565b600060408201905081810360008301526120d081856118d8565b905081810360208301526120e48184612041565b90509392505050565b7f41207175657374696f6e206d75737420626520736574206265666f726520627560008201527f79696e67207469636b6574732e00000000000000000000000000000000000000602082015250565b6000612149602d8361189d565b9150612154826120ed565b604082019050919050565b600060208201905081810360008301526121788161213c565b9050919050565b7f496e76616c696420616e7377657220696e6465782e0000000000000000000000600082015250565b60006121b560158361189d565b91506121c08261217f565b602082019050919050565b600060208201905081810360008301526121e4816121a8565b9050919050565b7f4d75737420627579206174206c65617374206f6e65207469636b65742e000000600082015250565b6000612221601d8361189d565b915061222c826121eb565b602082019050919050565b6000602082019050818103600083015261225081612214565b9050919050565b7f496e636f7272656374204554482076616c75652073656e742e00000000000000600082015250565b600061228d60198361189d565b915061229882612257565b602082019050919050565b600060208201905081810360008301526122bc81612280565b9050919050565b60006040820190506122d860008301856113e9565b6122e560208301846113e9565b939250505056fea2646970667358221220abe7334a3ca0baa0c1954e9f6b5b3a9dba84a09da07f0dc57aec0f205657d6d764736f6c634300081c0033",
  "linkReferences": {},
  "deployedLinkReferences": {}
}