{
  "_format": "hh-sol-artifact-1",
  "contractName": "DungeonCrawler",
  "sourceName": "contracts/dungeon_crawler.sol",
  "abi": [
    {
      "inputs": [
        {
          "internalType": "address",
          "name": "_freeTicketToken",
          "type": "address"
        }
      ],
      "stateMutability": "nonpayable",
      "type": "constructor"
    },
    {
      "inputs": [
        {
          "internalType": "address",
          "name": "owner",
          "type": "address"
        }
      ],
      "name": "OwnableInvalidOwner",
      "type": "error"
    },
    {
      "inputs": [
        {
          "internalType": "address",
          "name": "account",
          "type": "address"
        }
      ],
      "name": "OwnableUnauthorizedAccount",
      "type": "error"
    },
    {
      "anonymous": false,
      "inputs": [
        {
          "indexed": false,
          "internalType": "uint256",
          "name": "burned",
          "type": "uint256"
        },
        {
          "indexed": false,
          "internalType": "uint256",
          "name": "ownerFees",
          "type": "uint256"
        },
        {
          "indexed": false,
          "internalType": "uint256",
          "name": "prizePool",
          "type": "uint256"
        }
      ],
      "name": "FundsDistributed",
      "type": "event"
    },
    {
      "anonymous": false,
      "inputs": [
        {
          "indexed": true,
          "internalType": "address",
          "name": "previousOwner",
          "type": "address"
        },
        {
          "indexed": true,
          "internalType": "address",
          "name": "newOwner",
          "type": "address"
        }
      ],
      "name": "OwnershipTransferred",
      "type": "event"
    },
    {
      "anonymous": false,
      "inputs": [
        {
          "indexed": false,
          "internalType": "string",
          "name": "text",
          "type": "string"
        },
        {
          "indexed": false,
          "internalType": "string[]",
          "name": "options",
          "type": "string[]"
        }
      ],
      "name": "QuestionSet",
      "type": "event"
    },
    {
      "anonymous": false,
      "inputs": [
        {
          "indexed": false,
          "internalType": "uint256",
          "name": "winningOption",
          "type": "uint256"
        }
      ],
      "name": "RoundEnded",
      "type": "event"
    },
    {
      "anonymous": false,
      "inputs": [],
      "name": "RoundPaused",
      "type": "event"
    },
    {
      "anonymous": false,
      "inputs": [],
      "name": "RoundResumed",
      "type": "event"
    },
    {
      "anonymous": false,
      "inputs": [
        {
          "indexed": true,
          "internalType": "address",
          "name": "buyer",
          "type": "address"
        },
        {
          "indexed": false,
          "internalType": "uint256",
          "name": "answerIndex",
          "type": "uint256"
        },
        {
          "indexed": false,
          "internalType": "uint256",
          "name": "numTickets",
          "type": "uint256"
        }
      ],
      "name": "TicketPurchased",
      "type": "event"
    },
    {
      "inputs": [
        {
          "internalType": "uint256",
          "name": "",
          "type": "uint256"
        },
        {
          "internalType": "uint256",
          "name": "",
          "type": "uint256"
        }
      ],
      "name": "allTicketHoldersPerRound",
      "outputs": [
        {
          "internalType": "address",
          "name": "",
          "type": "address"
        }
      ],
      "stateMutability": "view",
      "type": "function"
    },
    {
      "inputs": [],
      "name": "burnPercentage",
      "outputs": [
        {
          "internalType": "uint256",
          "name": "",
          "type": "uint256"
        }
      ],
      "stateMutability": "view",
      "type": "function"
    },
    {
      "inputs": [
        {
          "internalType": "uint256",
          "name": "answerIndex",
          "type": "uint256"
        },
        {
          "internalType": "uint256",
          "name": "numTickets",
          "type": "uint256"
        }
      ],
      "name": "buyTickets",
      "outputs": [],
      "stateMutability": "payable",
      "type": "function"
    },
    {
      "inputs": [],
      "name": "currentQuestion",
      "outputs": [
        {
          "internalType": "string",
          "name": "text",
          "type": "string"
        },
        {
          "internalType": "bool",
          "name": "isSet",
          "type": "bool"
        }
      ],
      "stateMutability": "view",
      "type": "function"
    },
    {
      "inputs": [
        {
          "internalType": "uint256",
          "name": "_burnPercentage",
          "type": "uint256"
        },
        {
          "internalType": "uint256",
          "name": "_feePercentage",
          "type": "uint256"
        },
        {
          "internalType": "uint256",
          "name": "_prizePercentage",
          "type": "uint256"
        },
        {
          "internalType": "uint256",
          "name": "_correctAnswerIndex",
          "type": "uint256"
        },
        {
          "internalType": "string",
          "name": "_correctAnswer",
          "type": "string"
        }
      ],
      "name": "endRound",
      "outputs": [],
      "stateMutability": "nonpayable",
      "type": "function"
    },
    {
      "inputs": [],
      "name": "feePercentage",
      "outputs": [
        {
          "internalType": "uint256",
          "name": "",
          "type": "uint256"
        }
      ],
      "stateMutability": "view",
      "type": "function"
    },
    {
      "inputs": [],
      "name": "freeTicketToken",
      "outputs": [
        {
          "internalType": "contract IERC20",
          "name": "",
          "type": "address"
        }
      ],
      "stateMutability": "view",
      "type": "function"
    },
    {
      "inputs": [
        {
          "internalType": "uint256",
          "name": "roundNumber",
          "type": "uint256"
        }
      ],
      "name": "getAllTicketHolders",
      "outputs": [
        {
          "internalType": "address[]",
          "name": "",
          "type": "address[]"
        }
      ],
      "stateMutability": "view",
      "type": "function"
    },
    {
      "inputs": [
        {
          "internalType": "address",
          "name": "user",
          "type": "address"
        },
        {
          "internalType": "uint256",
          "name": "answerIndex",
          "type": "uint256"
        }
      ],
      "name": "getTicketCount",
      "outputs": [
        {
          "internalType": "uint256",
          "name": "",
          "type": "uint256"
        }
      ],
      "stateMutability": "view",
      "type": "function"
    },
    {
      "inputs": [
        {
          "internalType": "uint256",
          "name": "roundNumber",
          "type": "uint256"
        },
        {
          "internalType": "uint256",
          "name": "answerIndex",
          "type": "uint256"
        }
      ],
      "name": "getTotalTicketsPerAnswer",
      "outputs": [
        {
          "internalType": "uint256",
          "name": "",
          "type": "uint256"
        }
      ],
      "stateMutability": "view",
      "type": "function"
    },
    {
      "inputs": [],
      "name": "isPaused",
      "outputs": [
        {
          "internalType": "bool",
          "name": "",
          "type": "bool"
        }
      ],
      "stateMutability": "view",
      "type": "function"
    },
    {
      "inputs": [],
      "name": "owner",
      "outputs": [
        {
          "internalType": "address",
          "name": "",
          "type": "address"
        }
      ],
      "stateMutability": "view",
      "type": "function"
    },
    {
      "inputs": [],
      "name": "pauseRound",
      "outputs": [],
      "stateMutability": "nonpayable",
      "type": "function"
    },
    {
      "inputs": [],
      "name": "prizePercentage",
      "outputs": [
        {
          "internalType": "uint256",
          "name": "",
          "type": "uint256"
        }
      ],
      "stateMutability": "view",
      "type": "function"
    },
    {
      "inputs": [],
      "name": "renounceOwnership",
      "outputs": [],
      "stateMutability": "nonpayable",
      "type": "function"
    },
    {
      "inputs": [],
      "name": "resumeRound",
      "outputs": [],
      "stateMutability": "nonpayable",
      "type": "function"
    },
    {
      "inputs": [],
      "name": "round",
      "outputs": [
        {
          "internalType": "uint256",
          "name": "",
          "type": "uint256"
        }
      ],
      "stateMutability": "view",
      "type": "function"
    },
    {
      "inputs": [
        {
          "internalType": "string",
          "name": "_text",
          "type": "string"
        },
        {
          "internalType": "string[]",
          "name": "_options",
          "type": "string[]"
        },
        {
          "internalType": "bytes32",
          "name": "_correctAnswerHash",
          "type": "bytes32"
        }
      ],
      "name": "setQuestion",
      "outputs": [],
      "stateMutability": "nonpayable",
      "type": "function"
    },
    {
      "inputs": [
        {
          "internalType": "uint256",
          "name": "_ticketPrice",
          "type": "uint256"
        }
      ],
      "name": "setTicketPrice",
      "outputs": [],
      "stateMutability": "nonpayable",
      "type": "function"
    },
    {
      "inputs": [],
      "name": "ticketPrice",
      "outputs": [
        {
          "internalType": "uint256",
          "name": "",
          "type": "uint256"
        }
      ],
      "stateMutability": "view",
      "type": "function"
    },
    {
      "inputs": [
        {
          "internalType": "address",
          "name": "",
          "type": "address"
        },
        {
          "internalType": "uint256",
          "name": "",
          "type": "uint256"
        },
        {
          "internalType": "uint256",
          "name": "",
          "type": "uint256"
        }
      ],
      "name": "tickets",
      "outputs": [
        {
          "internalType": "uint256",
          "name": "",
          "type": "uint256"
        }
      ],
      "stateMutability": "view",
      "type": "function"
    },
    {
      "inputs": [
        {
          "internalType": "uint256",
          "name": "",
          "type": "uint256"
        },
        {
          "internalType": "uint256",
          "name": "",
          "type": "uint256"
        }
      ],
      "name": "totalTicketsPerAnswer",
      "outputs": [
        {
          "internalType": "uint256",
          "name": "",
          "type": "uint256"
        }
      ],
      "stateMutability": "view",
      "type": "function"
    },
    {
      "inputs": [
        {
          "internalType": "address",
          "name": "newOwner",
          "type": "address"
        }
      ],
      "name": "transferOwnership",
      "outputs": [],
      "stateMutability": "nonpayable",
      "type": "function"
    }
  ],
  "bytecode": "0x60806040526509184e72a00060045560006005556000600b60006101000a81548160ff02191690831515021790555034801561003a57600080fd5b5060405161315b38038061315b833981810160405281019061005c9190610267565b33600073ffffffffffffffffffffffffffffffffffffffff168173ffffffffffffffffffffffffffffffffffffffff16036100cf5760006040517f1e4fbdf70000000000000000000000000000000000000000000000000000000081526004016100c691906102a3565b60405180910390fd5b6100de8161014060201b60201c565b5080600b60016101000a81548173ffffffffffffffffffffffffffffffffffffffff021916908373ffffffffffffffffffffffffffffffffffffffff1602179055506103846006819055506064600781905550612328600881905550506102be565b60008060009054906101000a900473ffffffffffffffffffffffffffffffffffffffff169050816000806101000a81548173ffffffffffffffffffffffffffffffffffffffff021916908373ffffffffffffffffffffffffffffffffffffffff1602179055508173ffffffffffffffffffffffffffffffffffffffff168173ffffffffffffffffffffffffffffffffffffffff167f8be0079c531659141344cd1fd0a4f28419497f9722a3daafe3b4186f6b6457e060405160405180910390a35050565b600080fd5b600073ffffffffffffffffffffffffffffffffffffffff82169050919050565b600061023482610209565b9050919050565b61024481610229565b811461024f57600080fd5b50565b6000815190506102618161023b565b92915050565b60006020828403121561027d5761027c610204565b5b600061028b84828501610252565b91505092915050565b61029d81610229565b82525050565b60006020820190506102b86000830184610294565b92915050565b612e8e806102cd6000396000f3fe6080604052600436106101405760003560e01c80637393d9b5116100b6578063c0d102651161006f578063c0d102651461043f578063c10401a21461047c578063e7dea02214610493578063ec30a469146104bf578063f01f20df146104e8578063f2fde38b1461051357610140565b80637393d9b5146103285780638627df46146103655780638da5cb5b14610381578063a001ecdd146103ac578063a5763c82146103d7578063b187bd261461041457610140565b80631a3d3ff3116101085780631a3d3ff3146102065780632115f4d11461024357806332fe67d8146102805780636cb6cfb3146102ab57806370f47825146102d4578063715018a61461031157610140565b806311dc7335146101455780631209b1f614610170578063146ca5311461019b578063156f58af146101c657806315981650146101dd575b600080fd5b34801561015157600080fd5b5061015a61053c565b6040516101679190611a8f565b60405180910390f35b34801561017c57600080fd5b50610185610542565b6040516101929190611a8f565b60405180910390f35b3480156101a757600080fd5b506101b0610548565b6040516101bd9190611a8f565b60405180910390f35b3480156101d257600080fd5b506101db61054e565b005b3480156101e957600080fd5b5061020460048036038101906101ff9190611aea565b61059f565b005b34801561021257600080fd5b5061022d60048036038101906102289190611aea565b6105b1565b60405161023a9190611c07565b60405180910390f35b34801561024f57600080fd5b5061026a60048036038101906102659190611c55565b610652565b6040516102779190611a8f565b60405180910390f35b34801561028c57600080fd5b50610295610690565b6040516102a29190611d07565b60405180910390f35b3480156102b757600080fd5b506102d260048036038101906102cd9190611e68565b6106b6565b005b3480156102e057600080fd5b506102fb60048036038101906102f69190611eff565b610b48565b6040516103089190611a8f565b60405180910390f35b34801561031d57600080fd5b50610326610b79565b005b34801561033457600080fd5b5061034f600480360381019061034a9190611f3f565b610b8d565b60405161035c9190611a8f565b60405180910390f35b61037f600480360381019061037a9190611eff565b610c06565b005b34801561038d57600080fd5b506103966112c3565b6040516103a39190611f8e565b60405180910390f35b3480156103b857600080fd5b506103c16112ec565b6040516103ce9190611a8f565b60405180910390f35b3480156103e357600080fd5b506103fe60048036038101906103f99190611eff565b6112f2565b60405161040b9190611a8f565b60405180910390f35b34801561042057600080fd5b5061042961132c565b6040516104369190611fc4565b60405180910390f35b34801561044b57600080fd5b5061046660048036038101906104619190611eff565b61133f565b6040516104739190611f8e565b60405180910390f35b34801561048857600080fd5b5061049161138d565b005b34801561049f57600080fd5b506104a86113de565b6040516104b692919061205e565b60405180910390f35b3480156104cb57600080fd5b506104e660048036038101906104e191906121aa565b611485565b005b3480156104f457600080fd5b506104fd61172e565b60405161050a9190611a8f565b60405180910390f35b34801561051f57600080fd5b5061053a60048036038101906105359190612235565b611734565b005b60085481565b60045481565b60055481565b6105566117ba565b6001600b60006101000a81548160ff0219169083151502179055507f7f7c10f994bb0e711623b04af12db1d10f5412a0ffacbcc59fa493c9cbb2236d60405160405180910390a1565b6105a76117ba565b8060048190555050565b6060600e600083815260200190815260200160002080548060200260200160405190810160405280929190818152602001828054801561064657602002820191906000526020600020905b8160009054906101000a900473ffffffffffffffffffffffffffffffffffffffff1673ffffffffffffffffffffffffffffffffffffffff16815260200190600101908083116105fc575b50505050509050919050565b600c602052826000526040600020602052816000526040600020818154811061067a57600080fd5b9060005260206000200160009250925050505481565b600b60019054906101000a900473ffffffffffffffffffffffffffffffffffffffff1681565b6106be6117ba565b8484846127108183856106d19190612291565b6106db9190612291565b111561071c576040517f08c379a000000000000000000000000000000000000000000000000000000000815260040161071390612337565b60405180910390fd5b600160020160009054906101000a900460ff1661076e576040517f08c379a0000000000000000000000000000000000000000000000000000000008152600401610765906123c9565b60405180910390fd5b600954846040516020016107829190612425565b60405160208183030381529060405280519060200120146107d8576040517f08c379a00000000000000000000000000000000000000000000000000000000081526004016107cf90612488565b60405180910390fd5b87600681905550866007819055508560088190555084600a81905550600047905060006127106006548361080c91906124a8565b6108169190612519565b905060006127106007548461082b91906124a8565b6108359190612519565b905060006127106008548561084a91906124a8565b6108549190612519565b9050600073ffffffffffffffffffffffffffffffffffffffff166108fc849081150290604051600060405180830381858888f1935050505015801561089d573d6000803e3d6000fd5b506108a66112c3565b73ffffffffffffffffffffffffffffffffffffffff166108fc839081150290604051600060405180830381858888f193505050501580156108eb573d6000803e3d6000fd5b506000600d60006005548152602001908152602001600020600a54815481106109175761091661254a565b5b9060005260206000200154905060005b600e6000600554815260200190815260200160002080549050811015610a8e576000600e6000600554815260200190815260200160002082815481106109705761096f61254a565b5b9060005260206000200160009054906101000a900473ffffffffffffffffffffffffffffffffffffffff1690506000600c60008373ffffffffffffffffffffffffffffffffffffffff1673ffffffffffffffffffffffffffffffffffffffff16815260200190815260200160002060006005548152602001908152602001600020600a5481548110610a0557610a0461254a565b5b906000526020600020015490506000811115610a7f576000848287610a2a91906124a8565b610a349190612519565b90508273ffffffffffffffffffffffffffffffffffffffff166108fc829081150290604051600060405180830381858888f19350505050158015610a7c573d6000803e3d6000fd5b50505b50508080600101915050610927565b507fdaf6233a382145376035341e71f8a04305f7e323d0fe3e58c908cf0a26b76df9848484604051610ac293929190612579565b60405180910390a17faa97d4a7b3afec5f55c25ca8593dde6929d4455fad650a16fa4334004293a618600a54604051610afb9190611a8f565b60405180910390a16000600160020160006101000a81548160ff02191690831515021790555060056000815480929190610b34906125b0565b919050555050505050505050505050505050565b600d6020528160005260406000208181548110610b6457600080fd5b90600052602060002001600091509150505481565b610b816117ba565b610b8b6000611841565b565b6000600c60008473ffffffffffffffffffffffffffffffffffffffff1673ffffffffffffffffffffffffffffffffffffffff168152602001908152602001600020600060055481526020019081526020016000208281548110610bf357610bf261254a565b5b9060005260206000200154905092915050565b600160020160009054906101000a900460ff16610c58576040517f08c379a0000000000000000000000000000000000000000000000000000000008152600401610c4f9061266a565b60405180910390fd5b600b60009054906101000a900460ff1615610ca8576040517f08c379a0000000000000000000000000000000000000000000000000000000008152600401610c9f906126d6565b60405180910390fd5b60018001805490508210610cf1576040517f08c379a0000000000000000000000000000000000000000000000000000000008152600401610ce890612742565b60405180910390fd5b60008111610d34576040517f08c379a0000000000000000000000000000000000000000000000000000000008152600401610d2b906127ae565b60405180910390fd5b6000600b60019054906101000a900473ffffffffffffffffffffffffffffffffffffffff1673ffffffffffffffffffffffffffffffffffffffff166370a08231336040518263ffffffff1660e01b8152600401610d919190611f8e565b602060405180830381865afa158015610dae573d6000803e3d6000fd5b505050506040513d601f19601f82011682018060405250810190610dd291906127e3565b90506000811115610ee257600082821015610ded5781610def565b825b9050600b60019054906101000a900473ffffffffffffffffffffffffffffffffffffffff1673ffffffffffffffffffffffffffffffffffffffff166323b872dd3330846040518463ffffffff1660e01b8152600401610e5093929190612810565b6020604051808303816000875af1158015610e6f573d6000803e3d6000fd5b505050506040513d601f19601f82011682018060405250810190610e939190612873565b610ed2576040517f08c379a0000000000000000000000000000000000000000000000000000000008152600401610ec9906128ec565b60405180910390fd5b8083610ede919061290c565b9250505b6000821115610f4157600082600454610efb91906124a8565b9050803414610f3f576040517f08c379a0000000000000000000000000000000000000000000000000000000008152600401610f369061298c565b60405180910390fd5b505b6000600c60003373ffffffffffffffffffffffffffffffffffffffff1673ffffffffffffffffffffffffffffffffffffffff168152602001908152602001600020600060055481526020019081526020016000209050600081805490500361105a57600180018054905067ffffffffffffffff811115610fc457610fc3611d3d565b5b604051908082528060200260200182016040528015610ff25781602001602082028036833780820191505090505b50600c60003373ffffffffffffffffffffffffffffffffffffffff1673ffffffffffffffffffffffffffffffffffffffff16815260200190815260200160002060006005548152602001908152602001600020908051906020019061105892919061190d565b505b82600c60003373ffffffffffffffffffffffffffffffffffffffff1673ffffffffffffffffffffffffffffffffffffffff1681526020019081526020016000206000600554815260200190815260200160002085815481106110bf576110be61254a565b5b9060005260206000200160008282546110d89190612291565b9250508190555082600d6000600554815260200190815260200160002085815481106111075761110661254a565b5b9060005260206000200160008282546111209190612291565b92505081905550600f60003373ffffffffffffffffffffffffffffffffffffffff1673ffffffffffffffffffffffffffffffffffffffff1681526020019081526020016000206000600554815260200190815260200160002060009054906101000a900460ff1661126d576001600f60003373ffffffffffffffffffffffffffffffffffffffff1673ffffffffffffffffffffffffffffffffffffffff1681526020019081526020016000206000600554815260200190815260200160002060006101000a81548160ff021916908315150217905550600e60006005548152602001908152602001600020339080600181540180825580915050600190039060005260206000200160009091909190916101000a81548173ffffffffffffffffffffffffffffffffffffffff021916908373ffffffffffffffffffffffffffffffffffffffff1602179055505b3373ffffffffffffffffffffffffffffffffffffffff167f2a91574e12ad96234e84923e146b0946ecfb871cd8d5534dc1fdcbe87a7c01b385856040516112b59291906129ac565b60405180910390a250505050565b60008060009054906101000a900473ffffffffffffffffffffffffffffffffffffffff16905090565b60075481565b6000600d600084815260200190815260200160002082815481106113195761131861254a565b5b9060005260206000200154905092915050565b600b60009054906101000a900460ff1681565b600e602052816000526040600020818154811061135b57600080fd5b906000526020600020016000915091509054906101000a900473ffffffffffffffffffffffffffffffffffffffff1681565b6113956117ba565b6000600b60006101000a81548160ff0219169083151502179055507fea6117dad2620a0ca2c1af74b4c6996ccff70e5006afaa8ce2accb12d75db20260405160405180910390a1565b60018060000180546113ef90612a04565b80601f016020809104026020016040519081016040528092919081815260200182805461141b90612a04565b80156114685780601f1061143d57610100808354040283529160200191611468565b820191906000526020600020905b81548152906001019060200180831161144b57829003601f168201915b5050505050908060020160009054906101000a900460ff16905082565b61148d6117ba565b60018251116114d1576040517f08c379a00000000000000000000000000000000000000000000000000000000081526004016114c890612a81565b60405180910390fd5b604051806060016040528084815260200183815260200160011515815250600160008201518160000190816115069190612c43565b50602082015181600101908051906020019061152392919061195a565b5060408201518160020160006101000a81548160ff02191690831515021790555090505080600981905550600d60006005548152602001908152602001600020600061156f91906119b3565b815167ffffffffffffffff81111561158a57611589611d3d565b5b6040519080825280602002602001820160405280156115b85781602001602082028036833780820191505090505b50600d6000600554815260200190815260200160002090805190602001906115e192919061190d565b5060005b600e60006005548152602001908152602001600020805490508110156116ce576000600f6000600e6000600554815260200190815260200160002084815481106116325761163161254a565b5b9060005260206000200160009054906101000a900473ffffffffffffffffffffffffffffffffffffffff1673ffffffffffffffffffffffffffffffffffffffff1673ffffffffffffffffffffffffffffffffffffffff1681526020019081526020016000206000600554815260200190815260200160002060006101000a81548160ff02191690831515021790555080806001019150506115e5565b50600e6000600554815260200190815260200160002060006116f091906119d4565b7f4036cc6724224308f836b7bb5ccafed36cc517aafc64ff68f6d498882ab45efc8383604051611721929190612e21565b60405180910390a1505050565b60065481565b61173c6117ba565b600073ffffffffffffffffffffffffffffffffffffffff168173ffffffffffffffffffffffffffffffffffffffff16036117ae5760006040517f1e4fbdf70000000000000000000000000000000000000000000000000000000081526004016117a59190611f8e565b60405180910390fd5b6117b781611841565b50565b6117c2611905565b73ffffffffffffffffffffffffffffffffffffffff166117e06112c3565b73ffffffffffffffffffffffffffffffffffffffff161461183f57611803611905565b6040517f118cdaa70000000000000000000000000000000000000000000000000000000081526004016118369190611f8e565b60405180910390fd5b565b60008060009054906101000a900473ffffffffffffffffffffffffffffffffffffffff169050816000806101000a81548173ffffffffffffffffffffffffffffffffffffffff021916908373ffffffffffffffffffffffffffffffffffffffff1602179055508173ffffffffffffffffffffffffffffffffffffffff168173ffffffffffffffffffffffffffffffffffffffff167f8be0079c531659141344cd1fd0a4f28419497f9722a3daafe3b4186f6b6457e060405160405180910390a35050565b600033905090565b828054828255906000526020600020908101928215611949579160200282015b8281111561194857825182559160200191906001019061192d565b5b50905061195691906119f5565b5090565b8280548282559060005260206000209081019282156119a2579160200282015b828111156119a15782518290816119919190612c43565b509160200191906001019061197a565b5b5090506119af9190611a12565b5090565b50805460008255906000526020600020908101906119d191906119f5565b50565b50805460008255906000526020600020908101906119f291906119f5565b50565b5b80821115611a0e5760008160009055506001016119f6565b5090565b5b80821115611a325760008181611a299190611a36565b50600101611a13565b5090565b508054611a4290612a04565b6000825580601f10611a545750611a73565b601f016020900490600052602060002090810190611a7291906119f5565b5b50565b6000819050919050565b611a8981611a76565b82525050565b6000602082019050611aa46000830184611a80565b92915050565b6000604051905090565b600080fd5b600080fd5b611ac781611a76565b8114611ad257600080fd5b50565b600081359050611ae481611abe565b92915050565b600060208284031215611b0057611aff611ab4565b5b6000611b0e84828501611ad5565b91505092915050565b600081519050919050565b600082825260208201905092915050565b6000819050602082019050919050565b600073ffffffffffffffffffffffffffffffffffffffff82169050919050565b6000611b6e82611b43565b9050919050565b611b7e81611b63565b82525050565b6000611b908383611b75565b60208301905092915050565b6000602082019050919050565b6000611bb482611b17565b611bbe8185611b22565b9350611bc983611b33565b8060005b83811015611bfa578151611be18882611b84565b9750611bec83611b9c565b925050600181019050611bcd565b5085935050505092915050565b60006020820190508181036000830152611c218184611ba9565b905092915050565b611c3281611b63565b8114611c3d57600080fd5b50565b600081359050611c4f81611c29565b92915050565b600080600060608486031215611c6e57611c6d611ab4565b5b6000611c7c86828701611c40565b9350506020611c8d86828701611ad5565b9250506040611c9e86828701611ad5565b9150509250925092565b6000819050919050565b6000611ccd611cc8611cc384611b43565b611ca8565b611b43565b9050919050565b6000611cdf82611cb2565b9050919050565b6000611cf182611cd4565b9050919050565b611d0181611ce6565b82525050565b6000602082019050611d1c6000830184611cf8565b92915050565b600080fd5b600080fd5b6000601f19601f8301169050919050565b7f4e487b7100000000000000000000000000000000000000000000000000000000600052604160045260246000fd5b611d7582611d2c565b810181811067ffffffffffffffff82111715611d9457611d93611d3d565b5b80604052505050565b6000611da7611aaa565b9050611db38282611d6c565b919050565b600067ffffffffffffffff821115611dd357611dd2611d3d565b5b611ddc82611d2c565b9050602081019050919050565b82818337600083830152505050565b6000611e0b611e0684611db8565b611d9d565b905082815260208101848484011115611e2757611e26611d27565b5b611e32848285611de9565b509392505050565b600082601f830112611e4f57611e4e611d22565b5b8135611e5f848260208601611df8565b91505092915050565b600080600080600060a08688031215611e8457611e83611ab4565b5b6000611e9288828901611ad5565b9550506020611ea388828901611ad5565b9450506040611eb488828901611ad5565b9350506060611ec588828901611ad5565b925050608086013567ffffffffffffffff811115611ee657611ee5611ab9565b5b611ef288828901611e3a565b9150509295509295909350565b60008060408385031215611f1657611f15611ab4565b5b6000611f2485828601611ad5565b9250506020611f3585828601611ad5565b9150509250929050565b60008060408385031215611f5657611f55611ab4565b5b6000611f6485828601611c40565b9250506020611f7585828601611ad5565b9150509250929050565b611f8881611b63565b82525050565b6000602082019050611fa36000830184611f7f565b92915050565b60008115159050919050565b611fbe81611fa9565b82525050565b6000602082019050611fd96000830184611fb5565b92915050565b600081519050919050565b600082825260208201905092915050565b60005b83811015612019578082015181840152602081019050611ffe565b60008484015250505050565b600061203082611fdf565b61203a8185611fea565b935061204a818560208601611ffb565b61205381611d2c565b840191505092915050565b600060408201905081810360008301526120788185612025565b90506120876020830184611fb5565b9392505050565b600067ffffffffffffffff8211156120a9576120a8611d3d565b5b602082029050602081019050919050565b600080fd5b60006120d26120cd8461208e565b611d9d565b905080838252602082019050602084028301858111156120f5576120f46120ba565b5b835b8181101561213c57803567ffffffffffffffff81111561211a57612119611d22565b5b8086016121278982611e3a565b855260208501945050506020810190506120f7565b5050509392505050565b600082601f83011261215b5761215a611d22565b5b813561216b8482602086016120bf565b91505092915050565b6000819050919050565b61218781612174565b811461219257600080fd5b50565b6000813590506121a48161217e565b92915050565b6000806000606084860312156121c3576121c2611ab4565b5b600084013567ffffffffffffffff8111156121e1576121e0611ab9565b5b6121ed86828701611e3a565b935050602084013567ffffffffffffffff81111561220e5761220d611ab9565b5b61221a86828701612146565b925050604061222b86828701612195565b9150509250925092565b60006020828403121561224b5761224a611ab4565b5b600061225984828501611c40565b91505092915050565b7f4e487b7100000000000000000000000000000000000000000000000000000000600052601160045260246000fd5b600061229c82611a76565b91506122a783611a76565b92508282019050808211156122bf576122be612262565b5b92915050565b7f50657263656e7461676573206d757374206e6f7420657863656564203130302560008201527f2e00000000000000000000000000000000000000000000000000000000000000602082015250565b6000612321602183611fea565b915061232c826122c5565b604082019050919050565b6000602082019050818103600083015261235081612314565b9050919050565b7f4e6f207175657374696f6e2073657420746f20656e642074686520726f756e6460008201527f2e00000000000000000000000000000000000000000000000000000000000000602082015250565b60006123b3602183611fea565b91506123be82612357565b604082019050919050565b600060208201905081810360008301526123e2816123a6565b9050919050565b600081905092915050565b60006123ff82611fdf565b61240981856123e9565b9350612419818560208601611ffb565b80840191505092915050565b600061243182846123f4565b915081905092915050565b7f496e636f727265637420616e737765722072657665616c65642e000000000000600082015250565b6000612472601a83611fea565b915061247d8261243c565b602082019050919050565b600060208201905081810360008301526124a181612465565b9050919050565b60006124b382611a76565b91506124be83611a76565b92508282026124cc81611a76565b915082820484148315176124e3576124e2612262565b5b5092915050565b7f4e487b7100000000000000000000000000000000000000000000000000000000600052601260045260246000fd5b600061252482611a76565b915061252f83611a76565b92508261253f5761253e6124ea565b5b828204905092915050565b7f4e487b7100000000000000000000000000000000000000000000000000000000600052603260045260246000fd5b600060608201905061258e6000830186611a80565b61259b6020830185611a80565b6125a86040830184611a80565b949350505050565b60006125bb82611a76565b91507fffffffffffffffffffffffffffffffffffffffffffffffffffffffffffffffff82036125ed576125ec612262565b5b600182019050919050565b7f41207175657374696f6e206d75737420626520736574206265666f726520627560008201527f79696e67207469636b6574732e00000000000000000000000000000000000000602082015250565b6000612654602d83611fea565b915061265f826125f8565b604082019050919050565b6000602082019050818103600083015261268381612647565b9050919050565b7f526f756e64206973207061757365640000000000000000000000000000000000600082015250565b60006126c0600f83611fea565b91506126cb8261268a565b602082019050919050565b600060208201905081810360008301526126ef816126b3565b9050919050565b7f496e76616c696420616e7377657220696e6465782e0000000000000000000000600082015250565b600061272c601583611fea565b9150612737826126f6565b602082019050919050565b6000602082019050818103600083015261275b8161271f565b9050919050565b7f4d75737420627579206174206c65617374206f6e65207469636b65742e000000600082015250565b6000612798601d83611fea565b91506127a382612762565b602082019050919050565b600060208201905081810360008301526127c78161278b565b9050919050565b6000815190506127dd81611abe565b92915050565b6000602082840312156127f9576127f8611ab4565b5b6000612807848285016127ce565b91505092915050565b60006060820190506128256000830186611f7f565b6128326020830185611f7f565b61283f6040830184611a80565b949350505050565b61285081611fa9565b811461285b57600080fd5b50565b60008151905061286d81612847565b92915050565b60006020828403121561288957612888611ab4565b5b60006128978482850161285e565b91505092915050565b7f546f6b656e207472616e73666572206661696c65640000000000000000000000600082015250565b60006128d6601583611fea565b91506128e1826128a0565b602082019050919050565b60006020820190508181036000830152612905816128c9565b9050919050565b600061291782611a76565b915061292283611a76565b925082820390508181111561293a57612939612262565b5b92915050565b7f496e636f7272656374204554482076616c75652073656e742e00000000000000600082015250565b6000612976601983611fea565b915061298182612940565b602082019050919050565b600060208201905081810360008301526129a581612969565b9050919050565b60006040820190506129c16000830185611a80565b6129ce6020830184611a80565b9392505050565b7f4e487b7100000000000000000000000000000000000000000000000000000000600052602260045260246000fd5b60006002820490506001821680612a1c57607f821691505b602082108103612a2f57612a2e6129d5565b5b50919050565b7f4d7573742068617665206174206c656173742074776f206f7074696f6e732e00600082015250565b6000612a6b601f83611fea565b9150612a7682612a35565b602082019050919050565b60006020820190508181036000830152612a9a81612a5e565b9050919050565b60008190508160005260206000209050919050565b60006020601f8301049050919050565b600082821b905092915050565b600060088302612b037fffffffffffffffffffffffffffffffffffffffffffffffffffffffffffffffff82612ac6565b612b0d8683612ac6565b95508019841693508086168417925050509392505050565b6000612b40612b3b612b3684611a76565b611ca8565b611a76565b9050919050565b6000819050919050565b612b5a83612b25565b612b6e612b6682612b47565b848454612ad3565b825550505050565b600090565b612b83612b76565b612b8e818484612b51565b505050565b5b81811015612bb257612ba7600082612b7b565b600181019050612b94565b5050565b601f821115612bf757612bc881612aa1565b612bd184612ab6565b81016020851015612be0578190505b612bf4612bec85612ab6565b830182612b93565b50505b505050565b600082821c905092915050565b6000612c1a60001984600802612bfc565b1980831691505092915050565b6000612c338383612c09565b9150826002028217905092915050565b612c4c82611fdf565b67ffffffffffffffff811115612c6557612c64611d3d565b5b612c6f8254612a04565b612c7a828285612bb6565b600060209050601f831160018114612cad5760008415612c9b578287015190505b612ca58582612c27565b865550612d0d565b601f198416612cbb86612aa1565b60005b82811015612ce357848901518255600182019150602085019450602081019050612cbe565b86831015612d005784890151612cfc601f891682612c09565b8355505b6001600288020188555050505b505050505050565b600081519050919050565b600082825260208201905092915050565b6000819050602082019050919050565b600082825260208201905092915050565b6000612d5d82611fdf565b612d678185612d41565b9350612d77818560208601611ffb565b612d8081611d2c565b840191505092915050565b6000612d978383612d52565b905092915050565b6000602082019050919050565b6000612db782612d15565b612dc18185612d20565b935083602082028501612dd385612d31565b8060005b85811015612e0f5784840389528151612df08582612d8b565b9450612dfb83612d9f565b925060208a01995050600181019050612dd7565b50829750879550505050505092915050565b60006040820190508181036000830152612e3b8185612025565b90508181036020830152612e4f8184612dac565b9050939250505056fea2646970667358221220ee6116be48d0ca13330f5348dfef1134f06a8c856d9c097c47b914d6738441b764736f6c634300081c0033",
  "linkReferences": {},
  "deployedLinkReferences": {}
}