{
  "_format": "hh-sol-artifact-1",
  "contractName": "DungeonCrawler",
  "sourceName": "contracts/dungeon_crawler.sol",
  "abi": [
    {
      "inputs": [
        {
          "internalType": "address",
          "name": "_freeTicketToken",
          "type": "address"
        }
      ],
      "stateMutability": "nonpayable",
      "type": "constructor"
    },
    {
      "inputs": [
        {
          "internalType": "address",
          "name": "owner",
          "type": "address"
        }
      ],
      "name": "OwnableInvalidOwner",
      "type": "error"
    },
    {
      "inputs": [
        {
          "internalType": "address",
          "name": "account",
          "type": "address"
        }
      ],
      "name": "OwnableUnauthorizedAccount",
      "type": "error"
    },
    {
      "anonymous": false,
      "inputs": [
        {
          "indexed": false,
          "internalType": "address",
          "name": "newAddress",
          "type": "address"
        }
      ],
      "name": "FreeTicketTokenUpdated",
      "type": "event"
    },
    {
      "anonymous": false,
      "inputs": [
        {
          "indexed": false,
          "internalType": "uint256",
          "name": "burned",
          "type": "uint256"
        },
        {
          "indexed": false,
          "internalType": "uint256",
          "name": "ownerFees",
          "type": "uint256"
        },
        {
          "indexed": false,
          "internalType": "uint256",
          "name": "prizePool",
          "type": "uint256"
        }
      ],
      "name": "FundsDistributed",
      "type": "event"
    },
    {
      "anonymous": false,
      "inputs": [
        {
          "indexed": true,
          "internalType": "address",
          "name": "previousOwner",
          "type": "address"
        },
        {
          "indexed": true,
          "internalType": "address",
          "name": "newOwner",
          "type": "address"
        }
      ],
      "name": "OwnershipTransferred",
      "type": "event"
    },
    {
      "anonymous": false,
      "inputs": [
        {
          "indexed": false,
          "internalType": "string",
          "name": "text",
          "type": "string"
        },
        {
          "indexed": false,
          "internalType": "string[]",
          "name": "options",
          "type": "string[]"
        }
      ],
      "name": "QuestionSet",
      "type": "event"
    },
    {
      "anonymous": false,
      "inputs": [
        {
          "indexed": false,
          "internalType": "uint256",
          "name": "winningOption",
          "type": "uint256"
        }
      ],
      "name": "RoundEnded",
      "type": "event"
    },
    {
      "anonymous": false,
      "inputs": [],
      "name": "RoundPaused",
      "type": "event"
    },
    {
      "anonymous": false,
      "inputs": [],
      "name": "RoundResumed",
      "type": "event"
    },
    {
      "anonymous": false,
      "inputs": [
        {
          "indexed": true,
          "internalType": "address",
          "name": "buyer",
          "type": "address"
        },
        {
          "indexed": false,
          "internalType": "uint256",
          "name": "answerIndex",
          "type": "uint256"
        },
        {
          "indexed": false,
          "internalType": "uint256",
          "name": "numTickets",
          "type": "uint256"
        }
      ],
      "name": "TicketPurchased",
      "type": "event"
    },
    {
      "inputs": [
        {
          "internalType": "uint256",
          "name": "",
          "type": "uint256"
        },
        {
          "internalType": "uint256",
          "name": "",
          "type": "uint256"
        }
      ],
      "name": "allTicketHoldersPerRound",
      "outputs": [
        {
          "internalType": "address",
          "name": "",
          "type": "address"
        }
      ],
      "stateMutability": "view",
      "type": "function"
    },
    {
      "inputs": [],
      "name": "burnPercentage",
      "outputs": [
        {
          "internalType": "uint256",
          "name": "",
          "type": "uint256"
        }
      ],
      "stateMutability": "view",
      "type": "function"
    },
    {
      "inputs": [
        {
          "internalType": "uint256",
          "name": "answerIndex",
          "type": "uint256"
        },
        {
          "internalType": "uint256",
          "name": "numTickets",
          "type": "uint256"
        }
      ],
      "name": "buyTickets",
      "outputs": [],
      "stateMutability": "payable",
      "type": "function"
    },
    {
      "inputs": [],
      "name": "currentQuestion",
      "outputs": [
        {
          "internalType": "string",
          "name": "text",
          "type": "string"
        },
        {
          "internalType": "bool",
          "name": "isSet",
          "type": "bool"
        }
      ],
      "stateMutability": "view",
      "type": "function"
    },
    {
      "inputs": [
        {
          "internalType": "uint256",
          "name": "_burnPercentage",
          "type": "uint256"
        },
        {
          "internalType": "uint256",
          "name": "_feePercentage",
          "type": "uint256"
        },
        {
          "internalType": "uint256",
          "name": "_prizePercentage",
          "type": "uint256"
        },
        {
          "internalType": "uint256",
          "name": "_correctAnswerIndex",
          "type": "uint256"
        },
        {
          "internalType": "string",
          "name": "_correctAnswer",
          "type": "string"
        }
      ],
      "name": "endRound",
      "outputs": [],
      "stateMutability": "nonpayable",
      "type": "function"
    },
    {
      "inputs": [],
      "name": "feePercentage",
      "outputs": [
        {
          "internalType": "uint256",
          "name": "",
          "type": "uint256"
        }
      ],
      "stateMutability": "view",
      "type": "function"
    },
    {
      "inputs": [],
      "name": "freeTicketToken",
      "outputs": [
        {
          "internalType": "contract IERC20",
          "name": "",
          "type": "address"
        }
      ],
      "stateMutability": "view",
      "type": "function"
    },
    {
      "inputs": [
        {
          "internalType": "uint256",
          "name": "roundNumber",
          "type": "uint256"
        }
      ],
      "name": "getAllTicketHolders",
      "outputs": [
        {
          "internalType": "address[]",
          "name": "",
          "type": "address[]"
        }
      ],
      "stateMutability": "view",
      "type": "function"
    },
    {
      "inputs": [
        {
          "internalType": "uint256",
          "name": "roundNumber",
          "type": "uint256"
        }
      ],
      "name": "getRoundParticipants",
      "outputs": [
        {
          "internalType": "address[]",
          "name": "participants",
          "type": "address[]"
        },
        {
          "internalType": "uint256[][]",
          "name": "ticketsPerParticipant",
          "type": "uint256[][]"
        }
      ],
      "stateMutability": "view",
      "type": "function"
    },
    {
      "inputs": [
        {
          "internalType": "address",
          "name": "user",
          "type": "address"
        },
        {
          "internalType": "uint256",
          "name": "answerIndex",
          "type": "uint256"
        }
      ],
      "name": "getTicketCount",
      "outputs": [
        {
          "internalType": "uint256",
          "name": "",
          "type": "uint256"
        }
      ],
      "stateMutability": "view",
      "type": "function"
    },
    {
      "inputs": [],
      "name": "getTotalRounds",
      "outputs": [
        {
          "internalType": "uint256",
          "name": "",
          "type": "uint256"
        }
      ],
      "stateMutability": "view",
      "type": "function"
    },
    {
      "inputs": [
        {
          "internalType": "uint256",
          "name": "roundNumber",
          "type": "uint256"
        },
        {
          "internalType": "uint256",
          "name": "answerIndex",
          "type": "uint256"
        }
      ],
      "name": "getTotalTicketsPerAnswer",
      "outputs": [
        {
          "internalType": "uint256",
          "name": "",
          "type": "uint256"
        }
      ],
      "stateMutability": "view",
      "type": "function"
    },
    {
      "inputs": [],
      "name": "isPaused",
      "outputs": [
        {
          "internalType": "bool",
          "name": "",
          "type": "bool"
        }
      ],
      "stateMutability": "view",
      "type": "function"
    },
    {
      "inputs": [],
      "name": "owner",
      "outputs": [
        {
          "internalType": "address",
          "name": "",
          "type": "address"
        }
      ],
      "stateMutability": "view",
      "type": "function"
    },
    {
      "inputs": [],
      "name": "pauseRound",
      "outputs": [],
      "stateMutability": "nonpayable",
      "type": "function"
    },
    {
      "inputs": [],
      "name": "prizePercentage",
      "outputs": [
        {
          "internalType": "uint256",
          "name": "",
          "type": "uint256"
        }
      ],
      "stateMutability": "view",
      "type": "function"
    },
    {
      "inputs": [],
      "name": "renounceOwnership",
      "outputs": [],
      "stateMutability": "nonpayable",
      "type": "function"
    },
    {
      "inputs": [],
      "name": "resumeRound",
      "outputs": [],
      "stateMutability": "nonpayable",
      "type": "function"
    },
    {
      "inputs": [],
      "name": "round",
      "outputs": [
        {
          "internalType": "uint256",
          "name": "",
          "type": "uint256"
        }
      ],
      "stateMutability": "view",
      "type": "function"
    },
    {
      "inputs": [
        {
          "internalType": "string",
          "name": "_text",
          "type": "string"
        },
        {
          "internalType": "string[]",
          "name": "_options",
          "type": "string[]"
        },
        {
          "internalType": "bytes32",
          "name": "_correctAnswerHash",
          "type": "bytes32"
        }
      ],
      "name": "setQuestion",
      "outputs": [],
      "stateMutability": "nonpayable",
      "type": "function"
    },
    {
      "inputs": [
        {
          "internalType": "uint256",
          "name": "_ticketPrice",
          "type": "uint256"
        }
      ],
      "name": "setTicketPrice",
      "outputs": [],
      "stateMutability": "nonpayable",
      "type": "function"
    },
    {
      "inputs": [],
      "name": "ticketPrice",
      "outputs": [
        {
          "internalType": "uint256",
          "name": "",
          "type": "uint256"
        }
      ],
      "stateMutability": "view",
      "type": "function"
    },
    {
      "inputs": [
        {
          "internalType": "address",
          "name": "",
          "type": "address"
        },
        {
          "internalType": "uint256",
          "name": "",
          "type": "uint256"
        },
        {
          "internalType": "uint256",
          "name": "",
          "type": "uint256"
        }
      ],
      "name": "tickets",
      "outputs": [
        {
          "internalType": "uint256",
          "name": "",
          "type": "uint256"
        }
      ],
      "stateMutability": "view",
      "type": "function"
    },
    {
      "inputs": [
        {
          "internalType": "uint256",
          "name": "",
          "type": "uint256"
        },
        {
          "internalType": "uint256",
          "name": "",
          "type": "uint256"
        }
      ],
      "name": "totalTicketsPerAnswer",
      "outputs": [
        {
          "internalType": "uint256",
          "name": "",
          "type": "uint256"
        }
      ],
      "stateMutability": "view",
      "type": "function"
    },
    {
      "inputs": [
        {
          "internalType": "address",
          "name": "newOwner",
          "type": "address"
        }
      ],
      "name": "transferOwnership",
      "outputs": [],
      "stateMutability": "nonpayable",
      "type": "function"
    },
    {
      "inputs": [
        {
          "internalType": "address",
          "name": "newTokenAddress",
          "type": "address"
        }
      ],
      "name": "updateFTTInfo",
      "outputs": [],
      "stateMutability": "nonpayable",
      "type": "function"
    }
  ],
  "bytecode": "0x60806040526509184e72a00060045560006005556000600b60006101000a81548160ff02191690831515021790555034801561003a57600080fd5b506040516137df3803806137df833981810160405281019061005c9190610267565b33600073ffffffffffffffffffffffffffffffffffffffff168173ffffffffffffffffffffffffffffffffffffffff16036100cf5760006040517f1e4fbdf70000000000000000000000000000000000000000000000000000000081526004016100c691906102a3565b60405180910390fd5b6100de8161014060201b60201c565b5080600b60016101000a81548173ffffffffffffffffffffffffffffffffffffffff021916908373ffffffffffffffffffffffffffffffffffffffff1602179055506103846006819055506064600781905550612328600881905550506102be565b60008060009054906101000a900473ffffffffffffffffffffffffffffffffffffffff169050816000806101000a81548173ffffffffffffffffffffffffffffffffffffffff021916908373ffffffffffffffffffffffffffffffffffffffff1602179055508173ffffffffffffffffffffffffffffffffffffffff168173ffffffffffffffffffffffffffffffffffffffff167f8be0079c531659141344cd1fd0a4f28419497f9722a3daafe3b4186f6b6457e060405160405180910390a35050565b600080fd5b600073ffffffffffffffffffffffffffffffffffffffff82169050919050565b600061023482610209565b9050919050565b61024481610229565b811461024f57600080fd5b50565b6000815190506102618161023b565b92915050565b60006020828403121561027d5761027c610204565b5b600061028b84828501610252565b91505092915050565b61029d81610229565b82525050565b60006020820190506102b86000830184610294565b92915050565b613512806102cd6000396000f3fe6080604052600436106101815760003560e01c8063715018a6116100d1578063b187bd261161008a578063e7dea02211610064578063e7dea02214610566578063ec30a46914610592578063f01f20df146105bb578063f2fde38b146105e657610181565b8063b187bd26146104e7578063c0d1026514610512578063c10401a21461054f57610181565b8063715018a6146103e45780637393d9b5146103fb5780638627df46146104385780638da5cb5b14610454578063a001ecdd1461047f578063a5763c82146104aa57610181565b80631ad1ec221161013e57806337305df51161011857806337305df5146103175780636cb6cfb3146103555780636ed7f4041461037e57806370f47825146103a757610181565b80631ad1ec22146102845780632115f4d1146102af57806332fe67d8146102ec57610181565b806311dc7335146101865780631209b1f6146101b1578063146ca531146101dc578063156f58af14610207578063159816501461021e5780631a3d3ff314610247575b600080fd5b34801561019257600080fd5b5061019b61060f565b6040516101a89190611eca565b60405180910390f35b3480156101bd57600080fd5b506101c6610615565b6040516101d39190611eca565b60405180910390f35b3480156101e857600080fd5b506101f161061b565b6040516101fe9190611eca565b60405180910390f35b34801561021357600080fd5b5061021c610621565b005b34801561022a57600080fd5b5061024560048036038101906102409190611f25565b610672565b005b34801561025357600080fd5b5061026e60048036038101906102699190611f25565b610684565b60405161027b9190612042565b60405180910390f35b34801561029057600080fd5b50610299610725565b6040516102a69190611eca565b60405180910390f35b3480156102bb57600080fd5b506102d660048036038101906102d19190612090565b61072f565b6040516102e39190611eca565b60405180910390f35b3480156102f857600080fd5b5061030161076d565b60405161030e9190612142565b60405180910390f35b34801561032357600080fd5b5061033e60048036038101906103399190611f25565b610793565b60405161034c9291906122dd565b60405180910390f35b34801561036157600080fd5b5061037c6004803603810190610377919061245a565b61097c565b005b34801561038a57600080fd5b506103a560048036038101906103a091906124f1565b610e0e565b005b3480156103b357600080fd5b506103ce60048036038101906103c9919061251e565b610e91565b6040516103db9190611eca565b60405180910390f35b3480156103f057600080fd5b506103f9610ec2565b005b34801561040757600080fd5b50610422600480360381019061041d919061255e565b610ed6565b60405161042f9190611eca565b60405180910390f35b610452600480360381019061044d919061251e565b610fb4565b005b34801561046057600080fd5b506104696116fe565b60405161047691906125ad565b60405180910390f35b34801561048b57600080fd5b50610494611727565b6040516104a19190611eca565b60405180910390f35b3480156104b657600080fd5b506104d160048036038101906104cc919061251e565b61172d565b6040516104de9190611eca565b60405180910390f35b3480156104f357600080fd5b506104fc611767565b60405161050991906125e3565b60405180910390f35b34801561051e57600080fd5b506105396004803603810190610534919061251e565b61177a565b60405161054691906125ad565b60405180910390f35b34801561055b57600080fd5b506105646117c8565b005b34801561057257600080fd5b5061057b611819565b60405161058992919061267d565b60405180910390f35b34801561059e57600080fd5b506105b960048036038101906105b491906127c9565b6118c0565b005b3480156105c757600080fd5b506105d0611b69565b6040516105dd9190611eca565b60405180910390f35b3480156105f257600080fd5b5061060d600480360381019061060891906124f1565b611b6f565b005b60085481565b60045481565b60055481565b610629611bf5565b6001600b60006101000a81548160ff0219169083151502179055507f7f7c10f994bb0e711623b04af12db1d10f5412a0ffacbcc59fa493c9cbb2236d60405160405180910390a1565b61067a611bf5565b8060048190555050565b6060600e600083815260200190815260200160002080548060200260200160405190810160405280929190818152602001828054801561071957602002820191906000526020600020905b8160009054906101000a900473ffffffffffffffffffffffffffffffffffffffff1673ffffffffffffffffffffffffffffffffffffffff16815260200190600101908083116106cf575b50505050509050919050565b6000600554905090565b600c602052826000526040600020602052816000526040600020818154811061075757600080fd5b9060005260206000200160009250925050505481565b600b60019054906101000a900473ffffffffffffffffffffffffffffffffffffffff1681565b606080600e600084815260200190815260200160002080548060200260200160405190810160405280929190818152602001828054801561082957602002820191906000526020600020905b8160009054906101000a900473ffffffffffffffffffffffffffffffffffffffff1673ffffffffffffffffffffffffffffffffffffffff16815260200190600101908083116107df575b505050505091506000825190508067ffffffffffffffff8111156108505761084f61232f565b5b60405190808252806020026020018201604052801561088357816020015b606081526020019060019003908161086e5790505b50915060005b8181101561097557600c60008583815181106108a8576108a7612854565b5b602002602001015173ffffffffffffffffffffffffffffffffffffffff1673ffffffffffffffffffffffffffffffffffffffff168152602001908152602001600020600086815260200190815260200160002080548060200260200160405190810160405280929190818152602001828054801561094557602002820191906000526020600020905b815481526020019060010190808311610931575b505050505083828151811061095d5761095c612854565b5b60200260200101819052508080600101915050610889565b5050915091565b610984611bf5565b84848461271081838561099791906128b2565b6109a191906128b2565b11156109e2576040517f08c379a00000000000000000000000000000000000000000000000000000000081526004016109d990612958565b60405180910390fd5b600160020160009054906101000a900460ff16610a34576040517f08c379a0000000000000000000000000000000000000000000000000000000008152600401610a2b906129ea565b60405180910390fd5b60095484604051602001610a489190612a46565b6040516020818303038152906040528051906020012014610a9e576040517f08c379a0000000000000000000000000000000000000000000000000000000008152600401610a9590612aa9565b60405180910390fd5b87600681905550866007819055508560088190555084600a819055506000479050600061271060065483610ad29190612ac9565b610adc9190612b3a565b9050600061271060075484610af19190612ac9565b610afb9190612b3a565b9050600061271060085485610b109190612ac9565b610b1a9190612b3a565b9050600073ffffffffffffffffffffffffffffffffffffffff166108fc849081150290604051600060405180830381858888f19350505050158015610b63573d6000803e3d6000fd5b50610b6c6116fe565b73ffffffffffffffffffffffffffffffffffffffff166108fc839081150290604051600060405180830381858888f19350505050158015610bb1573d6000803e3d6000fd5b506000600d60006005548152602001908152602001600020600a5481548110610bdd57610bdc612854565b5b9060005260206000200154905060005b600e6000600554815260200190815260200160002080549050811015610d54576000600e600060055481526020019081526020016000208281548110610c3657610c35612854565b5b9060005260206000200160009054906101000a900473ffffffffffffffffffffffffffffffffffffffff1690506000600c60008373ffffffffffffffffffffffffffffffffffffffff1673ffffffffffffffffffffffffffffffffffffffff16815260200190815260200160002060006005548152602001908152602001600020600a5481548110610ccb57610cca612854565b5b906000526020600020015490506000811115610d45576000848287610cf09190612ac9565b610cfa9190612b3a565b90508273ffffffffffffffffffffffffffffffffffffffff166108fc829081150290604051600060405180830381858888f19350505050158015610d42573d6000803e3d6000fd5b50505b50508080600101915050610bed565b507fdaf6233a382145376035341e71f8a04305f7e323d0fe3e58c908cf0a26b76df9848484604051610d8893929190612b6b565b60405180910390a17faa97d4a7b3afec5f55c25ca8593dde6929d4455fad650a16fa4334004293a618600a54604051610dc19190611eca565b60405180910390a16000600160020160006101000a81548160ff02191690831515021790555060056000815480929190610dfa90612ba2565b919050555050505050505050505050505050565b610e16611bf5565b80600b60016101000a81548173ffffffffffffffffffffffffffffffffffffffff021916908373ffffffffffffffffffffffffffffffffffffffff1602179055507f2cff585e331b1ab0314cd7aadeaca561a4e233bbc07b685cff189be57e929bac81604051610e8691906125ad565b60405180910390a150565b600d6020528160005260406000208181548110610ead57600080fd5b90600052602060002001600091509150505481565b610eca611bf5565b610ed46000611c7c565b565b600080600c60008573ffffffffffffffffffffffffffffffffffffffff1673ffffffffffffffffffffffffffffffffffffffff16815260200190815260200160002060006005548152602001908152602001600020805480602002602001604051908101604052809291908181526020018280548015610f7557602002820191906000526020600020905b815481526020019060010190808311610f61575b505050505090506000815103610f8f576000915050610fae565b808381518110610fa257610fa1612854565b5b60200260200101519150505b92915050565b600160020160009054906101000a900460ff16611006576040517f08c379a0000000000000000000000000000000000000000000000000000000008152600401610ffd90612c5c565b60405180910390fd5b600b60009054906101000a900460ff1615611056576040517f08c379a000000000000000000000000000000000000000000000000000000000815260040161104d90612cc8565b60405180910390fd5b6001800180549050821061109f576040517f08c379a000000000000000000000000000000000000000000000000000000000815260040161109690612d34565b60405180910390fd5b600081116110e2576040517f08c379a00000000000000000000000000000000000000000000000000000000081526004016110d990612da0565b60405180910390fd5b6000670de0b6b3a76400009050600081836110fd9190612ac9565b90506000600b60019054906101000a900473ffffffffffffffffffffffffffffffffffffffff1673ffffffffffffffffffffffffffffffffffffffff166370a08231336040518263ffffffff1660e01b815260040161115c91906125ad565b602060405180830381865afa158015611179573d6000803e3d6000fd5b505050506040513d601f19601f8201168201806040525081019061119d9190612dd5565b9050600083826111ad9190612b3a565b905060008086905060008311156112d0578683106111d157849150600090506111ee565b85836111dd9190612ac9565b915082876111eb9190612e02565b90505b600b60019054906101000a900473ffffffffffffffffffffffffffffffffffffffff1673ffffffffffffffffffffffffffffffffffffffff166323b872dd3330856040518463ffffffff1660e01b815260040161124d93929190612e36565b6020604051808303816000875af115801561126c573d6000803e3d6000fd5b505050506040513d601f19601f820116820180604052508101906112909190612e99565b6112cf576040517f08c379a00000000000000000000000000000000000000000000000000000000081526004016112c690612f12565b60405180910390fd5b5b6000811115611333576000816004546112e99190612ac9565b905080341461132d576040517f08c379a000000000000000000000000000000000000000000000000000000000815260040161132490612f7e565b60405180910390fd5b50611377565b60003414611376576040517f08c379a000000000000000000000000000000000000000000000000000000000815260040161136d90613010565b60405180910390fd5b5b6000600c60003373ffffffffffffffffffffffffffffffffffffffff1673ffffffffffffffffffffffffffffffffffffffff168152602001908152602001600020600060055481526020019081526020016000209050600081805490500361149057600180018054905067ffffffffffffffff8111156113fa576113f961232f565b5b6040519080825280602002602001820160405280156114285781602001602082028036833780820191505090505b50600c60003373ffffffffffffffffffffffffffffffffffffffff1673ffffffffffffffffffffffffffffffffffffffff16815260200190815260200160002060006005548152602001908152602001600020908051906020019061148e929190611d48565b505b87600c60003373ffffffffffffffffffffffffffffffffffffffff1673ffffffffffffffffffffffffffffffffffffffff168152602001908152602001600020600060055481526020019081526020016000208a815481106114f5576114f4612854565b5b90600052602060002001600082825461150e91906128b2565b9250508190555087600d600060055481526020019081526020016000208a8154811061153d5761153c612854565b5b90600052602060002001600082825461155691906128b2565b92505081905550600f60003373ffffffffffffffffffffffffffffffffffffffff1673ffffffffffffffffffffffffffffffffffffffff1681526020019081526020016000206000600554815260200190815260200160002060009054906101000a900460ff166116a3576001600f60003373ffffffffffffffffffffffffffffffffffffffff1673ffffffffffffffffffffffffffffffffffffffff1681526020019081526020016000206000600554815260200190815260200160002060006101000a81548160ff021916908315150217905550600e60006005548152602001908152602001600020339080600181540180825580915050600190039060005260206000200160009091909190916101000a81548173ffffffffffffffffffffffffffffffffffffffff021916908373ffffffffffffffffffffffffffffffffffffffff1602179055505b3373ffffffffffffffffffffffffffffffffffffffff167f2a91574e12ad96234e84923e146b0946ecfb871cd8d5534dc1fdcbe87a7c01b38a8a6040516116eb929190613030565b60405180910390a2505050505050505050565b60008060009054906101000a900473ffffffffffffffffffffffffffffffffffffffff16905090565b60075481565b6000600d6000848152602001908152602001600020828154811061175457611753612854565b5b9060005260206000200154905092915050565b600b60009054906101000a900460ff1681565b600e602052816000526040600020818154811061179657600080fd5b906000526020600020016000915091509054906101000a900473ffffffffffffffffffffffffffffffffffffffff1681565b6117d0611bf5565b6000600b60006101000a81548160ff0219169083151502179055507fea6117dad2620a0ca2c1af74b4c6996ccff70e5006afaa8ce2accb12d75db20260405160405180910390a1565b600180600001805461182a90613088565b80601f016020809104026020016040519081016040528092919081815260200182805461185690613088565b80156118a35780601f10611878576101008083540402835291602001916118a3565b820191906000526020600020905b81548152906001019060200180831161188657829003601f168201915b5050505050908060020160009054906101000a900460ff16905082565b6118c8611bf5565b600182511161190c576040517f08c379a000000000000000000000000000000000000000000000000000000000815260040161190390613105565b60405180910390fd5b6040518060600160405280848152602001838152602001600115158152506001600082015181600001908161194191906132c7565b50602082015181600101908051906020019061195e929190611d95565b5060408201518160020160006101000a81548160ff02191690831515021790555090505080600981905550600d6000600554815260200190815260200160002060006119aa9190611dee565b815167ffffffffffffffff8111156119c5576119c461232f565b5b6040519080825280602002602001820160405280156119f35781602001602082028036833780820191505090505b50600d600060055481526020019081526020016000209080519060200190611a1c929190611d48565b5060005b600e6000600554815260200190815260200160002080549050811015611b09576000600f6000600e600060055481526020019081526020016000208481548110611a6d57611a6c612854565b5b9060005260206000200160009054906101000a900473ffffffffffffffffffffffffffffffffffffffff1673ffffffffffffffffffffffffffffffffffffffff1673ffffffffffffffffffffffffffffffffffffffff1681526020019081526020016000206000600554815260200190815260200160002060006101000a81548160ff0219169083151502179055508080600101915050611a20565b50600e600060055481526020019081526020016000206000611b2b9190611e0f565b7f4036cc6724224308f836b7bb5ccafed36cc517aafc64ff68f6d498882ab45efc8383604051611b5c9291906134a5565b60405180910390a1505050565b60065481565b611b77611bf5565b600073ffffffffffffffffffffffffffffffffffffffff168173ffffffffffffffffffffffffffffffffffffffff1603611be95760006040517f1e4fbdf7000000000000000000000000000000000000000000000000000000008152600401611be091906125ad565b60405180910390fd5b611bf281611c7c565b50565b611bfd611d40565b73ffffffffffffffffffffffffffffffffffffffff16611c1b6116fe565b73ffffffffffffffffffffffffffffffffffffffff1614611c7a57611c3e611d40565b6040517f118cdaa7000000000000000000000000000000000000000000000000000000008152600401611c7191906125ad565b60405180910390fd5b565b60008060009054906101000a900473ffffffffffffffffffffffffffffffffffffffff169050816000806101000a81548173ffffffffffffffffffffffffffffffffffffffff021916908373ffffffffffffffffffffffffffffffffffffffff1602179055508173ffffffffffffffffffffffffffffffffffffffff168173ffffffffffffffffffffffffffffffffffffffff167f8be0079c531659141344cd1fd0a4f28419497f9722a3daafe3b4186f6b6457e060405160405180910390a35050565b600033905090565b828054828255906000526020600020908101928215611d84579160200282015b82811115611d83578251825591602001919060010190611d68565b5b509050611d919190611e30565b5090565b828054828255906000526020600020908101928215611ddd579160200282015b82811115611ddc578251829081611dcc91906132c7565b5091602001919060010190611db5565b5b509050611dea9190611e4d565b5090565b5080546000825590600052602060002090810190611e0c9190611e30565b50565b5080546000825590600052602060002090810190611e2d9190611e30565b50565b5b80821115611e49576000816000905550600101611e31565b5090565b5b80821115611e6d5760008181611e649190611e71565b50600101611e4e565b5090565b508054611e7d90613088565b6000825580601f10611e8f5750611eae565b601f016020900490600052602060002090810190611ead9190611e30565b5b50565b6000819050919050565b611ec481611eb1565b82525050565b6000602082019050611edf6000830184611ebb565b92915050565b6000604051905090565b600080fd5b600080fd5b611f0281611eb1565b8114611f0d57600080fd5b50565b600081359050611f1f81611ef9565b92915050565b600060208284031215611f3b57611f3a611eef565b5b6000611f4984828501611f10565b91505092915050565b600081519050919050565b600082825260208201905092915050565b6000819050602082019050919050565b600073ffffffffffffffffffffffffffffffffffffffff82169050919050565b6000611fa982611f7e565b9050919050565b611fb981611f9e565b82525050565b6000611fcb8383611fb0565b60208301905092915050565b6000602082019050919050565b6000611fef82611f52565b611ff98185611f5d565b935061200483611f6e565b8060005b8381101561203557815161201c8882611fbf565b975061202783611fd7565b925050600181019050612008565b5085935050505092915050565b6000602082019050818103600083015261205c8184611fe4565b905092915050565b61206d81611f9e565b811461207857600080fd5b50565b60008135905061208a81612064565b92915050565b6000806000606084860312156120a9576120a8611eef565b5b60006120b78682870161207b565b93505060206120c886828701611f10565b92505060406120d986828701611f10565b9150509250925092565b6000819050919050565b60006121086121036120fe84611f7e565b6120e3565b611f7e565b9050919050565b600061211a826120ed565b9050919050565b600061212c8261210f565b9050919050565b61213c81612121565b82525050565b60006020820190506121576000830184612133565b92915050565b600081519050919050565b600082825260208201905092915050565b6000819050602082019050919050565b600081519050919050565b600082825260208201905092915050565b6000819050602082019050919050565b6121be81611eb1565b82525050565b60006121d083836121b5565b60208301905092915050565b6000602082019050919050565b60006121f482612189565b6121fe8185612194565b9350612209836121a5565b8060005b8381101561223a57815161222188826121c4565b975061222c836121dc565b92505060018101905061220d565b5085935050505092915050565b600061225383836121e9565b905092915050565b6000602082019050919050565b60006122738261215d565b61227d8185612168565b93508360208202850161228f85612179565b8060005b858110156122cb57848403895281516122ac8582612247565b94506122b78361225b565b925060208a01995050600181019050612293565b50829750879550505050505092915050565b600060408201905081810360008301526122f78185611fe4565b9050818103602083015261230b8184612268565b90509392505050565b600080fd5b600080fd5b6000601f19601f8301169050919050565b7f4e487b7100000000000000000000000000000000000000000000000000000000600052604160045260246000fd5b6123678261231e565b810181811067ffffffffffffffff821117156123865761238561232f565b5b80604052505050565b6000612399611ee5565b90506123a5828261235e565b919050565b600067ffffffffffffffff8211156123c5576123c461232f565b5b6123ce8261231e565b9050602081019050919050565b82818337600083830152505050565b60006123fd6123f8846123aa565b61238f565b90508281526020810184848401111561241957612418612319565b5b6124248482856123db565b509392505050565b600082601f83011261244157612440612314565b5b81356124518482602086016123ea565b91505092915050565b600080600080600060a0868803121561247657612475611eef565b5b600061248488828901611f10565b955050602061249588828901611f10565b94505060406124a688828901611f10565b93505060606124b788828901611f10565b925050608086013567ffffffffffffffff8111156124d8576124d7611ef4565b5b6124e48882890161242c565b9150509295509295909350565b60006020828403121561250757612506611eef565b5b60006125158482850161207b565b91505092915050565b6000806040838503121561253557612534611eef565b5b600061254385828601611f10565b925050602061255485828601611f10565b9150509250929050565b6000806040838503121561257557612574611eef565b5b60006125838582860161207b565b925050602061259485828601611f10565b9150509250929050565b6125a781611f9e565b82525050565b60006020820190506125c2600083018461259e565b92915050565b60008115159050919050565b6125dd816125c8565b82525050565b60006020820190506125f860008301846125d4565b92915050565b600081519050919050565b600082825260208201905092915050565b60005b8381101561263857808201518184015260208101905061261d565b60008484015250505050565b600061264f826125fe565b6126598185612609565b935061266981856020860161261a565b6126728161231e565b840191505092915050565b600060408201905081810360008301526126978185612644565b90506126a660208301846125d4565b9392505050565b600067ffffffffffffffff8211156126c8576126c761232f565b5b602082029050602081019050919050565b600080fd5b60006126f16126ec846126ad565b61238f565b90508083825260208201905060208402830185811115612714576127136126d9565b5b835b8181101561275b57803567ffffffffffffffff81111561273957612738612314565b5b808601612746898261242c565b85526020850194505050602081019050612716565b5050509392505050565b600082601f83011261277a57612779612314565b5b813561278a8482602086016126de565b91505092915050565b6000819050919050565b6127a681612793565b81146127b157600080fd5b50565b6000813590506127c38161279d565b92915050565b6000806000606084860312156127e2576127e1611eef565b5b600084013567ffffffffffffffff811115612800576127ff611ef4565b5b61280c8682870161242c565b935050602084013567ffffffffffffffff81111561282d5761282c611ef4565b5b61283986828701612765565b925050604061284a868287016127b4565b9150509250925092565b7f4e487b7100000000000000000000000000000000000000000000000000000000600052603260045260246000fd5b7f4e487b7100000000000000000000000000000000000000000000000000000000600052601160045260246000fd5b60006128bd82611eb1565b91506128c883611eb1565b92508282019050808211156128e0576128df612883565b5b92915050565b7f50657263656e7461676573206d757374206e6f7420657863656564203130302560008201527f2e00000000000000000000000000000000000000000000000000000000000000602082015250565b6000612942602183612609565b915061294d826128e6565b604082019050919050565b6000602082019050818103600083015261297181612935565b9050919050565b7f4e6f207175657374696f6e2073657420746f20656e642074686520726f756e6460008201527f2e00000000000000000000000000000000000000000000000000000000000000602082015250565b60006129d4602183612609565b91506129df82612978565b604082019050919050565b60006020820190508181036000830152612a03816129c7565b9050919050565b600081905092915050565b6000612a20826125fe565b612a2a8185612a0a565b9350612a3a81856020860161261a565b80840191505092915050565b6000612a528284612a15565b915081905092915050565b7f496e636f727265637420616e737765722072657665616c65642e000000000000600082015250565b6000612a93601a83612609565b9150612a9e82612a5d565b602082019050919050565b60006020820190508181036000830152612ac281612a86565b9050919050565b6000612ad482611eb1565b9150612adf83611eb1565b9250828202612aed81611eb1565b91508282048414831517612b0457612b03612883565b5b5092915050565b7f4e487b7100000000000000000000000000000000000000000000000000000000600052601260045260246000fd5b6000612b4582611eb1565b9150612b5083611eb1565b925082612b6057612b5f612b0b565b5b828204905092915050565b6000606082019050612b806000830186611ebb565b612b8d6020830185611ebb565b612b9a6040830184611ebb565b949350505050565b6000612bad82611eb1565b91507fffffffffffffffffffffffffffffffffffffffffffffffffffffffffffffffff8203612bdf57612bde612883565b5b600182019050919050565b7f41207175657374696f6e206d75737420626520736574206265666f726520627560008201527f79696e67207469636b6574732e00000000000000000000000000000000000000602082015250565b6000612c46602d83612609565b9150612c5182612bea565b604082019050919050565b60006020820190508181036000830152612c7581612c39565b9050919050565b7f526f756e64206973207061757365640000000000000000000000000000000000600082015250565b6000612cb2600f83612609565b9150612cbd82612c7c565b602082019050919050565b60006020820190508181036000830152612ce181612ca5565b9050919050565b7f496e76616c696420616e7377657220696e6465782e0000000000000000000000600082015250565b6000612d1e601583612609565b9150612d2982612ce8565b602082019050919050565b60006020820190508181036000830152612d4d81612d11565b9050919050565b7f4d75737420627579206174206c65617374206f6e65207469636b65742e000000600082015250565b6000612d8a601d83612609565b9150612d9582612d54565b602082019050919050565b60006020820190508181036000830152612db981612d7d565b9050919050565b600081519050612dcf81611ef9565b92915050565b600060208284031215612deb57612dea611eef565b5b6000612df984828501612dc0565b91505092915050565b6000612e0d82611eb1565b9150612e1883611eb1565b9250828203905081811115612e3057612e2f612883565b5b92915050565b6000606082019050612e4b600083018661259e565b612e58602083018561259e565b612e656040830184611ebb565b949350505050565b612e76816125c8565b8114612e8157600080fd5b50565b600081519050612e9381612e6d565b92915050565b600060208284031215612eaf57612eae611eef565b5b6000612ebd84828501612e84565b91505092915050565b7f546f6b656e207472616e73666572206661696c65640000000000000000000000600082015250565b6000612efc601583612609565b9150612f0782612ec6565b602082019050919050565b60006020820190508181036000830152612f2b81612eef565b9050919050565b7f496e636f7272656374204554482076616c75652073656e742e00000000000000600082015250565b6000612f68601983612609565b9150612f7382612f32565b602082019050919050565b60006020820190508181036000830152612f9781612f5b565b9050919050565b7f4e6f2045544820726571756972656420696620746f6b656e7320636f7665722060008201527f66756c6c20636f73740000000000000000000000000000000000000000000000602082015250565b6000612ffa602983612609565b915061300582612f9e565b604082019050919050565b6000602082019050818103600083015261302981612fed565b9050919050565b60006040820190506130456000830185611ebb565b6130526020830184611ebb565b9392505050565b7f4e487b7100000000000000000000000000000000000000000000000000000000600052602260045260246000fd5b600060028204905060018216806130a057607f821691505b6020821081036130b3576130b2613059565b5b50919050565b7f4d7573742068617665206174206c656173742074776f206f7074696f6e732e00600082015250565b60006130ef601f83612609565b91506130fa826130b9565b602082019050919050565b6000602082019050818103600083015261311e816130e2565b9050919050565b60008190508160005260206000209050919050565b60006020601f8301049050919050565b600082821b905092915050565b6000600883026131877fffffffffffffffffffffffffffffffffffffffffffffffffffffffffffffffff8261314a565b613191868361314a565b95508019841693508086168417925050509392505050565b60006131c46131bf6131ba84611eb1565b6120e3565b611eb1565b9050919050565b6000819050919050565b6131de836131a9565b6131f26131ea826131cb565b848454613157565b825550505050565b600090565b6132076131fa565b6132128184846131d5565b505050565b5b818110156132365761322b6000826131ff565b600181019050613218565b5050565b601f82111561327b5761324c81613125565b6132558461313a565b81016020851015613264578190505b6132786132708561313a565b830182613217565b50505b505050565b600082821c905092915050565b600061329e60001984600802613280565b1980831691505092915050565b60006132b7838361328d565b9150826002028217905092915050565b6132d0826125fe565b67ffffffffffffffff8111156132e9576132e861232f565b5b6132f38254613088565b6132fe82828561323a565b600060209050601f831160018114613331576000841561331f578287015190505b61332985826132ab565b865550613391565b601f19841661333f86613125565b60005b8281101561336757848901518255600182019150602085019450602081019050613342565b868310156133845784890151613380601f89168261328d565b8355505b6001600288020188555050505b505050505050565b600081519050919050565b600082825260208201905092915050565b6000819050602082019050919050565b600082825260208201905092915050565b60006133e1826125fe565b6133eb81856133c5565b93506133fb81856020860161261a565b6134048161231e565b840191505092915050565b600061341b83836133d6565b905092915050565b6000602082019050919050565b600061343b82613399565b61344581856133a4565b935083602082028501613457856133b5565b8060005b858110156134935784840389528151613474858261340f565b945061347f83613423565b925060208a0199505060018101905061345b565b50829750879550505050505092915050565b600060408201905081810360008301526134bf8185612644565b905081810360208301526134d38184613430565b9050939250505056fea2646970667358221220455707784db1a3ae2e34cc9b5470186b638f2b4f2fab8a89618ca18bdcc2c67a64736f6c634300081c0033",
  "linkReferences": {},
  "deployedLinkReferences": {}
}