{
  "_format": "hh-sol-artifact-1",
  "contractName": "DungeonCrawler",
  "sourceName": "contracts/dungeon_crawler.sol",
  "abi": [
    {
      "inputs": [
        {
          "internalType": "address",
          "name": "_freeXTicket",
          "type": "address"
        }
      ],
      "stateMutability": "nonpayable",
      "type": "constructor"
    },
    {
      "inputs": [
        {
          "internalType": "address",
          "name": "owner",
          "type": "address"
        }
      ],
      "name": "OwnableInvalidOwner",
      "type": "error"
    },
    {
      "inputs": [
        {
          "internalType": "address",
          "name": "account",
          "type": "address"
        }
      ],
      "name": "OwnableUnauthorizedAccount",
      "type": "error"
    },
    {
      "anonymous": false,
      "inputs": [
        {
          "indexed": false,
          "internalType": "address",
          "name": "newAddress",
          "type": "address"
        }
      ],
      "name": "FreeXTicketUpdated",
      "type": "event"
    },
    {
      "anonymous": false,
      "inputs": [
        {
          "indexed": false,
          "internalType": "uint256",
          "name": "burned",
          "type": "uint256"
        },
        {
          "indexed": false,
          "internalType": "uint256",
          "name": "ownerFees",
          "type": "uint256"
        },
        {
          "indexed": false,
          "internalType": "uint256",
          "name": "prizePool",
          "type": "uint256"
        }
      ],
      "name": "FundsDistributed",
      "type": "event"
    },
    {
      "anonymous": false,
      "inputs": [
        {
          "indexed": true,
          "internalType": "address",
          "name": "previousOwner",
          "type": "address"
        },
        {
          "indexed": true,
          "internalType": "address",
          "name": "newOwner",
          "type": "address"
        }
      ],
      "name": "OwnershipTransferred",
      "type": "event"
    },
    {
      "anonymous": false,
      "inputs": [
        {
          "indexed": false,
          "internalType": "string",
          "name": "text",
          "type": "string"
        },
        {
          "indexed": false,
          "internalType": "string[]",
          "name": "options",
          "type": "string[]"
        }
      ],
      "name": "QuestionSet",
      "type": "event"
    },
    {
      "anonymous": false,
      "inputs": [
        {
          "indexed": false,
          "internalType": "uint256",
          "name": "winningOption",
          "type": "uint256"
        }
      ],
      "name": "RoundEnded",
      "type": "event"
    },
    {
      "anonymous": false,
      "inputs": [],
      "name": "RoundPaused",
      "type": "event"
    },
    {
      "anonymous": false,
      "inputs": [],
      "name": "RoundResumed",
      "type": "event"
    },
    {
      "anonymous": false,
      "inputs": [
        {
          "indexed": true,
          "internalType": "address",
          "name": "buyer",
          "type": "address"
        },
        {
          "indexed": false,
          "internalType": "uint256",
          "name": "answerIndex",
          "type": "uint256"
        },
        {
          "indexed": false,
          "internalType": "uint256",
          "name": "numTickets",
          "type": "uint256"
        }
      ],
      "name": "TicketPurchased",
      "type": "event"
    },
    {
      "inputs": [
        {
          "internalType": "uint256",
          "name": "",
          "type": "uint256"
        },
        {
          "internalType": "uint256",
          "name": "",
          "type": "uint256"
        }
      ],
      "name": "allTicketHoldersPerRound",
      "outputs": [
        {
          "internalType": "address",
          "name": "",
          "type": "address"
        }
      ],
      "stateMutability": "view",
      "type": "function"
    },
    {
      "inputs": [],
      "name": "burnPercentage",
      "outputs": [
        {
          "internalType": "uint256",
          "name": "",
          "type": "uint256"
        }
      ],
      "stateMutability": "view",
      "type": "function"
    },
    {
      "inputs": [
        {
          "internalType": "uint256",
          "name": "answerIndex",
          "type": "uint256"
        },
        {
          "internalType": "uint256",
          "name": "numTickets",
          "type": "uint256"
        }
      ],
      "name": "buyTickets",
      "outputs": [],
      "stateMutability": "payable",
      "type": "function"
    },
    {
      "inputs": [],
      "name": "currentQuestion",
      "outputs": [
        {
          "internalType": "string",
          "name": "text",
          "type": "string"
        },
        {
          "internalType": "bool",
          "name": "isSet",
          "type": "bool"
        }
      ],
      "stateMutability": "view",
      "type": "function"
    },
    {
      "inputs": [
        {
          "internalType": "address",
          "name": "user",
          "type": "address"
        }
      ],
      "name": "debugUserTickets",
      "outputs": [
        {
          "internalType": "uint256[]",
          "name": "",
          "type": "uint256[]"
        }
      ],
      "stateMutability": "view",
      "type": "function"
    },
    {
      "inputs": [
        {
          "internalType": "uint256",
          "name": "_burnPercentage",
          "type": "uint256"
        },
        {
          "internalType": "uint256",
          "name": "_feePercentage",
          "type": "uint256"
        },
        {
          "internalType": "uint256",
          "name": "_prizePercentage",
          "type": "uint256"
        },
        {
          "internalType": "uint256",
          "name": "_correctAnswerIndex",
          "type": "uint256"
        },
        {
          "internalType": "string",
          "name": "_correctAnswer",
          "type": "string"
        }
      ],
      "name": "endRound",
      "outputs": [],
      "stateMutability": "nonpayable",
      "type": "function"
    },
    {
      "inputs": [],
      "name": "feePercentage",
      "outputs": [
        {
          "internalType": "uint256",
          "name": "",
          "type": "uint256"
        }
      ],
      "stateMutability": "view",
      "type": "function"
    },
    {
      "inputs": [],
      "name": "freeXTicket",
      "outputs": [
        {
          "internalType": "contract IERC20",
          "name": "",
          "type": "address"
        }
      ],
      "stateMutability": "view",
      "type": "function"
    },
    {
      "inputs": [
        {
          "internalType": "uint256",
          "name": "roundNumber",
          "type": "uint256"
        }
      ],
      "name": "getAllTicketHolders",
      "outputs": [
        {
          "internalType": "address[]",
          "name": "",
          "type": "address[]"
        }
      ],
      "stateMutability": "view",
      "type": "function"
    },
    {
      "inputs": [],
      "name": "getCurrentRound",
      "outputs": [
        {
          "internalType": "uint256",
          "name": "",
          "type": "uint256"
        }
      ],
      "stateMutability": "view",
      "type": "function"
    },
    {
      "inputs": [],
      "name": "getNumOptions",
      "outputs": [
        {
          "internalType": "uint256",
          "name": "",
          "type": "uint256"
        }
      ],
      "stateMutability": "view",
      "type": "function"
    },
    {
      "inputs": [
        {
          "internalType": "uint256",
          "name": "roundNumber",
          "type": "uint256"
        }
      ],
      "name": "getRoundParticipants",
      "outputs": [
        {
          "internalType": "address[]",
          "name": "participants",
          "type": "address[]"
        },
        {
          "internalType": "uint256[][]",
          "name": "ticketsPerParticipant",
          "type": "uint256[][]"
        }
      ],
      "stateMutability": "view",
      "type": "function"
    },
    {
      "inputs": [
        {
          "internalType": "address",
          "name": "user",
          "type": "address"
        },
        {
          "internalType": "uint256",
          "name": "answerIndex",
          "type": "uint256"
        }
      ],
      "name": "getTicketCount",
      "outputs": [
        {
          "internalType": "uint256",
          "name": "",
          "type": "uint256"
        }
      ],
      "stateMutability": "view",
      "type": "function"
    },
    {
      "inputs": [],
      "name": "getTotalRounds",
      "outputs": [
        {
          "internalType": "uint256",
          "name": "",
          "type": "uint256"
        }
      ],
      "stateMutability": "view",
      "type": "function"
    },
    {
      "inputs": [
        {
          "internalType": "uint256",
          "name": "roundNumber",
          "type": "uint256"
        },
        {
          "internalType": "uint256",
          "name": "answerIndex",
          "type": "uint256"
        }
      ],
      "name": "getTotalTicketsPerAnswer",
      "outputs": [
        {
          "internalType": "uint256",
          "name": "",
          "type": "uint256"
        }
      ],
      "stateMutability": "view",
      "type": "function"
    },
    {
      "inputs": [],
      "name": "isPaused",
      "outputs": [
        {
          "internalType": "bool",
          "name": "",
          "type": "bool"
        }
      ],
      "stateMutability": "view",
      "type": "function"
    },
    {
      "inputs": [],
      "name": "owner",
      "outputs": [
        {
          "internalType": "address",
          "name": "",
          "type": "address"
        }
      ],
      "stateMutability": "view",
      "type": "function"
    },
    {
      "inputs": [],
      "name": "pauseRound",
      "outputs": [],
      "stateMutability": "nonpayable",
      "type": "function"
    },
    {
      "inputs": [],
      "name": "prizePercentage",
      "outputs": [
        {
          "internalType": "uint256",
          "name": "",
          "type": "uint256"
        }
      ],
      "stateMutability": "view",
      "type": "function"
    },
    {
      "inputs": [],
      "name": "renounceOwnership",
      "outputs": [],
      "stateMutability": "nonpayable",
      "type": "function"
    },
    {
      "inputs": [],
      "name": "resumeRound",
      "outputs": [],
      "stateMutability": "nonpayable",
      "type": "function"
    },
    {
      "inputs": [],
      "name": "round",
      "outputs": [
        {
          "internalType": "uint256",
          "name": "",
          "type": "uint256"
        }
      ],
      "stateMutability": "view",
      "type": "function"
    },
    {
      "inputs": [
        {
          "internalType": "string",
          "name": "_text",
          "type": "string"
        },
        {
          "internalType": "string[]",
          "name": "_options",
          "type": "string[]"
        },
        {
          "internalType": "bytes32",
          "name": "_correctAnswerHash",
          "type": "bytes32"
        }
      ],
      "name": "setQuestion",
      "outputs": [],
      "stateMutability": "nonpayable",
      "type": "function"
    },
    {
      "inputs": [
        {
          "internalType": "uint256",
          "name": "_ticketPrice",
          "type": "uint256"
        }
      ],
      "name": "setTicketPrice",
      "outputs": [],
      "stateMutability": "nonpayable",
      "type": "function"
    },
    {
      "inputs": [],
      "name": "ticketPrice",
      "outputs": [
        {
          "internalType": "uint256",
          "name": "",
          "type": "uint256"
        }
      ],
      "stateMutability": "view",
      "type": "function"
    },
    {
      "inputs": [
        {
          "internalType": "address",
          "name": "",
          "type": "address"
        },
        {
          "internalType": "uint256",
          "name": "",
          "type": "uint256"
        },
        {
          "internalType": "uint256",
          "name": "",
          "type": "uint256"
        }
      ],
      "name": "tickets",
      "outputs": [
        {
          "internalType": "uint256",
          "name": "",
          "type": "uint256"
        }
      ],
      "stateMutability": "view",
      "type": "function"
    },
    {
      "inputs": [
        {
          "internalType": "uint256",
          "name": "",
          "type": "uint256"
        },
        {
          "internalType": "uint256",
          "name": "",
          "type": "uint256"
        }
      ],
      "name": "totalTicketsPerAnswer",
      "outputs": [
        {
          "internalType": "uint256",
          "name": "",
          "type": "uint256"
        }
      ],
      "stateMutability": "view",
      "type": "function"
    },
    {
      "inputs": [
        {
          "internalType": "address",
          "name": "newOwner",
          "type": "address"
        }
      ],
      "name": "transferOwnership",
      "outputs": [],
      "stateMutability": "nonpayable",
      "type": "function"
    },
    {
      "inputs": [
        {
          "internalType": "address",
          "name": "newTokenAddress",
          "type": "address"
        }
      ],
      "name": "updateFTTInfo",
      "outputs": [],
      "stateMutability": "nonpayable",
      "type": "function"
    },
    {
      "inputs": [
        {
          "internalType": "address",
          "name": "tokenAddress",
          "type": "address"
        },
        {
          "internalType": "address payable",
          "name": "recipient",
          "type": "address"
        },
        {
          "internalType": "uint256",
          "name": "amount",
          "type": "uint256"
        }
      ],
      "name": "withdraw",
      "outputs": [],
      "stateMutability": "nonpayable",
      "type": "function"
    }
  ],
  "bytecode": "0x60806040526509184e72a00060045560006005556000600b60006101000a81548160ff02191690831515021790555034801561003a57600080fd5b50604051613f63380380613f63833981810160405281019061005c9190610267565b33600073ffffffffffffffffffffffffffffffffffffffff168173ffffffffffffffffffffffffffffffffffffffff16036100cf5760006040517f1e4fbdf70000000000000000000000000000000000000000000000000000000081526004016100c691906102a3565b60405180910390fd5b6100de8161014060201b60201c565b5080600b60016101000a81548173ffffffffffffffffffffffffffffffffffffffff021916908373ffffffffffffffffffffffffffffffffffffffff1602179055506103846006819055506064600781905550612328600881905550506102be565b60008060009054906101000a900473ffffffffffffffffffffffffffffffffffffffff169050816000806101000a81548173ffffffffffffffffffffffffffffffffffffffff021916908373ffffffffffffffffffffffffffffffffffffffff1602179055508173ffffffffffffffffffffffffffffffffffffffff168173ffffffffffffffffffffffffffffffffffffffff167f8be0079c531659141344cd1fd0a4f28419497f9722a3daafe3b4186f6b6457e060405160405180910390a35050565b600080fd5b600073ffffffffffffffffffffffffffffffffffffffff82169050919050565b600061023482610209565b9050919050565b61024481610229565b811461024f57600080fd5b50565b6000815190506102618161023b565b92915050565b60006020828403121561027d5761027c610204565b5b600061028b84828501610252565b91505092915050565b61029d81610229565b82525050565b60006020820190506102b86000830184610294565b92915050565b613c96806102cd6000396000f3fe6080604052600436106101cd5760003560e01c80638627df46116100f7578063c0d1026511610095578063ec30a46911610064578063ec30a4691461066f578063ee60313514610698578063f01f20df146106c3578063f2fde38b146106ee576101cd565b8063c0d10265146105c6578063c10401a214610603578063d9caed121461061a578063e7dea02214610643576101cd565b8063a001ecdd116100d1578063a001ecdd14610508578063a32bf59714610533578063a5763c821461055e578063b187bd261461059b576101cd565b80638627df46146104845780638da5cb5b146104a057806392c9031a146104cb576101cd565b80632115f4d11161016f5780636ed7f4041161013e5780636ed7f404146103ca57806370f47825146103f3578063715018a6146104305780637393d9b514610447576101cd565b80632115f4d1146102fb57806337305df514610338578063637a6a31146103765780636cb6cfb3146103a1576101cd565b8063156f58af116101ab578063156f58af14610253578063159816501461026a5780631a3d3ff3146102935780631ad1ec22146102d0576101cd565b806311dc7335146101d25780631209b1f6146101fd578063146ca53114610228575b600080fd5b3480156101de57600080fd5b506101e7610717565b6040516101f49190612358565b60405180910390f35b34801561020957600080fd5b5061021261071d565b60405161021f9190612358565b60405180910390f35b34801561023457600080fd5b5061023d610723565b60405161024a9190612358565b60405180910390f35b34801561025f57600080fd5b50610268610729565b005b34801561027657600080fd5b50610291600480360381019061028c91906123b3565b61077a565b005b34801561029f57600080fd5b506102ba60048036038101906102b591906123b3565b61078c565b6040516102c791906124d0565b60405180910390f35b3480156102dc57600080fd5b506102e561082d565b6040516102f29190612358565b60405180910390f35b34801561030757600080fd5b50610322600480360381019061031d919061251e565b610837565b60405161032f9190612358565b60405180910390f35b34801561034457600080fd5b5061035f600480360381019061035a91906123b3565b610875565b60405161036d9291906126f1565b60405180910390f35b34801561038257600080fd5b5061038b610a5e565b6040516103989190612358565b60405180910390f35b3480156103ad57600080fd5b506103c860048036038101906103c3919061286e565b610a6d565b005b3480156103d657600080fd5b506103f160048036038101906103ec9190612905565b610eff565b005b3480156103ff57600080fd5b5061041a60048036038101906104159190612932565b610f82565b6040516104279190612358565b60405180910390f35b34801561043c57600080fd5b50610445610fb3565b005b34801561045357600080fd5b5061046e60048036038101906104699190612972565b610fc7565b60405161047b9190612358565b60405180910390f35b61049e60048036038101906104999190612932565b6110b2565b005b3480156104ac57600080fd5b506104b56117fc565b6040516104c291906129c1565b60405180910390f35b3480156104d757600080fd5b506104f260048036038101906104ed9190612905565b611825565b6040516104ff9190612a4b565b60405180910390f35b34801561051457600080fd5b5061051d6118cf565b60405161052a9190612358565b60405180910390f35b34801561053f57600080fd5b506105486118d5565b6040516105559190612358565b60405180910390f35b34801561056a57600080fd5b5061058560048036038101906105809190612932565b6118df565b6040516105929190612358565b60405180910390f35b3480156105a757600080fd5b506105b0611919565b6040516105bd9190612a88565b60405180910390f35b3480156105d257600080fd5b506105ed60048036038101906105e89190612932565b61192c565b6040516105fa91906129c1565b60405180910390f35b34801561060f57600080fd5b5061061861197a565b005b34801561062657600080fd5b50610641600480360381019061063c9190612ae1565b6119cb565b005b34801561064f57600080fd5b50610658611c81565b604051610666929190612bb3565b60405180910390f35b34801561067b57600080fd5b5061069660048036038101906106919190612cff565b611d28565b005b3480156106a457600080fd5b506106ad611fd1565b6040516106ba9190612de9565b60405180910390f35b3480156106cf57600080fd5b506106d8611ff7565b6040516106e59190612358565b60405180910390f35b3480156106fa57600080fd5b5061071560048036038101906107109190612905565b611ffd565b005b60085481565b60045481565b60055481565b610731612083565b6001600b60006101000a81548160ff0219169083151502179055507f7f7c10f994bb0e711623b04af12db1d10f5412a0ffacbcc59fa493c9cbb2236d60405160405180910390a1565b610782612083565b8060048190555050565b6060600e600083815260200190815260200160002080548060200260200160405190810160405280929190818152602001828054801561082157602002820191906000526020600020905b8160009054906101000a900473ffffffffffffffffffffffffffffffffffffffff1673ffffffffffffffffffffffffffffffffffffffff16815260200190600101908083116107d7575b50505050509050919050565b6000600554905090565b600c602052826000526040600020602052816000526040600020818154811061085f57600080fd5b9060005260206000200160009250925050505481565b606080600e600084815260200190815260200160002080548060200260200160405190810160405280929190818152602001828054801561090b57602002820191906000526020600020905b8160009054906101000a900473ffffffffffffffffffffffffffffffffffffffff1673ffffffffffffffffffffffffffffffffffffffff16815260200190600101908083116108c1575b505050505091506000825190508067ffffffffffffffff81111561093257610931612743565b5b60405190808252806020026020018201604052801561096557816020015b60608152602001906001900390816109505790505b50915060005b81811015610a5757600c600085838151811061098a57610989612e04565b5b602002602001015173ffffffffffffffffffffffffffffffffffffffff1673ffffffffffffffffffffffffffffffffffffffff1681526020019081526020016000206000868152602001908152602001600020805480602002602001604051908101604052809291908181526020018280548015610a2757602002820191906000526020600020905b815481526020019060010190808311610a13575b5050505050838281518110610a3f57610a3e612e04565b5b6020026020010181905250808060010191505061096b565b5050915091565b60006001800180549050905090565b610a75612083565b848484612710818385610a889190612e62565b610a929190612e62565b1115610ad3576040517f08c379a0000000000000000000000000000000000000000000000000000000008152600401610aca90612f08565b60405180910390fd5b600160020160009054906101000a900460ff16610b25576040517f08c379a0000000000000000000000000000000000000000000000000000000008152600401610b1c90612f9a565b60405180910390fd5b60095484604051602001610b399190612ff6565b6040516020818303038152906040528051906020012014610b8f576040517f08c379a0000000000000000000000000000000000000000000000000000000008152600401610b8690613059565b60405180910390fd5b87600681905550866007819055508560088190555084600a819055506000479050600061271060065483610bc39190613079565b610bcd91906130ea565b9050600061271060075484610be29190613079565b610bec91906130ea565b9050600061271060085485610c019190613079565b610c0b91906130ea565b9050600073ffffffffffffffffffffffffffffffffffffffff166108fc849081150290604051600060405180830381858888f19350505050158015610c54573d6000803e3d6000fd5b50610c5d6117fc565b73ffffffffffffffffffffffffffffffffffffffff166108fc839081150290604051600060405180830381858888f19350505050158015610ca2573d6000803e3d6000fd5b506000600d60006005548152602001908152602001600020600a5481548110610cce57610ccd612e04565b5b9060005260206000200154905060005b600e6000600554815260200190815260200160002080549050811015610e45576000600e600060055481526020019081526020016000208281548110610d2757610d26612e04565b5b9060005260206000200160009054906101000a900473ffffffffffffffffffffffffffffffffffffffff1690506000600c60008373ffffffffffffffffffffffffffffffffffffffff1673ffffffffffffffffffffffffffffffffffffffff16815260200190815260200160002060006005548152602001908152602001600020600a5481548110610dbc57610dbb612e04565b5b906000526020600020015490506000811115610e36576000848287610de19190613079565b610deb91906130ea565b90508273ffffffffffffffffffffffffffffffffffffffff166108fc829081150290604051600060405180830381858888f19350505050158015610e33573d6000803e3d6000fd5b50505b50508080600101915050610cde565b507fdaf6233a382145376035341e71f8a04305f7e323d0fe3e58c908cf0a26b76df9848484604051610e799392919061311b565b60405180910390a17faa97d4a7b3afec5f55c25ca8593dde6929d4455fad650a16fa4334004293a618600a54604051610eb29190612358565b60405180910390a16000600160020160006101000a81548160ff02191690831515021790555060056000815480929190610eeb90613152565b919050555050505050505050505050505050565b610f07612083565b80600b60016101000a81548173ffffffffffffffffffffffffffffffffffffffff021916908373ffffffffffffffffffffffffffffffffffffffff1602179055507fd2c01c9801a2368be4921f39aa972f7c4f6120e7c690c548e560fb70a76d780581604051610f7791906129c1565b60405180910390a150565b600d6020528160005260406000208181548110610f9e57600080fd5b90600052602060002001600091509150505481565b610fbb612083565b610fc5600061210a565b565b600080600c60008573ffffffffffffffffffffffffffffffffffffffff1673ffffffffffffffffffffffffffffffffffffffff1681526020019081526020016000206000600554815260200190815260200160002080548060200260200160405190810160405280929190818152602001828054801561106657602002820191906000526020600020905b815481526020019060010190808311611052575b5050505050905060008151148061107e575080518310155b1561108d5760009150506110ac565b8083815181106110a05761109f612e04565b5b60200260200101519150505b92915050565b600160020160009054906101000a900460ff16611104576040517f08c379a00000000000000000000000000000000000000000000000000000000081526004016110fb9061320c565b60405180910390fd5b600b60009054906101000a900460ff1615611154576040517f08c379a000000000000000000000000000000000000000000000000000000000815260040161114b90613278565b60405180910390fd5b6001800180549050821061119d576040517f08c379a0000000000000000000000000000000000000000000000000000000008152600401611194906132e4565b60405180910390fd5b600081116111e0576040517f08c379a00000000000000000000000000000000000000000000000000000000081526004016111d790613350565b60405180910390fd5b6000670de0b6b3a76400009050600081836111fb9190613079565b90506000600b60019054906101000a900473ffffffffffffffffffffffffffffffffffffffff1673ffffffffffffffffffffffffffffffffffffffff166370a08231336040518263ffffffff1660e01b815260040161125a91906129c1565b602060405180830381865afa158015611277573d6000803e3d6000fd5b505050506040513d601f19601f8201168201806040525081019061129b9190613385565b9050600083826112ab91906130ea565b905060008086905060008311156113ce578683106112cf57849150600090506112ec565b85836112db9190613079565b915082876112e991906133b2565b90505b600b60019054906101000a900473ffffffffffffffffffffffffffffffffffffffff1673ffffffffffffffffffffffffffffffffffffffff166323b872dd3330856040518463ffffffff1660e01b815260040161134b939291906133e6565b6020604051808303816000875af115801561136a573d6000803e3d6000fd5b505050506040513d601f19601f8201168201806040525081019061138e9190613449565b6113cd576040517f08c379a00000000000000000000000000000000000000000000000000000000081526004016113c4906134c2565b60405180910390fd5b5b6000811115611431576000816004546113e79190613079565b905080341461142b576040517f08c379a00000000000000000000000000000000000000000000000000000000081526004016114229061352e565b60405180910390fd5b50611475565b60003414611474576040517f08c379a000000000000000000000000000000000000000000000000000000000815260040161146b906135c0565b60405180910390fd5b5b6000600c60003373ffffffffffffffffffffffffffffffffffffffff1673ffffffffffffffffffffffffffffffffffffffff168152602001908152602001600020600060055481526020019081526020016000209050600081805490500361158e57600180018054905067ffffffffffffffff8111156114f8576114f7612743565b5b6040519080825280602002602001820160405280156115265781602001602082028036833780820191505090505b50600c60003373ffffffffffffffffffffffffffffffffffffffff1673ffffffffffffffffffffffffffffffffffffffff16815260200190815260200160002060006005548152602001908152602001600020908051906020019061158c9291906121d6565b505b87600c60003373ffffffffffffffffffffffffffffffffffffffff1673ffffffffffffffffffffffffffffffffffffffff168152602001908152602001600020600060055481526020019081526020016000208a815481106115f3576115f2612e04565b5b90600052602060002001600082825461160c9190612e62565b9250508190555087600d600060055481526020019081526020016000208a8154811061163b5761163a612e04565b5b9060005260206000200160008282546116549190612e62565b92505081905550600f60003373ffffffffffffffffffffffffffffffffffffffff1673ffffffffffffffffffffffffffffffffffffffff1681526020019081526020016000206000600554815260200190815260200160002060009054906101000a900460ff166117a1576001600f60003373ffffffffffffffffffffffffffffffffffffffff1673ffffffffffffffffffffffffffffffffffffffff1681526020019081526020016000206000600554815260200190815260200160002060006101000a81548160ff021916908315150217905550600e60006005548152602001908152602001600020339080600181540180825580915050600190039060005260206000200160009091909190916101000a81548173ffffffffffffffffffffffffffffffffffffffff021916908373ffffffffffffffffffffffffffffffffffffffff1602179055505b3373ffffffffffffffffffffffffffffffffffffffff167f2a91574e12ad96234e84923e146b0946ecfb871cd8d5534dc1fdcbe87a7c01b38a8a6040516117e99291906135e0565b60405180910390a2505050505050505050565b60008060009054906101000a900473ffffffffffffffffffffffffffffffffffffffff16905090565b6060600c60008373ffffffffffffffffffffffffffffffffffffffff1673ffffffffffffffffffffffffffffffffffffffff168152602001908152602001600020600060055481526020019081526020016000208054806020026020016040519081016040528092919081815260200182805480156118c357602002820191906000526020600020905b8154815260200190600101908083116118af575b50505050509050919050565b60075481565b6000600554905090565b6000600d6000848152602001908152602001600020828154811061190657611905612e04565b5b9060005260206000200154905092915050565b600b60009054906101000a900460ff1681565b600e602052816000526040600020818154811061194857600080fd5b906000526020600020016000915091509054906101000a900473ffffffffffffffffffffffffffffffffffffffff1681565b611982612083565b6000600b60006101000a81548160ff0219169083151502179055507fea6117dad2620a0ca2c1af74b4c6996ccff70e5006afaa8ce2accb12d75db20260405160405180910390a1565b6119d3612083565b600073ffffffffffffffffffffffffffffffffffffffff168373ffffffffffffffffffffffffffffffffffffffff1603611afc5780471015611a4a576040517f08c379a0000000000000000000000000000000000000000000000000000000008152600401611a4190613655565b60405180910390fd5b60008273ffffffffffffffffffffffffffffffffffffffff1682604051611a70906136a6565b60006040518083038185875af1925050503d8060008114611aad576040519150601f19603f3d011682016040523d82523d6000602084013e611ab2565b606091505b5050905080611af6576040517f08c379a0000000000000000000000000000000000000000000000000000000008152600401611aed90613707565b60405180910390fd5b50611c7c565b6000839050818173ffffffffffffffffffffffffffffffffffffffff166370a08231306040518263ffffffff1660e01b8152600401611b3b91906129c1565b602060405180830381865afa158015611b58573d6000803e3d6000fd5b505050506040513d601f19601f82011682018060405250810190611b7c9190613385565b1015611bbd576040517f08c379a0000000000000000000000000000000000000000000000000000000008152600401611bb490613773565b60405180910390fd5b8073ffffffffffffffffffffffffffffffffffffffff1663a9059cbb84846040518363ffffffff1660e01b8152600401611bf89291906137b4565b6020604051808303816000875af1158015611c17573d6000803e3d6000fd5b505050506040513d601f19601f82011682018060405250810190611c3b9190613449565b611c7a576040517f08c379a0000000000000000000000000000000000000000000000000000000008152600401611c71906134c2565b60405180910390fd5b505b505050565b6001806000018054611c929061380c565b80601f0160208091040260200160405190810160405280929190818152602001828054611cbe9061380c565b8015611d0b5780601f10611ce057610100808354040283529160200191611d0b565b820191906000526020600020905b815481529060010190602001808311611cee57829003601f168201915b5050505050908060020160009054906101000a900460ff16905082565b611d30612083565b6001825111611d74576040517f08c379a0000000000000000000000000000000000000000000000000000000008152600401611d6b90613889565b60405180910390fd5b60405180606001604052808481526020018381526020016001151581525060016000820151816000019081611da99190613a4b565b506020820151816001019080519060200190611dc6929190612223565b5060408201518160020160006101000a81548160ff02191690831515021790555090505080600981905550600d600060055481526020019081526020016000206000611e12919061227c565b815167ffffffffffffffff811115611e2d57611e2c612743565b5b604051908082528060200260200182016040528015611e5b5781602001602082028036833780820191505090505b50600d600060055481526020019081526020016000209080519060200190611e849291906121d6565b5060005b600e6000600554815260200190815260200160002080549050811015611f71576000600f6000600e600060055481526020019081526020016000208481548110611ed557611ed4612e04565b5b9060005260206000200160009054906101000a900473ffffffffffffffffffffffffffffffffffffffff1673ffffffffffffffffffffffffffffffffffffffff1673ffffffffffffffffffffffffffffffffffffffff1681526020019081526020016000206000600554815260200190815260200160002060006101000a81548160ff0219169083151502179055508080600101915050611e88565b50600e600060055481526020019081526020016000206000611f93919061229d565b7f4036cc6724224308f836b7bb5ccafed36cc517aafc64ff68f6d498882ab45efc8383604051611fc4929190613c29565b60405180910390a1505050565b600b60019054906101000a900473ffffffffffffffffffffffffffffffffffffffff1681565b60065481565b612005612083565b600073ffffffffffffffffffffffffffffffffffffffff168173ffffffffffffffffffffffffffffffffffffffff16036120775760006040517f1e4fbdf700000000000000000000000000000000000000000000000000000000815260040161206e91906129c1565b60405180910390fd5b6120808161210a565b50565b61208b6121ce565b73ffffffffffffffffffffffffffffffffffffffff166120a96117fc565b73ffffffffffffffffffffffffffffffffffffffff1614612108576120cc6121ce565b6040517f118cdaa70000000000000000000000000000000000000000000000000000000081526004016120ff91906129c1565b60405180910390fd5b565b60008060009054906101000a900473ffffffffffffffffffffffffffffffffffffffff169050816000806101000a81548173ffffffffffffffffffffffffffffffffffffffff021916908373ffffffffffffffffffffffffffffffffffffffff1602179055508173ffffffffffffffffffffffffffffffffffffffff168173ffffffffffffffffffffffffffffffffffffffff167f8be0079c531659141344cd1fd0a4f28419497f9722a3daafe3b4186f6b6457e060405160405180910390a35050565b600033905090565b828054828255906000526020600020908101928215612212579160200282015b828111156122115782518255916020019190600101906121f6565b5b50905061221f91906122be565b5090565b82805482825590600052602060002090810192821561226b579160200282015b8281111561226a57825182908161225a9190613a4b565b5091602001919060010190612243565b5b50905061227891906122db565b5090565b508054600082559060005260206000209081019061229a91906122be565b50565b50805460008255906000526020600020908101906122bb91906122be565b50565b5b808211156122d75760008160009055506001016122bf565b5090565b5b808211156122fb57600081816122f291906122ff565b506001016122dc565b5090565b50805461230b9061380c565b6000825580601f1061231d575061233c565b601f01602090049060005260206000209081019061233b91906122be565b5b50565b6000819050919050565b6123528161233f565b82525050565b600060208201905061236d6000830184612349565b92915050565b6000604051905090565b600080fd5b600080fd5b6123908161233f565b811461239b57600080fd5b50565b6000813590506123ad81612387565b92915050565b6000602082840312156123c9576123c861237d565b5b60006123d78482850161239e565b91505092915050565b600081519050919050565b600082825260208201905092915050565b6000819050602082019050919050565b600073ffffffffffffffffffffffffffffffffffffffff82169050919050565b60006124378261240c565b9050919050565b6124478161242c565b82525050565b6000612459838361243e565b60208301905092915050565b6000602082019050919050565b600061247d826123e0565b61248781856123eb565b9350612492836123fc565b8060005b838110156124c35781516124aa888261244d565b97506124b583612465565b925050600181019050612496565b5085935050505092915050565b600060208201905081810360008301526124ea8184612472565b905092915050565b6124fb8161242c565b811461250657600080fd5b50565b600081359050612518816124f2565b92915050565b6000806000606084860312156125375761253661237d565b5b600061254586828701612509565b93505060206125568682870161239e565b92505060406125678682870161239e565b9150509250925092565b600081519050919050565b600082825260208201905092915050565b6000819050602082019050919050565b600081519050919050565b600082825260208201905092915050565b6000819050602082019050919050565b6125d28161233f565b82525050565b60006125e483836125c9565b60208301905092915050565b6000602082019050919050565b60006126088261259d565b61261281856125a8565b935061261d836125b9565b8060005b8381101561264e57815161263588826125d8565b9750612640836125f0565b925050600181019050612621565b5085935050505092915050565b600061266783836125fd565b905092915050565b6000602082019050919050565b600061268782612571565b612691818561257c565b9350836020820285016126a38561258d565b8060005b858110156126df57848403895281516126c0858261265b565b94506126cb8361266f565b925060208a019950506001810190506126a7565b50829750879550505050505092915050565b6000604082019050818103600083015261270b8185612472565b9050818103602083015261271f818461267c565b90509392505050565b600080fd5b600080fd5b6000601f19601f8301169050919050565b7f4e487b7100000000000000000000000000000000000000000000000000000000600052604160045260246000fd5b61277b82612732565b810181811067ffffffffffffffff8211171561279a57612799612743565b5b80604052505050565b60006127ad612373565b90506127b98282612772565b919050565b600067ffffffffffffffff8211156127d9576127d8612743565b5b6127e282612732565b9050602081019050919050565b82818337600083830152505050565b600061281161280c846127be565b6127a3565b90508281526020810184848401111561282d5761282c61272d565b5b6128388482856127ef565b509392505050565b600082601f83011261285557612854612728565b5b81356128658482602086016127fe565b91505092915050565b600080600080600060a0868803121561288a5761288961237d565b5b60006128988882890161239e565b95505060206128a98882890161239e565b94505060406128ba8882890161239e565b93505060606128cb8882890161239e565b925050608086013567ffffffffffffffff8111156128ec576128eb612382565b5b6128f888828901612840565b9150509295509295909350565b60006020828403121561291b5761291a61237d565b5b600061292984828501612509565b91505092915050565b600080604083850312156129495761294861237d565b5b60006129578582860161239e565b92505060206129688582860161239e565b9150509250929050565b600080604083850312156129895761298861237d565b5b600061299785828601612509565b92505060206129a88582860161239e565b9150509250929050565b6129bb8161242c565b82525050565b60006020820190506129d660008301846129b2565b92915050565b600082825260208201905092915050565b60006129f88261259d565b612a0281856129dc565b9350612a0d836125b9565b8060005b83811015612a3e578151612a2588826125d8565b9750612a30836125f0565b925050600181019050612a11565b5085935050505092915050565b60006020820190508181036000830152612a6581846129ed565b905092915050565b60008115159050919050565b612a8281612a6d565b82525050565b6000602082019050612a9d6000830184612a79565b92915050565b6000612aae8261240c565b9050919050565b612abe81612aa3565b8114612ac957600080fd5b50565b600081359050612adb81612ab5565b92915050565b600080600060608486031215612afa57612af961237d565b5b6000612b0886828701612509565b9350506020612b1986828701612acc565b9250506040612b2a8682870161239e565b9150509250925092565b600081519050919050565b600082825260208201905092915050565b60005b83811015612b6e578082015181840152602081019050612b53565b60008484015250505050565b6000612b8582612b34565b612b8f8185612b3f565b9350612b9f818560208601612b50565b612ba881612732565b840191505092915050565b60006040820190508181036000830152612bcd8185612b7a565b9050612bdc6020830184612a79565b9392505050565b600067ffffffffffffffff821115612bfe57612bfd612743565b5b602082029050602081019050919050565b600080fd5b6000612c27612c2284612be3565b6127a3565b90508083825260208201905060208402830185811115612c4a57612c49612c0f565b5b835b81811015612c9157803567ffffffffffffffff811115612c6f57612c6e612728565b5b808601612c7c8982612840565b85526020850194505050602081019050612c4c565b5050509392505050565b600082601f830112612cb057612caf612728565b5b8135612cc0848260208601612c14565b91505092915050565b6000819050919050565b612cdc81612cc9565b8114612ce757600080fd5b50565b600081359050612cf981612cd3565b92915050565b600080600060608486031215612d1857612d1761237d565b5b600084013567ffffffffffffffff811115612d3657612d35612382565b5b612d4286828701612840565b935050602084013567ffffffffffffffff811115612d6357612d62612382565b5b612d6f86828701612c9b565b9250506040612d8086828701612cea565b9150509250925092565b6000819050919050565b6000612daf612daa612da58461240c565b612d8a565b61240c565b9050919050565b6000612dc182612d94565b9050919050565b6000612dd382612db6565b9050919050565b612de381612dc8565b82525050565b6000602082019050612dfe6000830184612dda565b92915050565b7f4e487b7100000000000000000000000000000000000000000000000000000000600052603260045260246000fd5b7f4e487b7100000000000000000000000000000000000000000000000000000000600052601160045260246000fd5b6000612e6d8261233f565b9150612e788361233f565b9250828201905080821115612e9057612e8f612e33565b5b92915050565b7f50657263656e7461676573206d757374206e6f7420657863656564203130302560008201527f2e00000000000000000000000000000000000000000000000000000000000000602082015250565b6000612ef2602183612b3f565b9150612efd82612e96565b604082019050919050565b60006020820190508181036000830152612f2181612ee5565b9050919050565b7f4e6f207175657374696f6e2073657420746f20656e642074686520726f756e6460008201527f2e00000000000000000000000000000000000000000000000000000000000000602082015250565b6000612f84602183612b3f565b9150612f8f82612f28565b604082019050919050565b60006020820190508181036000830152612fb381612f77565b9050919050565b600081905092915050565b6000612fd082612b34565b612fda8185612fba565b9350612fea818560208601612b50565b80840191505092915050565b60006130028284612fc5565b915081905092915050565b7f496e636f727265637420616e737765722072657665616c65642e000000000000600082015250565b6000613043601a83612b3f565b915061304e8261300d565b602082019050919050565b6000602082019050818103600083015261307281613036565b9050919050565b60006130848261233f565b915061308f8361233f565b925082820261309d8161233f565b915082820484148315176130b4576130b3612e33565b5b5092915050565b7f4e487b7100000000000000000000000000000000000000000000000000000000600052601260045260246000fd5b60006130f58261233f565b91506131008361233f565b9250826131105761310f6130bb565b5b828204905092915050565b60006060820190506131306000830186612349565b61313d6020830185612349565b61314a6040830184612349565b949350505050565b600061315d8261233f565b91507fffffffffffffffffffffffffffffffffffffffffffffffffffffffffffffffff820361318f5761318e612e33565b5b600182019050919050565b7f41207175657374696f6e206d75737420626520736574206265666f726520627560008201527f79696e67207469636b6574732e00000000000000000000000000000000000000602082015250565b60006131f6602d83612b3f565b91506132018261319a565b604082019050919050565b60006020820190508181036000830152613225816131e9565b9050919050565b7f526f756e64206973207061757365640000000000000000000000000000000000600082015250565b6000613262600f83612b3f565b915061326d8261322c565b602082019050919050565b6000602082019050818103600083015261329181613255565b9050919050565b7f496e76616c696420616e7377657220696e6465782e0000000000000000000000600082015250565b60006132ce601583612b3f565b91506132d982613298565b602082019050919050565b600060208201905081810360008301526132fd816132c1565b9050919050565b7f4d75737420627579206174206c65617374206f6e65207469636b65742e000000600082015250565b600061333a601d83612b3f565b915061334582613304565b602082019050919050565b600060208201905081810360008301526133698161332d565b9050919050565b60008151905061337f81612387565b92915050565b60006020828403121561339b5761339a61237d565b5b60006133a984828501613370565b91505092915050565b60006133bd8261233f565b91506133c88361233f565b92508282039050818111156133e0576133df612e33565b5b92915050565b60006060820190506133fb60008301866129b2565b61340860208301856129b2565b6134156040830184612349565b949350505050565b61342681612a6d565b811461343157600080fd5b50565b6000815190506134438161341d565b92915050565b60006020828403121561345f5761345e61237d565b5b600061346d84828501613434565b91505092915050565b7f546f6b656e207472616e73666572206661696c65640000000000000000000000600082015250565b60006134ac601583612b3f565b91506134b782613476565b602082019050919050565b600060208201905081810360008301526134db8161349f565b9050919050565b7f496e636f7272656374204554482076616c75652073656e742e00000000000000600082015250565b6000613518601983612b3f565b9150613523826134e2565b602082019050919050565b600060208201905081810360008301526135478161350b565b9050919050565b7f4e6f2045544820726571756972656420696620746f6b656e7320636f7665722060008201527f66756c6c20636f73740000000000000000000000000000000000000000000000602082015250565b60006135aa602983612b3f565b91506135b58261354e565b604082019050919050565b600060208201905081810360008301526135d98161359d565b9050919050565b60006040820190506135f56000830185612349565b6136026020830184612349565b9392505050565b7f496e73756666696369656e74204554482062616c616e63650000000000000000600082015250565b600061363f601883612b3f565b915061364a82613609565b602082019050919050565b6000602082019050818103600083015261366e81613632565b9050919050565b600081905092915050565b50565b6000613690600083613675565b915061369b82613680565b600082019050919050565b60006136b182613683565b9150819050919050565b7f4661696c656420746f2073656e64204554480000000000000000000000000000600082015250565b60006136f1601283612b3f565b91506136fc826136bb565b602082019050919050565b60006020820190508181036000830152613720816136e4565b9050919050565b7f496e73756666696369656e7420746f6b656e2062616c616e6365000000000000600082015250565b600061375d601a83612b3f565b915061376882613727565b602082019050919050565b6000602082019050818103600083015261378c81613750565b9050919050565b600061379e82612db6565b9050919050565b6137ae81613793565b82525050565b60006040820190506137c960008301856137a5565b6137d66020830184612349565b9392505050565b7f4e487b7100000000000000000000000000000000000000000000000000000000600052602260045260246000fd5b6000600282049050600182168061382457607f821691505b602082108103613837576138366137dd565b5b50919050565b7f4d7573742068617665206174206c656173742074776f206f7074696f6e732e00600082015250565b6000613873601f83612b3f565b915061387e8261383d565b602082019050919050565b600060208201905081810360008301526138a281613866565b9050919050565b60008190508160005260206000209050919050565b60006020601f8301049050919050565b600082821b905092915050565b60006008830261390b7fffffffffffffffffffffffffffffffffffffffffffffffffffffffffffffffff826138ce565b61391586836138ce565b95508019841693508086168417925050509392505050565b600061394861394361393e8461233f565b612d8a565b61233f565b9050919050565b6000819050919050565b6139628361392d565b61397661396e8261394f565b8484546138db565b825550505050565b600090565b61398b61397e565b613996818484613959565b505050565b5b818110156139ba576139af600082613983565b60018101905061399c565b5050565b601f8211156139ff576139d0816138a9565b6139d9846138be565b810160208510156139e8578190505b6139fc6139f4856138be565b83018261399b565b50505b505050565b600082821c905092915050565b6000613a2260001984600802613a04565b1980831691505092915050565b6000613a3b8383613a11565b9150826002028217905092915050565b613a5482612b34565b67ffffffffffffffff811115613a6d57613a6c612743565b5b613a77825461380c565b613a828282856139be565b600060209050601f831160018114613ab55760008415613aa3578287015190505b613aad8582613a2f565b865550613b15565b601f198416613ac3866138a9565b60005b82811015613aeb57848901518255600182019150602085019450602081019050613ac6565b86831015613b085784890151613b04601f891682613a11565b8355505b6001600288020188555050505b505050505050565b600081519050919050565b600082825260208201905092915050565b6000819050602082019050919050565b600082825260208201905092915050565b6000613b6582612b34565b613b6f8185613b49565b9350613b7f818560208601612b50565b613b8881612732565b840191505092915050565b6000613b9f8383613b5a565b905092915050565b6000602082019050919050565b6000613bbf82613b1d565b613bc98185613b28565b935083602082028501613bdb85613b39565b8060005b85811015613c175784840389528151613bf88582613b93565b9450613c0383613ba7565b925060208a01995050600181019050613bdf565b50829750879550505050505092915050565b60006040820190508181036000830152613c438185612b7a565b90508181036020830152613c578184613bb4565b9050939250505056fea26469706673582212200f0dd9f0150eb6652b40b48e6d0867ccbc78235eb334e5b1e531a9bcb6cbeae164736f6c634300081c0033",
  "linkReferences": {},
  "deployedLinkReferences": {}
}