{
  "_format": "hh-sol-artifact-1",
  "contractName": "DungeonCrawler",
  "sourceName": "contracts/dungeon_crawler.sol",
  "abi": [
    {
      "inputs": [],
      "stateMutability": "nonpayable",
      "type": "constructor"
    },
    {
      "inputs": [
        {
          "internalType": "address",
          "name": "owner",
          "type": "address"
        }
      ],
      "name": "OwnableInvalidOwner",
      "type": "error"
    },
    {
      "inputs": [
        {
          "internalType": "address",
          "name": "account",
          "type": "address"
        }
      ],
      "name": "OwnableUnauthorizedAccount",
      "type": "error"
    },
    {
      "anonymous": false,
      "inputs": [
        {
          "indexed": false,
          "internalType": "uint256",
          "name": "burned",
          "type": "uint256"
        },
        {
          "indexed": false,
          "internalType": "uint256",
          "name": "ownerFees",
          "type": "uint256"
        },
        {
          "indexed": false,
          "internalType": "uint256",
          "name": "prizePool",
          "type": "uint256"
        }
      ],
      "name": "FundsDistributed",
      "type": "event"
    },
    {
      "anonymous": false,
      "inputs": [
        {
          "indexed": true,
          "internalType": "address",
          "name": "previousOwner",
          "type": "address"
        },
        {
          "indexed": true,
          "internalType": "address",
          "name": "newOwner",
          "type": "address"
        }
      ],
      "name": "OwnershipTransferred",
      "type": "event"
    },
    {
      "anonymous": false,
      "inputs": [
        {
          "indexed": false,
          "internalType": "string",
          "name": "text",
          "type": "string"
        },
        {
          "indexed": false,
          "internalType": "string[]",
          "name": "options",
          "type": "string[]"
        }
      ],
      "name": "QuestionSet",
      "type": "event"
    },
    {
      "anonymous": false,
      "inputs": [
        {
          "indexed": false,
          "internalType": "uint256",
          "name": "winningOption",
          "type": "uint256"
        }
      ],
      "name": "RoundEnded",
      "type": "event"
    },
    {
      "anonymous": false,
      "inputs": [
        {
          "indexed": true,
          "internalType": "address",
          "name": "buyer",
          "type": "address"
        },
        {
          "indexed": false,
          "internalType": "uint256",
          "name": "answerIndex",
          "type": "uint256"
        },
        {
          "indexed": false,
          "internalType": "uint256",
          "name": "numTickets",
          "type": "uint256"
        }
      ],
      "name": "TicketPurchased",
      "type": "event"
    },
    {
      "inputs": [
        {
          "internalType": "uint256",
          "name": "",
          "type": "uint256"
        }
      ],
      "name": "allTicketHolders",
      "outputs": [
        {
          "internalType": "address",
          "name": "",
          "type": "address"
        }
      ],
      "stateMutability": "view",
      "type": "function"
    },
    {
      "inputs": [],
      "name": "burnPercentage",
      "outputs": [
        {
          "internalType": "uint256",
          "name": "",
          "type": "uint256"
        }
      ],
      "stateMutability": "view",
      "type": "function"
    },
    {
      "inputs": [
        {
          "internalType": "uint256",
          "name": "answerIndex",
          "type": "uint256"
        },
        {
          "internalType": "uint256",
          "name": "numTickets",
          "type": "uint256"
        }
      ],
      "name": "buyTickets",
      "outputs": [],
      "stateMutability": "payable",
      "type": "function"
    },
    {
      "inputs": [],
      "name": "currentQuestion",
      "outputs": [
        {
          "internalType": "string",
          "name": "text",
          "type": "string"
        },
        {
          "internalType": "bool",
          "name": "isSet",
          "type": "bool"
        }
      ],
      "stateMutability": "view",
      "type": "function"
    },
    {
      "inputs": [
        {
          "internalType": "uint256",
          "name": "_burnPercentage",
          "type": "uint256"
        },
        {
          "internalType": "uint256",
          "name": "_feePercentage",
          "type": "uint256"
        },
        {
          "internalType": "uint256",
          "name": "_prizePercentage",
          "type": "uint256"
        }
      ],
      "name": "endRound",
      "outputs": [],
      "stateMutability": "nonpayable",
      "type": "function"
    },
    {
      "inputs": [],
      "name": "feePercentage",
      "outputs": [
        {
          "internalType": "uint256",
          "name": "",
          "type": "uint256"
        }
      ],
      "stateMutability": "view",
      "type": "function"
    },
    {
      "inputs": [
        {
          "internalType": "address",
          "name": "user",
          "type": "address"
        },
        {
          "internalType": "uint256",
          "name": "answerIndex",
          "type": "uint256"
        }
      ],
      "name": "getTicketCount",
      "outputs": [
        {
          "internalType": "uint256",
          "name": "",
          "type": "uint256"
        }
      ],
      "stateMutability": "view",
      "type": "function"
    },
    {
      "inputs": [],
      "name": "owner",
      "outputs": [
        {
          "internalType": "address",
          "name": "",
          "type": "address"
        }
      ],
      "stateMutability": "view",
      "type": "function"
    },
    {
      "inputs": [],
      "name": "prizePercentage",
      "outputs": [
        {
          "internalType": "uint256",
          "name": "",
          "type": "uint256"
        }
      ],
      "stateMutability": "view",
      "type": "function"
    },
    {
      "inputs": [],
      "name": "renounceOwnership",
      "outputs": [],
      "stateMutability": "nonpayable",
      "type": "function"
    },
    {
      "inputs": [],
      "name": "round",
      "outputs": [
        {
          "internalType": "uint256",
          "name": "",
          "type": "uint256"
        }
      ],
      "stateMutability": "view",
      "type": "function"
    },
    {
      "inputs": [
        {
          "internalType": "string",
          "name": "_text",
          "type": "string"
        },
        {
          "internalType": "string[]",
          "name": "_options",
          "type": "string[]"
        }
      ],
      "name": "setQuestion",
      "outputs": [],
      "stateMutability": "nonpayable",
      "type": "function"
    },
    {
      "inputs": [
        {
          "internalType": "uint256",
          "name": "_ticketPrice",
          "type": "uint256"
        }
      ],
      "name": "setTicketPrice",
      "outputs": [],
      "stateMutability": "nonpayable",
      "type": "function"
    },
    {
      "inputs": [],
      "name": "ticketPrice",
      "outputs": [
        {
          "internalType": "uint256",
          "name": "",
          "type": "uint256"
        }
      ],
      "stateMutability": "view",
      "type": "function"
    },
    {
      "inputs": [
        {
          "internalType": "address",
          "name": "",
          "type": "address"
        },
        {
          "internalType": "uint256",
          "name": "",
          "type": "uint256"
        },
        {
          "internalType": "uint256",
          "name": "",
          "type": "uint256"
        }
      ],
      "name": "tickets",
      "outputs": [
        {
          "internalType": "uint256",
          "name": "",
          "type": "uint256"
        }
      ],
      "stateMutability": "view",
      "type": "function"
    },
    {
      "inputs": [
        {
          "internalType": "uint256",
          "name": "",
          "type": "uint256"
        },
        {
          "internalType": "uint256",
          "name": "",
          "type": "uint256"
        }
      ],
      "name": "totalTicketsPerAnswer",
      "outputs": [
        {
          "internalType": "uint256",
          "name": "",
          "type": "uint256"
        }
      ],
      "stateMutability": "view",
      "type": "function"
    },
    {
      "inputs": [
        {
          "internalType": "address",
          "name": "newOwner",
          "type": "address"
        }
      ],
      "name": "transferOwnership",
      "outputs": [],
      "stateMutability": "nonpayable",
      "type": "function"
    }
  ],
  "bytecode": "0x60806040526509184e72a000600455600060055534801561001f57600080fd5b5033600073ffffffffffffffffffffffffffffffffffffffff168173ffffffffffffffffffffffffffffffffffffffff16036100935760006040517f1e4fbdf700000000000000000000000000000000000000000000000000000000815260040161008a91906101c7565b60405180910390fd5b6100a2816100c260201b60201c565b5061038460068190555060646007819055506123286008819055506101e2565b60008060009054906101000a900473ffffffffffffffffffffffffffffffffffffffff169050816000806101000a81548173ffffffffffffffffffffffffffffffffffffffff021916908373ffffffffffffffffffffffffffffffffffffffff1602179055508173ffffffffffffffffffffffffffffffffffffffff168173ffffffffffffffffffffffffffffffffffffffff167f8be0079c531659141344cd1fd0a4f28419497f9722a3daafe3b4186f6b6457e060405160405180910390a35050565b600073ffffffffffffffffffffffffffffffffffffffff82169050919050565b60006101b182610186565b9050919050565b6101c1816101a6565b82525050565b60006020820190506101dc60008301846101b8565b92915050565b612429806101f16000396000f3fe6080604052600436106100fe5760003560e01c8063715018a6116100955780638da5cb5b116100645780638da5cb5b14610326578063a001ecdd14610351578063e7dea0221461037c578063f01f20df146103a8578063f2fde38b146103d3576100fe565b8063715018a61461028d5780637393d9b5146102a45780637af89499146102e15780638627df461461030a576100fe565b806315981650116100d157806315981650146101ad5780632115f4d1146101d65780633e81bca01461021357806370f4782514610250576100fe565b806311dc7335146101035780631209b1f61461012e578063145b798914610159578063146ca53114610182575b600080fd5b34801561010f57600080fd5b506101186103fc565b60405161012591906114bf565b60405180910390f35b34801561013a57600080fd5b50610143610402565b60405161015091906114bf565b60405180910390f35b34801561016557600080fd5b50610180600480360381019061017b919061151a565b610408565b005b34801561018e57600080fd5b5061019761086b565b6040516101a491906114bf565b60405180910390f35b3480156101b957600080fd5b506101d460048036038101906101cf919061156d565b610871565b005b3480156101e257600080fd5b506101fd60048036038101906101f891906115f8565b610883565b60405161020a91906114bf565b60405180910390f35b34801561021f57600080fd5b5061023a6004803603810190610235919061156d565b6108c1565b604051610247919061165a565b60405180910390f35b34801561025c57600080fd5b5061027760048036038101906102729190611675565b610900565b60405161028491906114bf565b60405180910390f35b34801561029957600080fd5b506102a2610931565b005b3480156102b057600080fd5b506102cb60048036038101906102c691906116b5565b610945565b6040516102d891906114bf565b60405180910390f35b3480156102ed57600080fd5b5061030860048036038101906103039190611921565b6109be565b005b610324600480360381019061031f9190611675565b610c13565b005b34801561033257600080fd5b5061033b611088565b604051610348919061165a565b60405180910390f35b34801561035d57600080fd5b506103666110b1565b60405161037391906114bf565b60405180910390f35b34801561038857600080fd5b506103916110b7565b60405161039f929190611a33565b60405180910390f35b3480156103b457600080fd5b506103bd61115e565b6040516103ca91906114bf565b60405180910390f35b3480156103df57600080fd5b506103fa60048036038101906103f59190611a63565b611164565b005b60085481565b60045481565b6104106111ea565b8282826127108183856104239190611abf565b61042d9190611abf565b111561046e576040517f08c379a000000000000000000000000000000000000000000000000000000000815260040161046590611b65565b60405180910390fd5b600160020160009054906101000a900460ff166104c0576040517f08c379a00000000000000000000000000000000000000000000000000000000081526004016104b790611bf7565b60405180910390fd5b85600681905550846007819055508360088190555060004790506000612710600654836104ed9190611c17565b6104f79190611c88565b905060006127106007548461050c9190611c17565b6105169190611c88565b905060006127106008548561052b9190611c17565b6105359190611c88565b9050600073ffffffffffffffffffffffffffffffffffffffff166108fc849081150290604051600060405180830381858888f1935050505015801561057e573d6000803e3d6000fd5b50610587611088565b73ffffffffffffffffffffffffffffffffffffffff166108fc839081150290604051600060405180830381858888f193505050501580156105cc573d6000803e3d6000fd5b5060008060005b600a60006005548152602001908152602001600020805490508110156106715781600a60006005548152602001908152602001600020828154811061061b5761061a611cb9565b5b9060005260206000200154111561066457600a60006005548152602001908152602001600020818154811061065357610652611cb9565b5b906000526020600020015491508092505b80806001019150506105d3565b5060005b600b805490508110156107b4576000600b828154811061069857610697611cb9565b5b9060005260206000200160009054906101000a900473ffffffffffffffffffffffffffffffffffffffff1690506000600960008373ffffffffffffffffffffffffffffffffffffffff1673ffffffffffffffffffffffffffffffffffffffff16815260200190815260200160002060006005548152602001908152602001600020858154811061072b5761072a611cb9565b5b9060005260206000200154905060008111156107a55760008482886107509190611c17565b61075a9190611c88565b90508273ffffffffffffffffffffffffffffffffffffffff166108fc829081150290604051600060405180830381858888f193505050501580156107a2573d6000803e3d6000fd5b50505b50508080600101915050610675565b507fdaf6233a382145376035341e71f8a04305f7e323d0fe3e58c908cf0a26b76df98585856040516107e893929190611ce8565b60405180910390a17faa97d4a7b3afec5f55c25ca8593dde6929d4455fad650a16fa4334004293a6188260405161081f91906114bf565b60405180910390a16000600160020160006101000a81548160ff0219169083151502179055506005600081548092919061085890611d1f565b9190505550505050505050505050505050565b60055481565b6108796111ea565b8060048190555050565b600960205282600052604060002060205281600052604060002081815481106108ab57600080fd5b9060005260206000200160009250925050505481565b600b81815481106108d157600080fd5b906000526020600020016000915054906101000a900473ffffffffffffffffffffffffffffffffffffffff1681565b600a602052816000526040600020818154811061091c57600080fd5b90600052602060002001600091509150505481565b6109396111ea565b6109436000611271565b565b6000600960008473ffffffffffffffffffffffffffffffffffffffff1673ffffffffffffffffffffffffffffffffffffffff1681526020019081526020016000206000600554815260200190815260200160002082815481106109ab576109aa611cb9565b5b9060005260206000200154905092915050565b6109c66111ea565b6001815111610a0a576040517f08c379a0000000000000000000000000000000000000000000000000000000008152600401610a0190611db3565b60405180910390fd5b60405180606001604052808381526020018281526020016001151581525060016000820151816000019081610a3f9190611fdf565b506020820151816001019080519060200190610a5c92919061133d565b5060408201518160020160006101000a81548160ff021916908315150217905550905050600a600060055481526020019081526020016000206000610aa19190611396565b805167ffffffffffffffff811115610abc57610abb611710565b5b604051908082528060200260200182016040528015610aea5781602001602082028036833780820191505090505b50600a600060055481526020019081526020016000209080519060200190610b139291906113b7565b5060005b600b80549050811015610bc7576000600c6000600b8481548110610b3e57610b3d611cb9565b5b9060005260206000200160009054906101000a900473ffffffffffffffffffffffffffffffffffffffff1673ffffffffffffffffffffffffffffffffffffffff1673ffffffffffffffffffffffffffffffffffffffff16815260200190815260200160002060006101000a81548160ff0219169083151502179055508080600101915050610b17565b50600b6000610bd69190611404565b7f4036cc6724224308f836b7bb5ccafed36cc517aafc64ff68f6d498882ab45efc8282604051610c079291906121bd565b60405180910390a15050565b600160020160009054906101000a900460ff16610c65576040517f08c379a0000000000000000000000000000000000000000000000000000000008152600401610c5c90612266565b60405180910390fd5b60018001805490508210610cae576040517f08c379a0000000000000000000000000000000000000000000000000000000008152600401610ca5906122d2565b60405180910390fd5b60008111610cf1576040517f08c379a0000000000000000000000000000000000000000000000000000000008152600401610ce89061233e565b60405180910390fd5b80600454610cff9190611c17565b3414610d40576040517f08c379a0000000000000000000000000000000000000000000000000000000008152600401610d37906123aa565b60405180910390fd5b6000600960003373ffffffffffffffffffffffffffffffffffffffff1673ffffffffffffffffffffffffffffffffffffffff1681526020019081526020016000206000600554815260200190815260200160002090506000818054905003610e5957600180018054905067ffffffffffffffff811115610dc357610dc2611710565b5b604051908082528060200260200182016040528015610df15781602001602082028036833780820191505090505b50600960003373ffffffffffffffffffffffffffffffffffffffff1673ffffffffffffffffffffffffffffffffffffffff168152602001908152602001600020600060055481526020019081526020016000209080519060200190610e579291906113b7565b505b81600960003373ffffffffffffffffffffffffffffffffffffffff1673ffffffffffffffffffffffffffffffffffffffff168152602001908152602001600020600060055481526020019081526020016000208481548110610ebe57610ebd611cb9565b5b906000526020600020016000828254610ed79190611abf565b9250508190555081600a600060055481526020019081526020016000208481548110610f0657610f05611cb9565b5b906000526020600020016000828254610f1f9190611abf565b92505081905550600c60003373ffffffffffffffffffffffffffffffffffffffff1673ffffffffffffffffffffffffffffffffffffffff16815260200190815260200160002060009054906101000a900460ff16611033576001600c60003373ffffffffffffffffffffffffffffffffffffffff1673ffffffffffffffffffffffffffffffffffffffff16815260200190815260200160002060006101000a81548160ff021916908315150217905550600b339080600181540180825580915050600190039060005260206000200160009091909190916101000a81548173ffffffffffffffffffffffffffffffffffffffff021916908373ffffffffffffffffffffffffffffffffffffffff1602179055505b3373ffffffffffffffffffffffffffffffffffffffff167f2a91574e12ad96234e84923e146b0946ecfb871cd8d5534dc1fdcbe87a7c01b3848460405161107b9291906123ca565b60405180910390a2505050565b60008060009054906101000a900473ffffffffffffffffffffffffffffffffffffffff16905090565b60075481565b60018060000180546110c890611e02565b80601f01602080910402602001604051908101604052809291908181526020018280546110f490611e02565b80156111415780601f1061111657610100808354040283529160200191611141565b820191906000526020600020905b81548152906001019060200180831161112457829003601f168201915b5050505050908060020160009054906101000a900460ff16905082565b60065481565b61116c6111ea565b600073ffffffffffffffffffffffffffffffffffffffff168173ffffffffffffffffffffffffffffffffffffffff16036111de5760006040517f1e4fbdf70000000000000000000000000000000000000000000000000000000081526004016111d5919061165a565b60405180910390fd5b6111e781611271565b50565b6111f2611335565b73ffffffffffffffffffffffffffffffffffffffff16611210611088565b73ffffffffffffffffffffffffffffffffffffffff161461126f57611233611335565b6040517f118cdaa7000000000000000000000000000000000000000000000000000000008152600401611266919061165a565b60405180910390fd5b565b60008060009054906101000a900473ffffffffffffffffffffffffffffffffffffffff169050816000806101000a81548173ffffffffffffffffffffffffffffffffffffffff021916908373ffffffffffffffffffffffffffffffffffffffff1602179055508173ffffffffffffffffffffffffffffffffffffffff168173ffffffffffffffffffffffffffffffffffffffff167f8be0079c531659141344cd1fd0a4f28419497f9722a3daafe3b4186f6b6457e060405160405180910390a35050565b600033905090565b828054828255906000526020600020908101928215611385579160200282015b828111156113845782518290816113749190611fdf565b509160200191906001019061135d565b5b5090506113929190611425565b5090565b50805460008255906000526020600020908101906113b49190611449565b50565b8280548282559060005260206000209081019282156113f3579160200282015b828111156113f25782518255916020019190600101906113d7565b5b5090506114009190611449565b5090565b50805460008255906000526020600020908101906114229190611449565b50565b5b80821115611445576000818161143c9190611466565b50600101611426565b5090565b5b8082111561146257600081600090555060010161144a565b5090565b50805461147290611e02565b6000825580601f1061148457506114a3565b601f0160209004906000526020600020908101906114a29190611449565b5b50565b6000819050919050565b6114b9816114a6565b82525050565b60006020820190506114d460008301846114b0565b92915050565b6000604051905090565b600080fd5b600080fd5b6114f7816114a6565b811461150257600080fd5b50565b600081359050611514816114ee565b92915050565b600080600060608486031215611533576115326114e4565b5b600061154186828701611505565b935050602061155286828701611505565b925050604061156386828701611505565b9150509250925092565b600060208284031215611583576115826114e4565b5b600061159184828501611505565b91505092915050565b600073ffffffffffffffffffffffffffffffffffffffff82169050919050565b60006115c58261159a565b9050919050565b6115d5816115ba565b81146115e057600080fd5b50565b6000813590506115f2816115cc565b92915050565b600080600060608486031215611611576116106114e4565b5b600061161f868287016115e3565b935050602061163086828701611505565b925050604061164186828701611505565b9150509250925092565b611654816115ba565b82525050565b600060208201905061166f600083018461164b565b92915050565b6000806040838503121561168c5761168b6114e4565b5b600061169a85828601611505565b92505060206116ab85828601611505565b9150509250929050565b600080604083850312156116cc576116cb6114e4565b5b60006116da858286016115e3565b92505060206116eb85828601611505565b9150509250929050565b600080fd5b600080fd5b6000601f19601f8301169050919050565b7f4e487b7100000000000000000000000000000000000000000000000000000000600052604160045260246000fd5b611748826116ff565b810181811067ffffffffffffffff8211171561176757611766611710565b5b80604052505050565b600061177a6114da565b9050611786828261173f565b919050565b600067ffffffffffffffff8211156117a6576117a5611710565b5b6117af826116ff565b9050602081019050919050565b82818337600083830152505050565b60006117de6117d98461178b565b611770565b9050828152602081018484840111156117fa576117f96116fa565b5b6118058482856117bc565b509392505050565b600082601f830112611822576118216116f5565b5b81356118328482602086016117cb565b91505092915050565b600067ffffffffffffffff82111561185657611855611710565b5b602082029050602081019050919050565b600080fd5b600061187f61187a8461183b565b611770565b905080838252602082019050602084028301858111156118a2576118a1611867565b5b835b818110156118e957803567ffffffffffffffff8111156118c7576118c66116f5565b5b8086016118d4898261180d565b855260208501945050506020810190506118a4565b5050509392505050565b600082601f830112611908576119076116f5565b5b813561191884826020860161186c565b91505092915050565b60008060408385031215611938576119376114e4565b5b600083013567ffffffffffffffff811115611956576119556114e9565b5b6119628582860161180d565b925050602083013567ffffffffffffffff811115611983576119826114e9565b5b61198f858286016118f3565b9150509250929050565b600081519050919050565b600082825260208201905092915050565b60005b838110156119d35780820151818401526020810190506119b8565b60008484015250505050565b60006119ea82611999565b6119f481856119a4565b9350611a048185602086016119b5565b611a0d816116ff565b840191505092915050565b60008115159050919050565b611a2d81611a18565b82525050565b60006040820190508181036000830152611a4d81856119df565b9050611a5c6020830184611a24565b9392505050565b600060208284031215611a7957611a786114e4565b5b6000611a87848285016115e3565b91505092915050565b7f4e487b7100000000000000000000000000000000000000000000000000000000600052601160045260246000fd5b6000611aca826114a6565b9150611ad5836114a6565b9250828201905080821115611aed57611aec611a90565b5b92915050565b7f50657263656e7461676573206d757374206e6f7420657863656564203130302560008201527f2e00000000000000000000000000000000000000000000000000000000000000602082015250565b6000611b4f6021836119a4565b9150611b5a82611af3565b604082019050919050565b60006020820190508181036000830152611b7e81611b42565b9050919050565b7f4e6f207175657374696f6e2073657420746f20656e642074686520726f756e6460008201527f2e00000000000000000000000000000000000000000000000000000000000000602082015250565b6000611be16021836119a4565b9150611bec82611b85565b604082019050919050565b60006020820190508181036000830152611c1081611bd4565b9050919050565b6000611c22826114a6565b9150611c2d836114a6565b9250828202611c3b816114a6565b91508282048414831517611c5257611c51611a90565b5b5092915050565b7f4e487b7100000000000000000000000000000000000000000000000000000000600052601260045260246000fd5b6000611c93826114a6565b9150611c9e836114a6565b925082611cae57611cad611c59565b5b828204905092915050565b7f4e487b7100000000000000000000000000000000000000000000000000000000600052603260045260246000fd5b6000606082019050611cfd60008301866114b0565b611d0a60208301856114b0565b611d1760408301846114b0565b949350505050565b6000611d2a826114a6565b91507fffffffffffffffffffffffffffffffffffffffffffffffffffffffffffffffff8203611d5c57611d5b611a90565b5b600182019050919050565b7f4d7573742068617665206174206c656173742074776f206f7074696f6e732e00600082015250565b6000611d9d601f836119a4565b9150611da882611d67565b602082019050919050565b60006020820190508181036000830152611dcc81611d90565b9050919050565b7f4e487b7100000000000000000000000000000000000000000000000000000000600052602260045260246000fd5b60006002820490506001821680611e1a57607f821691505b602082108103611e2d57611e2c611dd3565b5b50919050565b60008190508160005260206000209050919050565b60006020601f8301049050919050565b600082821b905092915050565b600060088302611e957fffffffffffffffffffffffffffffffffffffffffffffffffffffffffffffffff82611e58565b611e9f8683611e58565b95508019841693508086168417925050509392505050565b6000819050919050565b6000611edc611ed7611ed2846114a6565b611eb7565b6114a6565b9050919050565b6000819050919050565b611ef683611ec1565b611f0a611f0282611ee3565b848454611e65565b825550505050565b600090565b611f1f611f12565b611f2a818484611eed565b505050565b5b81811015611f4e57611f43600082611f17565b600181019050611f30565b5050565b601f821115611f9357611f6481611e33565b611f6d84611e48565b81016020851015611f7c578190505b611f90611f8885611e48565b830182611f2f565b50505b505050565b600082821c905092915050565b6000611fb660001984600802611f98565b1980831691505092915050565b6000611fcf8383611fa5565b9150826002028217905092915050565b611fe882611999565b67ffffffffffffffff81111561200157612000611710565b5b61200b8254611e02565b612016828285611f52565b600060209050601f8311600181146120495760008415612037578287015190505b6120418582611fc3565b8655506120a9565b601f19841661205786611e33565b60005b8281101561207f5784890151825560018201915060208501945060208101905061205a565b8683101561209c5784890151612098601f891682611fa5565b8355505b6001600288020188555050505b505050505050565b600081519050919050565b600082825260208201905092915050565b6000819050602082019050919050565b600082825260208201905092915050565b60006120f982611999565b61210381856120dd565b93506121138185602086016119b5565b61211c816116ff565b840191505092915050565b600061213383836120ee565b905092915050565b6000602082019050919050565b6000612153826120b1565b61215d81856120bc565b93508360208202850161216f856120cd565b8060005b858110156121ab578484038952815161218c8582612127565b94506121978361213b565b925060208a01995050600181019050612173565b50829750879550505050505092915050565b600060408201905081810360008301526121d781856119df565b905081810360208301526121eb8184612148565b90509392505050565b7f41207175657374696f6e206d75737420626520736574206265666f726520627560008201527f79696e67207469636b6574732e00000000000000000000000000000000000000602082015250565b6000612250602d836119a4565b915061225b826121f4565b604082019050919050565b6000602082019050818103600083015261227f81612243565b9050919050565b7f496e76616c696420616e7377657220696e6465782e0000000000000000000000600082015250565b60006122bc6015836119a4565b91506122c782612286565b602082019050919050565b600060208201905081810360008301526122eb816122af565b9050919050565b7f4d75737420627579206174206c65617374206f6e65207469636b65742e000000600082015250565b6000612328601d836119a4565b9150612333826122f2565b602082019050919050565b600060208201905081810360008301526123578161231b565b9050919050565b7f496e636f7272656374204554482076616c75652073656e742e00000000000000600082015250565b60006123946019836119a4565b915061239f8261235e565b602082019050919050565b600060208201905081810360008301526123c381612387565b9050919050565b60006040820190506123df60008301856114b0565b6123ec60208301846114b0565b939250505056fea264697066735822122033b82aeadecc5e6eb77cb6ef1ab23a037a40320bdd9d5f5581078fbc8c2155ce64736f6c634300081c0033",
  "linkReferences": {},
  "deployedLinkReferences": {}
}