{
  "_format": "hh-sol-artifact-1",
  "contractName": "DungeonCrawler",
  "sourceName": "contracts/dungeon_crawler.sol",
  "abi": [
    {
      "inputs": [
        {
          "internalType": "address",
          "name": "_freeXTicket",
          "type": "address"
        },
        {
          "internalType": "address",
          "name": "_ticketToken",
          "type": "address"
        }
      ],
      "stateMutability": "nonpayable",
      "type": "constructor"
    },
    {
      "inputs": [
        {
          "internalType": "address",
          "name": "owner",
          "type": "address"
        }
      ],
      "name": "OwnableInvalidOwner",
      "type": "error"
    },
    {
      "inputs": [
        {
          "internalType": "address",
          "name": "account",
          "type": "address"
        }
      ],
      "name": "OwnableUnauthorizedAccount",
      "type": "error"
    },
    {
      "anonymous": false,
      "inputs": [
        {
          "indexed": false,
          "internalType": "uint256",
          "name": "startIndex",
          "type": "uint256"
        },
        {
          "indexed": false,
          "internalType": "uint256",
          "name": "endIndex",
          "type": "uint256"
        },
        {
          "indexed": false,
          "internalType": "uint256",
          "name": "round",
          "type": "uint256"
        }
      ],
      "name": "DistributionBatchProcessed",
      "type": "event"
    },
    {
      "anonymous": false,
      "inputs": [
        {
          "indexed": false,
          "internalType": "address",
          "name": "newAddress",
          "type": "address"
        }
      ],
      "name": "FreeXTicketUpdated",
      "type": "event"
    },
    {
      "anonymous": false,
      "inputs": [
        {
          "indexed": false,
          "internalType": "uint256",
          "name": "burned",
          "type": "uint256"
        },
        {
          "indexed": false,
          "internalType": "uint256",
          "name": "ownerFees",
          "type": "uint256"
        },
        {
          "indexed": false,
          "internalType": "uint256",
          "name": "prizePool",
          "type": "uint256"
        }
      ],
      "name": "FundsDistributed",
      "type": "event"
    },
    {
      "anonymous": false,
      "inputs": [
        {
          "indexed": true,
          "internalType": "address",
          "name": "previousOwner",
          "type": "address"
        },
        {
          "indexed": true,
          "internalType": "address",
          "name": "newOwner",
          "type": "address"
        }
      ],
      "name": "OwnershipTransferred",
      "type": "event"
    },
    {
      "anonymous": false,
      "inputs": [
        {
          "indexed": false,
          "internalType": "string",
          "name": "text",
          "type": "string"
        },
        {
          "indexed": false,
          "internalType": "string[]",
          "name": "options",
          "type": "string[]"
        }
      ],
      "name": "QuestionSet",
      "type": "event"
    },
    {
      "anonymous": false,
      "inputs": [
        {
          "indexed": false,
          "internalType": "uint256",
          "name": "winningOption",
          "type": "uint256"
        }
      ],
      "name": "RoundEnded",
      "type": "event"
    },
    {
      "anonymous": false,
      "inputs": [],
      "name": "RoundPaused",
      "type": "event"
    },
    {
      "anonymous": false,
      "inputs": [],
      "name": "RoundResumed",
      "type": "event"
    },
    {
      "anonymous": false,
      "inputs": [
        {
          "indexed": true,
          "internalType": "address",
          "name": "buyer",
          "type": "address"
        },
        {
          "indexed": false,
          "internalType": "uint256",
          "name": "answerIndex",
          "type": "uint256"
        },
        {
          "indexed": false,
          "internalType": "uint256",
          "name": "numTickets",
          "type": "uint256"
        }
      ],
      "name": "TicketPurchased",
      "type": "event"
    },
    {
      "anonymous": false,
      "inputs": [
        {
          "indexed": false,
          "internalType": "address",
          "name": "newTicketToken",
          "type": "address"
        }
      ],
      "name": "TicketTokenUpdated",
      "type": "event"
    },
    {
      "inputs": [
        {
          "internalType": "uint256",
          "name": "",
          "type": "uint256"
        },
        {
          "internalType": "uint256",
          "name": "",
          "type": "uint256"
        }
      ],
      "name": "allTicketHoldersPerRound",
      "outputs": [
        {
          "internalType": "address",
          "name": "",
          "type": "address"
        }
      ],
      "stateMutability": "view",
      "type": "function"
    },
    {
      "inputs": [],
      "name": "burnPercentage",
      "outputs": [
        {
          "internalType": "uint256",
          "name": "",
          "type": "uint256"
        }
      ],
      "stateMutability": "view",
      "type": "function"
    },
    {
      "inputs": [
        {
          "internalType": "uint256",
          "name": "answerIndex",
          "type": "uint256"
        },
        {
          "internalType": "uint256",
          "name": "numTickets",
          "type": "uint256"
        }
      ],
      "name": "buyTickets",
      "outputs": [],
      "stateMutability": "nonpayable",
      "type": "function"
    },
    {
      "inputs": [],
      "name": "currentQuestion",
      "outputs": [
        {
          "internalType": "string",
          "name": "text",
          "type": "string"
        },
        {
          "internalType": "bool",
          "name": "isSet",
          "type": "bool"
        }
      ],
      "stateMutability": "view",
      "type": "function"
    },
    {
      "inputs": [
        {
          "internalType": "address",
          "name": "user",
          "type": "address"
        }
      ],
      "name": "debugUserTickets",
      "outputs": [
        {
          "internalType": "uint256[]",
          "name": "",
          "type": "uint256[]"
        }
      ],
      "stateMutability": "view",
      "type": "function"
    },
    {
      "inputs": [
        {
          "internalType": "uint256",
          "name": "batchSize",
          "type": "uint256"
        }
      ],
      "name": "distributePrizesBatch",
      "outputs": [],
      "stateMutability": "nonpayable",
      "type": "function"
    },
    {
      "inputs": [],
      "name": "distributionIndex",
      "outputs": [
        {
          "internalType": "uint256",
          "name": "",
          "type": "uint256"
        }
      ],
      "stateMutability": "view",
      "type": "function"
    },
    {
      "inputs": [
        {
          "internalType": "uint256",
          "name": "_burnPercentage",
          "type": "uint256"
        },
        {
          "internalType": "uint256",
          "name": "_feePercentage",
          "type": "uint256"
        },
        {
          "internalType": "uint256",
          "name": "_prizePercentage",
          "type": "uint256"
        },
        {
          "internalType": "uint256",
          "name": "_correctAnswerIndex",
          "type": "uint256"
        },
        {
          "internalType": "string",
          "name": "_correctAnswer",
          "type": "string"
        }
      ],
      "name": "endRound",
      "outputs": [],
      "stateMutability": "nonpayable",
      "type": "function"
    },
    {
      "inputs": [],
      "name": "feePercentage",
      "outputs": [
        {
          "internalType": "uint256",
          "name": "",
          "type": "uint256"
        }
      ],
      "stateMutability": "view",
      "type": "function"
    },
    {
      "inputs": [],
      "name": "freeXTicket",
      "outputs": [
        {
          "internalType": "contract IERC20",
          "name": "",
          "type": "address"
        }
      ],
      "stateMutability": "view",
      "type": "function"
    },
    {
      "inputs": [
        {
          "internalType": "uint256",
          "name": "roundNumber",
          "type": "uint256"
        }
      ],
      "name": "getAllTicketHolders",
      "outputs": [
        {
          "internalType": "address[]",
          "name": "",
          "type": "address[]"
        }
      ],
      "stateMutability": "view",
      "type": "function"
    },
    {
      "inputs": [],
      "name": "getCurrentRound",
      "outputs": [
        {
          "internalType": "uint256",
          "name": "",
          "type": "uint256"
        }
      ],
      "stateMutability": "view",
      "type": "function"
    },
    {
      "inputs": [],
      "name": "getNumOptions",
      "outputs": [
        {
          "internalType": "uint256",
          "name": "",
          "type": "uint256"
        }
      ],
      "stateMutability": "view",
      "type": "function"
    },
    {
      "inputs": [
        {
          "internalType": "uint256",
          "name": "roundNumber",
          "type": "uint256"
        }
      ],
      "name": "getRoundParticipants",
      "outputs": [
        {
          "internalType": "address[]",
          "name": "participants",
          "type": "address[]"
        },
        {
          "internalType": "uint256[][]",
          "name": "ticketsPerParticipant",
          "type": "uint256[][]"
        }
      ],
      "stateMutability": "view",
      "type": "function"
    },
    {
      "inputs": [
        {
          "internalType": "address",
          "name": "user",
          "type": "address"
        },
        {
          "internalType": "uint256",
          "name": "answerIndex",
          "type": "uint256"
        }
      ],
      "name": "getTicketCount",
      "outputs": [
        {
          "internalType": "uint256",
          "name": "",
          "type": "uint256"
        }
      ],
      "stateMutability": "view",
      "type": "function"
    },
    {
      "inputs": [],
      "name": "getTotalRounds",
      "outputs": [
        {
          "internalType": "uint256",
          "name": "",
          "type": "uint256"
        }
      ],
      "stateMutability": "view",
      "type": "function"
    },
    {
      "inputs": [
        {
          "internalType": "uint256",
          "name": "roundNumber",
          "type": "uint256"
        },
        {
          "internalType": "uint256",
          "name": "answerIndex",
          "type": "uint256"
        }
      ],
      "name": "getTotalTicketsPerAnswer",
      "outputs": [
        {
          "internalType": "uint256",
          "name": "",
          "type": "uint256"
        }
      ],
      "stateMutability": "view",
      "type": "function"
    },
    {
      "inputs": [],
      "name": "isPaused",
      "outputs": [
        {
          "internalType": "bool",
          "name": "",
          "type": "bool"
        }
      ],
      "stateMutability": "view",
      "type": "function"
    },
    {
      "inputs": [],
      "name": "owner",
      "outputs": [
        {
          "internalType": "address",
          "name": "",
          "type": "address"
        }
      ],
      "stateMutability": "view",
      "type": "function"
    },
    {
      "inputs": [],
      "name": "pauseRound",
      "outputs": [],
      "stateMutability": "nonpayable",
      "type": "function"
    },
    {
      "inputs": [],
      "name": "pendingCorrectAnswerIndex",
      "outputs": [
        {
          "internalType": "uint256",
          "name": "",
          "type": "uint256"
        }
      ],
      "stateMutability": "view",
      "type": "function"
    },
    {
      "inputs": [],
      "name": "pendingTotalPrizeAmount",
      "outputs": [
        {
          "internalType": "uint256",
          "name": "",
          "type": "uint256"
        }
      ],
      "stateMutability": "view",
      "type": "function"
    },
    {
      "inputs": [],
      "name": "pendingWinningTickets",
      "outputs": [
        {
          "internalType": "uint256",
          "name": "",
          "type": "uint256"
        }
      ],
      "stateMutability": "view",
      "type": "function"
    },
    {
      "inputs": [],
      "name": "prizePercentage",
      "outputs": [
        {
          "internalType": "uint256",
          "name": "",
          "type": "uint256"
        }
      ],
      "stateMutability": "view",
      "type": "function"
    },
    {
      "inputs": [],
      "name": "renounceOwnership",
      "outputs": [],
      "stateMutability": "nonpayable",
      "type": "function"
    },
    {
      "inputs": [],
      "name": "resumeRound",
      "outputs": [],
      "stateMutability": "nonpayable",
      "type": "function"
    },
    {
      "inputs": [],
      "name": "round",
      "outputs": [
        {
          "internalType": "uint256",
          "name": "",
          "type": "uint256"
        }
      ],
      "stateMutability": "view",
      "type": "function"
    },
    {
      "inputs": [],
      "name": "roundEnded",
      "outputs": [
        {
          "internalType": "bool",
          "name": "",
          "type": "bool"
        }
      ],
      "stateMutability": "view",
      "type": "function"
    },
    {
      "inputs": [
        {
          "internalType": "string",
          "name": "_text",
          "type": "string"
        },
        {
          "internalType": "string[]",
          "name": "_options",
          "type": "string[]"
        },
        {
          "internalType": "bytes32",
          "name": "_correctAnswerHash",
          "type": "bytes32"
        }
      ],
      "name": "setQuestion",
      "outputs": [],
      "stateMutability": "nonpayable",
      "type": "function"
    },
    {
      "inputs": [
        {
          "internalType": "uint256",
          "name": "_ticketPrice",
          "type": "uint256"
        }
      ],
      "name": "setTicketPrice",
      "outputs": [],
      "stateMutability": "nonpayable",
      "type": "function"
    },
    {
      "inputs": [],
      "name": "ticketPrice",
      "outputs": [
        {
          "internalType": "uint256",
          "name": "",
          "type": "uint256"
        }
      ],
      "stateMutability": "view",
      "type": "function"
    },
    {
      "inputs": [],
      "name": "ticketToken",
      "outputs": [
        {
          "internalType": "contract IERC20",
          "name": "",
          "type": "address"
        }
      ],
      "stateMutability": "view",
      "type": "function"
    },
    {
      "inputs": [
        {
          "internalType": "address",
          "name": "",
          "type": "address"
        },
        {
          "internalType": "uint256",
          "name": "",
          "type": "uint256"
        },
        {
          "internalType": "uint256",
          "name": "",
          "type": "uint256"
        }
      ],
      "name": "tickets",
      "outputs": [
        {
          "internalType": "uint256",
          "name": "",
          "type": "uint256"
        }
      ],
      "stateMutability": "view",
      "type": "function"
    },
    {
      "inputs": [
        {
          "internalType": "uint256",
          "name": "",
          "type": "uint256"
        },
        {
          "internalType": "uint256",
          "name": "",
          "type": "uint256"
        }
      ],
      "name": "totalTicketsPerAnswer",
      "outputs": [
        {
          "internalType": "uint256",
          "name": "",
          "type": "uint256"
        }
      ],
      "stateMutability": "view",
      "type": "function"
    },
    {
      "inputs": [
        {
          "internalType": "address",
          "name": "newOwner",
          "type": "address"
        }
      ],
      "name": "transferOwnership",
      "outputs": [],
      "stateMutability": "nonpayable",
      "type": "function"
    },
    {
      "inputs": [
        {
          "internalType": "address",
          "name": "newTokenAddress",
          "type": "address"
        }
      ],
      "name": "updateFTTInfo",
      "outputs": [],
      "stateMutability": "nonpayable",
      "type": "function"
    },
    {
      "inputs": [
        {
          "internalType": "address",
          "name": "newTicketToken",
          "type": "address"
        }
      ],
      "name": "updateTicketToken",
      "outputs": [],
      "stateMutability": "nonpayable",
      "type": "function"
    },
    {
      "inputs": [
        {
          "internalType": "address",
          "name": "tokenAddress",
          "type": "address"
        },
        {
          "internalType": "address payable",
          "name": "recipient",
          "type": "address"
        },
        {
          "internalType": "uint256",
          "name": "amount",
          "type": "uint256"
        }
      ],
      "name": "withdraw",
      "outputs": [],
      "stateMutability": "nonpayable",
      "type": "function"
    }
  ],
  "bytecode": "0x608060405269021e19e0c9bab240000060045560006005556000600b60006101000a81548160ff02191690831515021790555034801561003e57600080fd5b506040516146d23803806146d2833981810160405281019061006091906102ad565b33600073ffffffffffffffffffffffffffffffffffffffff168173ffffffffffffffffffffffffffffffffffffffff16036100d35760006040517f1e4fbdf70000000000000000000000000000000000000000000000000000000081526004016100ca91906102fc565b60405180910390fd5b6100e28161018660201b60201c565b5081600b60016101000a81548173ffffffffffffffffffffffffffffffffffffffff021916908373ffffffffffffffffffffffffffffffffffffffff16021790555080600c60006101000a81548173ffffffffffffffffffffffffffffffffffffffff021916908373ffffffffffffffffffffffffffffffffffffffff16021790555061038460068190555060646007819055506123286008819055505050610317565b60008060009054906101000a900473ffffffffffffffffffffffffffffffffffffffff169050816000806101000a81548173ffffffffffffffffffffffffffffffffffffffff021916908373ffffffffffffffffffffffffffffffffffffffff1602179055508173ffffffffffffffffffffffffffffffffffffffff168173ffffffffffffffffffffffffffffffffffffffff167f8be0079c531659141344cd1fd0a4f28419497f9722a3daafe3b4186f6b6457e060405160405180910390a35050565b600080fd5b600073ffffffffffffffffffffffffffffffffffffffff82169050919050565b600061027a8261024f565b9050919050565b61028a8161026f565b811461029557600080fd5b50565b6000815190506102a781610281565b92915050565b600080604083850312156102c4576102c361024a565b5b60006102d285828601610298565b92505060206102e385828601610298565b9150509250929050565b6102f68161026f565b82525050565b600060208201905061031160008301846102ed565b92915050565b6143ac806103266000396000f3fe608060405234801561001057600080fd5b50600436106102325760003560e01c80638da5cb5b11610130578063c10401a2116100b8578063ec30a4691161007c578063ec30a4691461065d578063ee60313514610679578063f01f20df14610697578063f2fde38b146106b5578063f76ebbb9146106d157610232565b8063c10401a2146105dc578063d58a0a3b146105e6578063d5ed4d5a14610604578063d9caed1214610622578063e7dea0221461063e57610232565b8063a32bf597116100ff578063a32bf59714610522578063a5763c8214610540578063ae8910ff14610570578063b187bd261461058e578063c0d10265146105ac57610232565b80638da5cb5b1461049a578063905d4636146104b857806392c9031a146104d4578063a001ecdd1461050457610232565b806338f58c1a116101be57806370f478251161018257806370f47825146103f6578063715018a6146104265780637393d9b5146104305780638627df46146104605780638d23f9d51461047c57610232565b806338f58c1a1461036657806360a7847414610384578063637a6a31146103a05780636cb6cfb3146103be5780636ed7f404146103da57610232565b80631598165011610205578063159816501461029b5780631a3d3ff3146102b75780631ad1ec22146102e75780632115f4d11461030557806337305df51461033557610232565b806311dc7335146102375780631209b1f614610255578063146ca53114610273578063156f58af14610291575b600080fd5b61023f6106ef565b60405161024c9190612803565b60405180910390f35b61025d6106f5565b60405161026a9190612803565b60405180910390f35b61027b6106fb565b6040516102889190612803565b60405180910390f35b610299610701565b005b6102b560048036038101906102b0919061285e565b610752565b005b6102d160048036038101906102cc919061285e565b610764565b6040516102de919061297b565b60405180910390f35b6102ef610805565b6040516102fc9190612803565b60405180910390f35b61031f600480360381019061031a91906129c9565b61080f565b60405161032c9190612803565b60405180910390f35b61034f600480360381019061034a919061285e565b61084d565b60405161035d929190612b9c565b60405180910390f35b61036e610a36565b60405161037b9190612803565b60405180910390f35b61039e6004803603810190610399919061285e565b610a3c565b005b6103a8610dc6565b6040516103b59190612803565b60405180910390f35b6103d860048036038101906103d39190612d19565b610dd5565b005b6103f460048036038101906103ef9190612db0565b611285565b005b610410600480360381019061040b9190612ddd565b611308565b60405161041d9190612803565b60405180910390f35b61042e611339565b005b61044a60048036038101906104459190612e1d565b61134d565b6040516104579190612803565b60405180910390f35b61047a60048036038101906104759190612ddd565b611438565b005b610484611bd9565b6040516104919190612803565b60405180910390f35b6104a2611bdf565b6040516104af9190612e6c565b60405180910390f35b6104d260048036038101906104cd9190612db0565b611c08565b005b6104ee60048036038101906104e99190612db0565b611c8b565b6040516104fb9190612ef6565b60405180910390f35b61050c611d35565b6040516105199190612803565b60405180910390f35b61052a611d3b565b6040516105379190612803565b60405180910390f35b61055a60048036038101906105559190612ddd565b611d45565b6040516105679190612803565b60405180910390f35b610578611d7f565b6040516105859190612f33565b60405180910390f35b610596611d92565b6040516105a39190612f33565b60405180910390f35b6105c660048036038101906105c19190612ddd565b611da5565b6040516105d39190612e6c565b60405180910390f35b6105e4611df3565b005b6105ee611e44565b6040516105fb9190612803565b60405180910390f35b61060c611e4a565b6040516106199190612fad565b60405180910390f35b61063c60048036038101906106379190613006565b611e70565b005b610646612126565b6040516106549291906130d8565b60405180910390f35b61067760048036038101906106729190613224565b6121cd565b005b610681612476565b60405161068e9190612fad565b60405180910390f35b61069f61249c565b6040516106ac9190612803565b60405180910390f35b6106cf60048036038101906106ca9190612db0565b6124a2565b005b6106d9612528565b6040516106e69190612803565b60405180910390f35b60085481565b60045481565b60055481565b61070961252e565b6001600b60006101000a81548160ff0219169083151502179055507f7f7c10f994bb0e711623b04af12db1d10f5412a0ffacbcc59fa493c9cbb2236d60405160405180910390a1565b61075a61252e565b8060048190555050565b6060601360008381526020019081526020016000208054806020026020016040519081016040528092919081815260200182805480156107f957602002820191906000526020600020905b8160009054906101000a900473ffffffffffffffffffffffffffffffffffffffff1673ffffffffffffffffffffffffffffffffffffffff16815260200190600101908083116107af575b50505050509050919050565b6000600554905090565b6011602052826000526040600020602052816000526040600020818154811061083757600080fd5b9060005260206000200160009250925050505481565b606080601360008481526020019081526020016000208054806020026020016040519081016040528092919081815260200182805480156108e357602002820191906000526020600020905b8160009054906101000a900473ffffffffffffffffffffffffffffffffffffffff1673ffffffffffffffffffffffffffffffffffffffff1681526020019060010190808311610899575b505050505091506000825190508067ffffffffffffffff81111561090a57610909612bee565b5b60405190808252806020026020018201604052801561093d57816020015b60608152602001906001900390816109285790505b50915060005b81811015610a2f5760116000858381518110610962576109616132af565b5b602002602001015173ffffffffffffffffffffffffffffffffffffffff1673ffffffffffffffffffffffffffffffffffffffff16815260200190815260200160002060008681526020019081526020016000208054806020026020016040519081016040528092919081815260200182805480156109ff57602002820191906000526020600020905b8154815260200190600101908083116109eb575b5050505050838281518110610a1757610a166132af565b5b60200260200101819052508080600101915050610943565b5050915091565b600d5481565b610a4461252e565b600c60149054906101000a900460ff16610a93576040517f08c379a0000000000000000000000000000000000000000000000000000000008152600401610a8a90613350565b60405180910390fd5b6000601360006005548152602001908152602001600020805490509050600082118015610ac1575080600d54105b610b00576040517f08c379a0000000000000000000000000000000000000000000000000000000008152600401610af7906133e2565b60405180910390fd5b600082600d54610b109190613431565b905081811115610b1e578190505b6000600d5490505b81811015610d1f5760006013600060055481526020019081526020016000208281548110610b5757610b566132af565b5b9060005260206000200160009054906101000a900473ffffffffffffffffffffffffffffffffffffffff1690506000601160008373ffffffffffffffffffffffffffffffffffffffff1673ffffffffffffffffffffffffffffffffffffffff1681526020019081526020016000206000600554815260200190815260200160002060105481548110610bec57610beb6132af565b5b90600052602060002001549050600081118015610c0b57506000600e54115b15610d10576000600e5482600f54610c239190613465565b610c2d91906134d6565b9050600c60009054906101000a900473ffffffffffffffffffffffffffffffffffffffff1673ffffffffffffffffffffffffffffffffffffffff1663a9059cbb84836040518363ffffffff1660e01b8152600401610c8c929190613507565b6020604051808303816000875af1158015610cab573d6000803e3d6000fd5b505050506040513d601f19601f82011682018060405250810190610ccf919061355c565b610d0e576040517f08c379a0000000000000000000000000000000000000000000000000000000008152600401610d05906135d5565b60405180910390fd5b505b50508080600101915050610b26565b507fa815ff3625e77ded56dc39cba9a035ceecd9fe02e5180f806dd0a102e7789a0a600d5482600554604051610d57939291906135f5565b60405180910390a180600d8190555081600d5410610dc1576000600c60146101000a81548160ff0219169083151502179055506000600160020160006101000a81548160ff02191690831515021790555060056000815480929190610dbb9061362c565b91905055505b505050565b60006001800180549050905090565b610ddd61252e565b848484612710818385610df09190613431565b610dfa9190613431565b1115610e3b576040517f08c379a0000000000000000000000000000000000000000000000000000000008152600401610e32906136e6565b60405180910390fd5b600160020160009054906101000a900460ff16610e8d576040517f08c379a0000000000000000000000000000000000000000000000000000000008152600401610e8490613778565b60405180910390fd5b60095484604051602001610ea191906137d4565b6040516020818303038152906040528051906020012014610ef7576040517f08c379a0000000000000000000000000000000000000000000000000000000008152600401610eee90613837565b60405180910390fd5b87600681905550866007819055508560088190555084600a819055506000600c60009054906101000a900473ffffffffffffffffffffffffffffffffffffffff1673ffffffffffffffffffffffffffffffffffffffff166370a08231306040518263ffffffff1660e01b8152600401610f709190612e6c565b602060405180830381865afa158015610f8d573d6000803e3d6000fd5b505050506040513d601f19601f82011682018060405250810190610fb1919061386c565b9050600061271060065483610fc69190613465565b610fd091906134d6565b9050600061271060075484610fe59190613465565b610fef91906134d6565b90506000612710600854856110049190613465565b61100e91906134d6565b9050600c60009054906101000a900473ffffffffffffffffffffffffffffffffffffffff1673ffffffffffffffffffffffffffffffffffffffff1663a9059cbb61dead856040518363ffffffff1660e01b815260040161106f929190613507565b6020604051808303816000875af115801561108e573d6000803e3d6000fd5b505050506040513d601f19601f820116820180604052508101906110b2919061355c565b6110f1576040517f08c379a00000000000000000000000000000000000000000000000000000000081526004016110e8906138e5565b60405180910390fd5b600c60009054906101000a900473ffffffffffffffffffffffffffffffffffffffff1673ffffffffffffffffffffffffffffffffffffffff1663a9059cbb611137611bdf565b846040518363ffffffff1660e01b8152600401611155929190613507565b6020604051808303816000875af1158015611174573d6000803e3d6000fd5b505050506040513d601f19601f82011682018060405250810190611198919061355c565b6111d7576040517f08c379a00000000000000000000000000000000000000000000000000000000081526004016111ce90613951565b60405180910390fd5b80600f8190555088601081905550601260006005548152602001908152602001600020898154811061120c5761120b6132af565b5b9060005260206000200154600e819055506001600c60146101000a81548160ff0219169083151502179055506000600d819055507faa97d4a7b3afec5f55c25ca8593dde6929d4455fad650a16fa4334004293a6188960405161126f9190612803565b60405180910390a1505050505050505050505050565b61128d61252e565b80600b60016101000a81548173ffffffffffffffffffffffffffffffffffffffff021916908373ffffffffffffffffffffffffffffffffffffffff1602179055507fd2c01c9801a2368be4921f39aa972f7c4f6120e7c690c548e560fb70a76d7805816040516112fd9190612e6c565b60405180910390a150565b6012602052816000526040600020818154811061132457600080fd5b90600052602060002001600091509150505481565b61134161252e565b61134b60006125b5565b565b600080601160008573ffffffffffffffffffffffffffffffffffffffff1673ffffffffffffffffffffffffffffffffffffffff168152602001908152602001600020600060055481526020019081526020016000208054806020026020016040519081016040528092919081815260200182805480156113ec57602002820191906000526020600020905b8154815260200190600101908083116113d8575b50505050509050600081511480611404575080518310155b15611413576000915050611432565b808381518110611426576114256132af565b5b60200260200101519150505b92915050565b600160020160009054906101000a900460ff1661148a576040517f08c379a0000000000000000000000000000000000000000000000000000000008152600401611481906139e3565b60405180910390fd5b600b60009054906101000a900460ff16156114da576040517f08c379a00000000000000000000000000000000000000000000000000000000081526004016114d190613a4f565b60405180910390fd5b60018001805490508210611523576040517f08c379a000000000000000000000000000000000000000000000000000000000815260040161151a90613abb565b60405180910390fd5b60008111611566576040517f08c379a000000000000000000000000000000000000000000000000000000000815260040161155d90613b27565b60405180910390fd5b6000670de0b6b3a76400009050600081836115819190613465565b90506000600b60019054906101000a900473ffffffffffffffffffffffffffffffffffffffff1673ffffffffffffffffffffffffffffffffffffffff166370a08231336040518263ffffffff1660e01b81526004016115e09190612e6c565b602060405180830381865afa1580156115fd573d6000803e3d6000fd5b505050506040513d601f19601f82011682018060405250810190611621919061386c565b90506000838261163191906134d6565b90506000808690506000831115611754578683106116555784915060009050611672565b85836116619190613465565b9150828761166f9190613b47565b90505b600b60019054906101000a900473ffffffffffffffffffffffffffffffffffffffff1673ffffffffffffffffffffffffffffffffffffffff166323b872dd3330856040518463ffffffff1660e01b81526004016116d193929190613b7b565b6020604051808303816000875af11580156116f0573d6000803e3d6000fd5b505050506040513d601f19601f82011682018060405250810190611714919061355c565b611753576040517f08c379a000000000000000000000000000000000000000000000000000000000815260040161174a90613bfe565b60405180910390fd5b5b60008111156118525760008160045461176d9190613465565b9050600c60009054906101000a900473ffffffffffffffffffffffffffffffffffffffff1673ffffffffffffffffffffffffffffffffffffffff166323b872dd3330846040518463ffffffff1660e01b81526004016117ce93929190613b7b565b6020604051808303816000875af11580156117ed573d6000803e3d6000fd5b505050506040513d601f19601f82011682018060405250810190611811919061355c565b611850576040517f08c379a000000000000000000000000000000000000000000000000000000000815260040161184790613c6a565b60405180910390fd5b505b6000601160003373ffffffffffffffffffffffffffffffffffffffff1673ffffffffffffffffffffffffffffffffffffffff168152602001908152602001600020600060055481526020019081526020016000209050600081805490500361196b57600180018054905067ffffffffffffffff8111156118d5576118d4612bee565b5b6040519080825280602002602001820160405280156119035781602001602082028036833780820191505090505b50601160003373ffffffffffffffffffffffffffffffffffffffff1673ffffffffffffffffffffffffffffffffffffffff168152602001908152602001600020600060055481526020019081526020016000209080519060200190611969929190612681565b505b87601160003373ffffffffffffffffffffffffffffffffffffffff1673ffffffffffffffffffffffffffffffffffffffff168152602001908152602001600020600060055481526020019081526020016000208a815481106119d0576119cf6132af565b5b9060005260206000200160008282546119e99190613431565b92505081905550876012600060055481526020019081526020016000208a81548110611a1857611a176132af565b5b906000526020600020016000828254611a319190613431565b92505081905550601460003373ffffffffffffffffffffffffffffffffffffffff1673ffffffffffffffffffffffffffffffffffffffff1681526020019081526020016000206000600554815260200190815260200160002060009054906101000a900460ff16611b7e576001601460003373ffffffffffffffffffffffffffffffffffffffff1673ffffffffffffffffffffffffffffffffffffffff1681526020019081526020016000206000600554815260200190815260200160002060006101000a81548160ff021916908315150217905550601360006005548152602001908152602001600020339080600181540180825580915050600190039060005260206000200160009091909190916101000a81548173ffffffffffffffffffffffffffffffffffffffff021916908373ffffffffffffffffffffffffffffffffffffffff1602179055505b3373ffffffffffffffffffffffffffffffffffffffff167f2a91574e12ad96234e84923e146b0946ecfb871cd8d5534dc1fdcbe87a7c01b38a8a604051611bc6929190613c8a565b60405180910390a2505050505050505050565b600e5481565b60008060009054906101000a900473ffffffffffffffffffffffffffffffffffffffff16905090565b611c1061252e565b80600c60006101000a81548173ffffffffffffffffffffffffffffffffffffffff021916908373ffffffffffffffffffffffffffffffffffffffff1602179055507ff2f613d6296eb6d58404b70748bc4d6b5c09f49b5ca94f6b6048e9d06a266fe881604051611c809190612e6c565b60405180910390a150565b6060601160008373ffffffffffffffffffffffffffffffffffffffff1673ffffffffffffffffffffffffffffffffffffffff16815260200190815260200160002060006005548152602001908152602001600020805480602002602001604051908101604052809291908181526020018280548015611d2957602002820191906000526020600020905b815481526020019060010190808311611d15575b50505050509050919050565b60075481565b6000600554905090565b6000601260008481526020019081526020016000208281548110611d6c57611d6b6132af565b5b9060005260206000200154905092915050565b600c60149054906101000a900460ff1681565b600b60009054906101000a900460ff1681565b60136020528160005260406000208181548110611dc157600080fd5b906000526020600020016000915091509054906101000a900473ffffffffffffffffffffffffffffffffffffffff1681565b611dfb61252e565b6000600b60006101000a81548160ff0219169083151502179055507fea6117dad2620a0ca2c1af74b4c6996ccff70e5006afaa8ce2accb12d75db20260405160405180910390a1565b600f5481565b600c60009054906101000a900473ffffffffffffffffffffffffffffffffffffffff1681565b611e7861252e565b600073ffffffffffffffffffffffffffffffffffffffff168373ffffffffffffffffffffffffffffffffffffffff1603611fa15780471015611eef576040517f08c379a0000000000000000000000000000000000000000000000000000000008152600401611ee690613cff565b60405180910390fd5b60008273ffffffffffffffffffffffffffffffffffffffff1682604051611f1590613d50565b60006040518083038185875af1925050503d8060008114611f52576040519150601f19603f3d011682016040523d82523d6000602084013e611f57565b606091505b5050905080611f9b576040517f08c379a0000000000000000000000000000000000000000000000000000000008152600401611f9290613db1565b60405180910390fd5b50612121565b6000839050818173ffffffffffffffffffffffffffffffffffffffff166370a08231306040518263ffffffff1660e01b8152600401611fe09190612e6c565b602060405180830381865afa158015611ffd573d6000803e3d6000fd5b505050506040513d601f19601f82011682018060405250810190612021919061386c565b1015612062576040517f08c379a000000000000000000000000000000000000000000000000000000000815260040161205990613e1d565b60405180910390fd5b8073ffffffffffffffffffffffffffffffffffffffff1663a9059cbb84846040518363ffffffff1660e01b815260040161209d929190613e5e565b6020604051808303816000875af11580156120bc573d6000803e3d6000fd5b505050506040513d601f19601f820116820180604052508101906120e0919061355c565b61211f576040517f08c379a000000000000000000000000000000000000000000000000000000000815260040161211690613ed3565b60405180910390fd5b505b505050565b600180600001805461213790613f22565b80601f016020809104026020016040519081016040528092919081815260200182805461216390613f22565b80156121b05780601f10612185576101008083540402835291602001916121b0565b820191906000526020600020905b81548152906001019060200180831161219357829003601f168201915b5050505050908060020160009054906101000a900460ff16905082565b6121d561252e565b6001825111612219576040517f08c379a000000000000000000000000000000000000000000000000000000000815260040161221090613f9f565b60405180910390fd5b6040518060600160405280848152602001838152602001600115158152506001600082015181600001908161224e9190614161565b50602082015181600101908051906020019061226b9291906126ce565b5060408201518160020160006101000a81548160ff0219169083151502179055509050508060098190555060126000600554815260200190815260200160002060006122b79190612727565b815167ffffffffffffffff8111156122d2576122d1612bee565b5b6040519080825280602002602001820160405280156123005781602001602082028036833780820191505090505b506012600060055481526020019081526020016000209080519060200190612329929190612681565b5060005b6013600060055481526020019081526020016000208054905081101561241657600060146000601360006005548152602001908152602001600020848154811061237a576123796132af565b5b9060005260206000200160009054906101000a900473ffffffffffffffffffffffffffffffffffffffff1673ffffffffffffffffffffffffffffffffffffffff1673ffffffffffffffffffffffffffffffffffffffff1681526020019081526020016000206000600554815260200190815260200160002060006101000a81548160ff021916908315150217905550808060010191505061232d565b5060136000600554815260200190815260200160002060006124389190612748565b7f4036cc6724224308f836b7bb5ccafed36cc517aafc64ff68f6d498882ab45efc838360405161246992919061433f565b60405180910390a1505050565b600b60019054906101000a900473ffffffffffffffffffffffffffffffffffffffff1681565b60065481565b6124aa61252e565b600073ffffffffffffffffffffffffffffffffffffffff168173ffffffffffffffffffffffffffffffffffffffff160361251c5760006040517f1e4fbdf70000000000000000000000000000000000000000000000000000000081526004016125139190612e6c565b60405180910390fd5b612525816125b5565b50565b60105481565b612536612679565b73ffffffffffffffffffffffffffffffffffffffff16612554611bdf565b73ffffffffffffffffffffffffffffffffffffffff16146125b357612577612679565b6040517f118cdaa70000000000000000000000000000000000000000000000000000000081526004016125aa9190612e6c565b60405180910390fd5b565b60008060009054906101000a900473ffffffffffffffffffffffffffffffffffffffff169050816000806101000a81548173ffffffffffffffffffffffffffffffffffffffff021916908373ffffffffffffffffffffffffffffffffffffffff1602179055508173ffffffffffffffffffffffffffffffffffffffff168173ffffffffffffffffffffffffffffffffffffffff167f8be0079c531659141344cd1fd0a4f28419497f9722a3daafe3b4186f6b6457e060405160405180910390a35050565b600033905090565b8280548282559060005260206000209081019282156126bd579160200282015b828111156126bc5782518255916020019190600101906126a1565b5b5090506126ca9190612769565b5090565b828054828255906000526020600020908101928215612716579160200282015b828111156127155782518290816127059190614161565b50916020019190600101906126ee565b5b5090506127239190612786565b5090565b50805460008255906000526020600020908101906127459190612769565b50565b50805460008255906000526020600020908101906127669190612769565b50565b5b8082111561278257600081600090555060010161276a565b5090565b5b808211156127a6576000818161279d91906127aa565b50600101612787565b5090565b5080546127b690613f22565b6000825580601f106127c857506127e7565b601f0160209004906000526020600020908101906127e69190612769565b5b50565b6000819050919050565b6127fd816127ea565b82525050565b600060208201905061281860008301846127f4565b92915050565b6000604051905090565b600080fd5b600080fd5b61283b816127ea565b811461284657600080fd5b50565b60008135905061285881612832565b92915050565b60006020828403121561287457612873612828565b5b600061288284828501612849565b91505092915050565b600081519050919050565b600082825260208201905092915050565b6000819050602082019050919050565b600073ffffffffffffffffffffffffffffffffffffffff82169050919050565b60006128e2826128b7565b9050919050565b6128f2816128d7565b82525050565b600061290483836128e9565b60208301905092915050565b6000602082019050919050565b60006129288261288b565b6129328185612896565b935061293d836128a7565b8060005b8381101561296e57815161295588826128f8565b975061296083612910565b925050600181019050612941565b5085935050505092915050565b60006020820190508181036000830152612995818461291d565b905092915050565b6129a6816128d7565b81146129b157600080fd5b50565b6000813590506129c38161299d565b92915050565b6000806000606084860312156129e2576129e1612828565b5b60006129f0868287016129b4565b9350506020612a0186828701612849565b9250506040612a1286828701612849565b9150509250925092565b600081519050919050565b600082825260208201905092915050565b6000819050602082019050919050565b600081519050919050565b600082825260208201905092915050565b6000819050602082019050919050565b612a7d816127ea565b82525050565b6000612a8f8383612a74565b60208301905092915050565b6000602082019050919050565b6000612ab382612a48565b612abd8185612a53565b9350612ac883612a64565b8060005b83811015612af9578151612ae08882612a83565b9750612aeb83612a9b565b925050600181019050612acc565b5085935050505092915050565b6000612b128383612aa8565b905092915050565b6000602082019050919050565b6000612b3282612a1c565b612b3c8185612a27565b935083602082028501612b4e85612a38565b8060005b85811015612b8a5784840389528151612b6b8582612b06565b9450612b7683612b1a565b925060208a01995050600181019050612b52565b50829750879550505050505092915050565b60006040820190508181036000830152612bb6818561291d565b90508181036020830152612bca8184612b27565b90509392505050565b600080fd5b600080fd5b6000601f19601f8301169050919050565b7f4e487b7100000000000000000000000000000000000000000000000000000000600052604160045260246000fd5b612c2682612bdd565b810181811067ffffffffffffffff82111715612c4557612c44612bee565b5b80604052505050565b6000612c5861281e565b9050612c648282612c1d565b919050565b600067ffffffffffffffff821115612c8457612c83612bee565b5b612c8d82612bdd565b9050602081019050919050565b82818337600083830152505050565b6000612cbc612cb784612c69565b612c4e565b905082815260208101848484011115612cd857612cd7612bd8565b5b612ce3848285612c9a565b509392505050565b600082601f830112612d0057612cff612bd3565b5b8135612d10848260208601612ca9565b91505092915050565b600080600080600060a08688031215612d3557612d34612828565b5b6000612d4388828901612849565b9550506020612d5488828901612849565b9450506040612d6588828901612849565b9350506060612d7688828901612849565b925050608086013567ffffffffffffffff811115612d9757612d9661282d565b5b612da388828901612ceb565b9150509295509295909350565b600060208284031215612dc657612dc5612828565b5b6000612dd4848285016129b4565b91505092915050565b60008060408385031215612df457612df3612828565b5b6000612e0285828601612849565b9250506020612e1385828601612849565b9150509250929050565b60008060408385031215612e3457612e33612828565b5b6000612e42858286016129b4565b9250506020612e5385828601612849565b9150509250929050565b612e66816128d7565b82525050565b6000602082019050612e816000830184612e5d565b92915050565b600082825260208201905092915050565b6000612ea382612a48565b612ead8185612e87565b9350612eb883612a64565b8060005b83811015612ee9578151612ed08882612a83565b9750612edb83612a9b565b925050600181019050612ebc565b5085935050505092915050565b60006020820190508181036000830152612f108184612e98565b905092915050565b60008115159050919050565b612f2d81612f18565b82525050565b6000602082019050612f486000830184612f24565b92915050565b6000819050919050565b6000612f73612f6e612f69846128b7565b612f4e565b6128b7565b9050919050565b6000612f8582612f58565b9050919050565b6000612f9782612f7a565b9050919050565b612fa781612f8c565b82525050565b6000602082019050612fc26000830184612f9e565b92915050565b6000612fd3826128b7565b9050919050565b612fe381612fc8565b8114612fee57600080fd5b50565b60008135905061300081612fda565b92915050565b60008060006060848603121561301f5761301e612828565b5b600061302d868287016129b4565b935050602061303e86828701612ff1565b925050604061304f86828701612849565b9150509250925092565b600081519050919050565b600082825260208201905092915050565b60005b83811015613093578082015181840152602081019050613078565b60008484015250505050565b60006130aa82613059565b6130b48185613064565b93506130c4818560208601613075565b6130cd81612bdd565b840191505092915050565b600060408201905081810360008301526130f2818561309f565b90506131016020830184612f24565b9392505050565b600067ffffffffffffffff82111561312357613122612bee565b5b602082029050602081019050919050565b600080fd5b600061314c61314784613108565b612c4e565b9050808382526020820190506020840283018581111561316f5761316e613134565b5b835b818110156131b657803567ffffffffffffffff81111561319457613193612bd3565b5b8086016131a18982612ceb565b85526020850194505050602081019050613171565b5050509392505050565b600082601f8301126131d5576131d4612bd3565b5b81356131e5848260208601613139565b91505092915050565b6000819050919050565b613201816131ee565b811461320c57600080fd5b50565b60008135905061321e816131f8565b92915050565b60008060006060848603121561323d5761323c612828565b5b600084013567ffffffffffffffff81111561325b5761325a61282d565b5b61326786828701612ceb565b935050602084013567ffffffffffffffff8111156132885761328761282d565b5b613294868287016131c0565b92505060406132a58682870161320f565b9150509250925092565b7f4e487b7100000000000000000000000000000000000000000000000000000000600052603260045260246000fd5b7f526f756e64206e6f7420656e646564206f7220616c726561647920646973747260008201527f6962757465640000000000000000000000000000000000000000000000000000602082015250565b600061333a602683613064565b9150613345826132de565b604082019050919050565b600060208201905081810360008301526133698161332d565b9050919050565b7f496e76616c69642062617463682073697a65206f72206469737472696275746960008201527f6f6e20636f6d706c657465000000000000000000000000000000000000000000602082015250565b60006133cc602b83613064565b91506133d782613370565b604082019050919050565b600060208201905081810360008301526133fb816133bf565b9050919050565b7f4e487b7100000000000000000000000000000000000000000000000000000000600052601160045260246000fd5b600061343c826127ea565b9150613447836127ea565b925082820190508082111561345f5761345e613402565b5b92915050565b6000613470826127ea565b915061347b836127ea565b9250828202613489816127ea565b915082820484148315176134a05761349f613402565b5b5092915050565b7f4e487b7100000000000000000000000000000000000000000000000000000000600052601260045260246000fd5b60006134e1826127ea565b91506134ec836127ea565b9250826134fc576134fb6134a7565b5b828204905092915050565b600060408201905061351c6000830185612e5d565b61352960208301846127f4565b9392505050565b61353981612f18565b811461354457600080fd5b50565b60008151905061355681613530565b92915050565b60006020828403121561357257613571612828565b5b600061358084828501613547565b91505092915050565b7f546f6b656e207072697a65207472616e73666572206661696c65640000000000600082015250565b60006135bf601b83613064565b91506135ca82613589565b602082019050919050565b600060208201905081810360008301526135ee816135b2565b9050919050565b600060608201905061360a60008301866127f4565b61361760208301856127f4565b61362460408301846127f4565b949350505050565b6000613637826127ea565b91507fffffffffffffffffffffffffffffffffffffffffffffffffffffffffffffffff820361366957613668613402565b5b600182019050919050565b7f50657263656e7461676573206d757374206e6f7420657863656564203130302560008201527f2e00000000000000000000000000000000000000000000000000000000000000602082015250565b60006136d0602183613064565b91506136db82613674565b604082019050919050565b600060208201905081810360008301526136ff816136c3565b9050919050565b7f4e6f207175657374696f6e2073657420746f20656e642074686520726f756e6460008201527f2e00000000000000000000000000000000000000000000000000000000000000602082015250565b6000613762602183613064565b915061376d82613706565b604082019050919050565b6000602082019050818103600083015261379181613755565b9050919050565b600081905092915050565b60006137ae82613059565b6137b88185613798565b93506137c8818560208601613075565b80840191505092915050565b60006137e082846137a3565b915081905092915050565b7f496e636f727265637420616e737765722072657665616c65642e000000000000600082015250565b6000613821601a83613064565b915061382c826137eb565b602082019050919050565b6000602082019050818103600083015261385081613814565b9050919050565b60008151905061386681612832565b92915050565b60006020828403121561388257613881612828565b5b600061389084828501613857565b91505092915050565b7f546f6b656e206275726e206661696c6564000000000000000000000000000000600082015250565b60006138cf601183613064565b91506138da82613899565b602082019050919050565b600060208201905081810360008301526138fe816138c2565b9050919050565b7f546f6b656e20666565207472616e73666572206661696c656400000000000000600082015250565b600061393b601983613064565b915061394682613905565b602082019050919050565b6000602082019050818103600083015261396a8161392e565b9050919050565b7f41207175657374696f6e206d75737420626520736574206265666f726520627560008201527f79696e67207469636b6574732e00000000000000000000000000000000000000602082015250565b60006139cd602d83613064565b91506139d882613971565b604082019050919050565b600060208201905081810360008301526139fc816139c0565b9050919050565b7f526f756e64206973207061757365640000000000000000000000000000000000600082015250565b6000613a39600f83613064565b9150613a4482613a03565b602082019050919050565b60006020820190508181036000830152613a6881613a2c565b9050919050565b7f496e76616c696420616e7377657220696e6465782e0000000000000000000000600082015250565b6000613aa5601583613064565b9150613ab082613a6f565b602082019050919050565b60006020820190508181036000830152613ad481613a98565b9050919050565b7f4d75737420627579206174206c65617374206f6e65207469636b65742e000000600082015250565b6000613b11601d83613064565b9150613b1c82613adb565b602082019050919050565b60006020820190508181036000830152613b4081613b04565b9050919050565b6000613b52826127ea565b9150613b5d836127ea565b9250828203905081811115613b7557613b74613402565b5b92915050565b6000606082019050613b906000830186612e5d565b613b9d6020830185612e5d565b613baa60408301846127f4565b949350505050565b7f4672656520746f6b656e207472616e73666572206661696c6564000000000000600082015250565b6000613be8601a83613064565b9150613bf382613bb2565b602082019050919050565b60006020820190508181036000830152613c1781613bdb565b9050919050565b7f5469636b657420746f6b656e207472616e73666572206661696c656400000000600082015250565b6000613c54601c83613064565b9150613c5f82613c1e565b602082019050919050565b60006020820190508181036000830152613c8381613c47565b9050919050565b6000604082019050613c9f60008301856127f4565b613cac60208301846127f4565b9392505050565b7f496e73756666696369656e74204554482062616c616e63650000000000000000600082015250565b6000613ce9601883613064565b9150613cf482613cb3565b602082019050919050565b60006020820190508181036000830152613d1881613cdc565b9050919050565b600081905092915050565b50565b6000613d3a600083613d1f565b9150613d4582613d2a565b600082019050919050565b6000613d5b82613d2d565b9150819050919050565b7f4661696c656420746f2073656e64204554480000000000000000000000000000600082015250565b6000613d9b601283613064565b9150613da682613d65565b602082019050919050565b60006020820190508181036000830152613dca81613d8e565b9050919050565b7f496e73756666696369656e7420746f6b656e2062616c616e6365000000000000600082015250565b6000613e07601a83613064565b9150613e1282613dd1565b602082019050919050565b60006020820190508181036000830152613e3681613dfa565b9050919050565b6000613e4882612f7a565b9050919050565b613e5881613e3d565b82525050565b6000604082019050613e736000830185613e4f565b613e8060208301846127f4565b9392505050565b7f546f6b656e207472616e73666572206661696c65640000000000000000000000600082015250565b6000613ebd601583613064565b9150613ec882613e87565b602082019050919050565b60006020820190508181036000830152613eec81613eb0565b9050919050565b7f4e487b7100000000000000000000000000000000000000000000000000000000600052602260045260246000fd5b60006002820490506001821680613f3a57607f821691505b602082108103613f4d57613f4c613ef3565b5b50919050565b7f4d7573742068617665206174206c656173742074776f206f7074696f6e732e00600082015250565b6000613f89601f83613064565b9150613f9482613f53565b602082019050919050565b60006020820190508181036000830152613fb881613f7c565b9050919050565b60008190508160005260206000209050919050565b60006020601f8301049050919050565b600082821b905092915050565b6000600883026140217fffffffffffffffffffffffffffffffffffffffffffffffffffffffffffffffff82613fe4565b61402b8683613fe4565b95508019841693508086168417925050509392505050565b600061405e614059614054846127ea565b612f4e565b6127ea565b9050919050565b6000819050919050565b61407883614043565b61408c61408482614065565b848454613ff1565b825550505050565b600090565b6140a1614094565b6140ac81848461406f565b505050565b5b818110156140d0576140c5600082614099565b6001810190506140b2565b5050565b601f821115614115576140e681613fbf565b6140ef84613fd4565b810160208510156140fe578190505b61411261410a85613fd4565b8301826140b1565b50505b505050565b600082821c905092915050565b60006141386000198460080261411a565b1980831691505092915050565b60006141518383614127565b9150826002028217905092915050565b61416a82613059565b67ffffffffffffffff81111561418357614182612bee565b5b61418d8254613f22565b6141988282856140d4565b600060209050601f8311600181146141cb57600084156141b9578287015190505b6141c38582614145565b86555061422b565b601f1984166141d986613fbf565b60005b82811015614201578489015182556001820191506020850194506020810190506141dc565b8683101561421e578489015161421a601f891682614127565b8355505b6001600288020188555050505b505050505050565b600081519050919050565b600082825260208201905092915050565b6000819050602082019050919050565b600082825260208201905092915050565b600061427b82613059565b614285818561425f565b9350614295818560208601613075565b61429e81612bdd565b840191505092915050565b60006142b58383614270565b905092915050565b6000602082019050919050565b60006142d582614233565b6142df818561423e565b9350836020820285016142f18561424f565b8060005b8581101561432d578484038952815161430e85826142a9565b9450614319836142bd565b925060208a019950506001810190506142f5565b50829750879550505050505092915050565b60006040820190508181036000830152614359818561309f565b9050818103602083015261436d81846142ca565b9050939250505056fea26469706673582212200076440c31e52343ce0d37d3dba02b745e04c67846f5da2e329d8763dea8de7764736f6c634300081c0033",
  "linkReferences": {},
  "deployedLinkReferences": {}
}